:020000040000FA
:10000000E80A0020D9000000C1250000C11B000043
:1000100000000000000000000000000000000000E0
:10002000000000000000000000000000252D00007E
:1000300000000000000000003D2C0000092F00001F
:10004000EF300000A92300001F2D00007B150000E9
:100050001D2D0000A1150000A3150000A51500002E
:10006000A715000009130000CD130000CF130000F6
:10007000D90C0000990D0000EB300000ED300000BD
:1000800091170000B1170000691800006B180000FC
:100090003D10000001110000FD000000F11B0000F8
:1000A000F31B0000212D0000232D00003D30000037
:1000B0003F30000041300000391000007915000089
:1000C0000448854600F0C6FC004800470D3B000090
:1000D000C046C046E80A002009480A4A002100A19B
:1000E000814200D902440848026008488047084815
:1000F0000047FEE7FEE7FEE7FEE7FEE7FEE700005B
:10010000000000200000000008ED00E0312F00009A
:10011000C100000030B50B4601460020202201241A
:1001200009E00D46D5409D4205D31D469540491B2B
:100130002546954040191546521E002DF1DC30BD74
:1001400070B500242546002801DA01244042002928
:1001500001DA01254942FFF7DDFFAC4200D0404201
:10016000002C00D0494270BDD2B201E00270401CA8
:10017000491EFBD270470022F6E710B513460A4627
:1001800004461946FFF7F0FF204610BDF8B50246B9
:100190004A40D40F42004B0052085B089A4202D2F8
:1001A0000246084611464A0023D0C30D4A00DDB27C
:1001B000120EAD1A202D35DA49020126490AF6053C
:1001C0008A19002C00D0524220214F1B1146B94001
:1001D0002A411018C20D9A4221D0002C17D0012DAF
:1001E00008DCDA05801AD20F8019D207DBB200F0E2
:1001F00079FBF8BDDA05801A012340001B06C01800
:1002000080185A428018CA0F1043490007E0490875
:10021000C2071143DA05801A80194008801800F0DF
:1002200059FBF8BD61000122511A001BF7E70122BA
:10023000D2075140AAE70122D2075040A6E7024662
:1002400070B54A40D30FDB0740002DD04A002AD0BA
:10025000010E140E000212020919400A520A8418F3
:10026000E50104465443000A120A2E045043A4191F
:100270004219200CC543AA18120C0125AD03521CCB
:10028000521912047F39240400D0521C104301D4A7
:100290004000491EC2B20C06C0092018401C40088C
:1002A000802A02D003E0002070BD400840000029F1
:1002B00000DA0020184370BD70B502464A40D50FE1
:1002C00040004A00ED0740085208002814D0002AD8
:1002D00012D0C40DD30D41020120C0055202490ABB
:1002E000520AE41A091812187D34914201D3641C91
:1002F00000E04900002C01DA002070BD002391428B
:1003000001D3891A0343400849000028F7D1002986
:100310000AD0914202D10121C90705E0914201D2E0
:10032000012101E00121C943E005C018401900F096
:10033000D1FA70BDF0B507460846584087B0C00FE7
:10034000049048000E46590040084908BC1A8841EC
:1003500005D2384631461E4617460B46024658001F
:10036000400810434DD0300D039040055900400D1A
:10037000490D0590401A0290402873DA18030121B4
:10038000000B09050843019004980092002806D04C
:100390001146019A49420020904100910190029833
:1003A00040210A1A0199009800F060FA05460C46AF
:1003B0006B4607CB00F07BFAC0197141039A0E0D12
:1003C0000023D71756401A467A40164344D0049A61
:1003D000002A2DD0029A012A039A15DC1205C01AB0
:1003E000914101263605001C7141D20F059ED207AE
:1003F0000093019202962A46234600F0B9FA07B00C
:10040000F0BD38463146FAE71605234A0F46B218C2
:10041000C01AB74101210905001C4F4100187F4156
:10042000114618187941E20F10436D19644113E029
:10043000E2076D0815436408C2071443039A0126B6
:100440001205C01A91413605001C7141CE074008C3
:1004500030434908C01851412A46234600F07BFA30
:10046000CDE7FFE7049801224000C117121A0023CC
:100470008B4104983146C417381AA141EEE730B4D5
:100480000124E407634030BC54E730B40124E4079E
:10049000614030BC4EE700000000E0FFF0B51FB443
:1004A00088B00B990998002448400999C00F490069
:1004B00049080991C0070B990090490049080B9120
:1004C00009990898A64608431CD00B990A98084336
:1004D00018D0099801244000420D4800410D0998A8
:1004E00024050003000B204309900B980003000B28
:1004F00020430B9050181C494018002201901446CC
:10050000104605E0002001460DB0F0BD032801DAD9
:10051000034600E003239C46C11A0AAE0AE05F00CE
:1005200008ADED5B4F00F75B7D430027AA187C41C7
:10053000491C5B1E6145F2DD410004AB5A522104A7
:10054000120C0A43240C401C0828DFDB019802909F
:100550000099704601910090059B049A07990698AE
:1005600000F006FAD0E700000DFCFFFFF0B50C46E6
:100570005C4085B0E40FE40703944C000026640857
:1005800059009446490802460296224321D0624609
:100590000A431ED06200570D4A000E032303550D77
:1005A000012402462C492405781B1B0B360B4018EE
:1005B00023432643614600901C46501AB44103D39E
:1005C0000098401C009002E0921800985B410028BF
:1005D00003DA0020014605B0F0BD00200121090525
:1005E0000746864611E064461D46141BB54106D3F6
:1005F0006546521BB341744607430C43A646CD07DC
:1006000040084908284392185B4105460D43EAD14A
:100610001046184313D060461946504071400843B5
:1006200006D06046101AB34106D20122002306E02C
:1006300000220123DB0702E00122D243531000987D
:1006400074460105381C6141029C039D00196941F3
:1006500000F081F9BFE70000FD030000C217C10FE1
:10066000504010B54018CA079623002100F03AF90F
:1006700010BD10B500229623114600F033F910BDCD
:100680000EB5C217C10F5040CA0740180021054BD4
:100690000293019200910A460B4600F069F903B0FB
:1006A00000BD0000330400000EB505490291002191
:1006B00000910A460B46019100F05AF903B000BDC3
:1006C00033040000410040020122400AD205090E15
:1006D00080187F2901DA00207047962903DC9622D2
:1006E000511AC840704796398840704770B5CD0F91
:1006F0004A0009030123090B1B0519430B4BED07A6
:100700000024520D9A4201DA002070BD074B3433A9
:100710009A4203DC9A1A00F0B9F802E00449511831
:1007200088402C43F1D0404270BD0000FF03000020
:10073000CDFBFFFFC20FD207400040080BD0C10D18
:100740000723DB01C91840020905400A1143C2080A
:1007500040071143704700200146704710B500293B
:1007600004DB0124E40740428C412146002B04DBDA
:100770001C460123DB075242A3418B4200D1824237
:1007800010BD000010B5002904DB0124E40740423D
:100790008C412146002B04DB1C460123DB0752421F
:1007A000A341994200D1904210BD0000CB0FDB075E
:1007B000490010B5490802460A4307D00A0D07242C
:1007C0000903E401090B121B002A01DC002010BD03
:1007D000C900440F0C43C100E018D205801800F096
:1007E00079F810BD0122D207002800DB101A002979
:1007F00000DB511A814270470122D207002800DB3A
:10080000101A002900DB511A88427047F0B51FB456
:100810000646002082B005464024019100901BE06E
:10082000019922460F46304600F030F8049A059BA5
:10083000801A994110D310461946224600F016F846
:10084000361A8F410197224601200021009F00F0B7
:100850000DF838184D4100902046641E0028DFDC5A
:10086000019B00982946324607B0F0BD10B5202AFA
:1008700004DB0146203A9140002010BD9140202326
:100880009C1A0346E3401943904010BD10B5202A3E
:1008900004DB0846203AD040002110BD0B46D3406F
:1008A000D0402024A21A91400843194610BD10B52B
:1008B000202A06DBCB170846203A1041C1170B430C
:1008C00006E00B461341D0402024A21A9140084371
:1008D000194610BD002904DA401C490001D1400826
:1008E0004000704770B40024050C05D110240004AA
:1008F00002D1002921D01124050E01D100020834B3
:10090000050F01D10001241D850F01D18000A41C19
:10091000002801DB4000641C002908D020252E1B84
:100920000D46F540A14000D00121294308430106AE
:100930001B1B000ADB1D02D5002070BC7047DB05C5
:10094000181880180029F8DA401C4900F5D170BC4D
:1009500040084000704710B5002B08DA0024401C06
:10096000614192185B411A4301D14008400010BD1B
:10097000F0B51FB482B005460C0003D0084602F063
:10098000EFFB02E002F0ECFB203002460090214633
:100990002846FFF76BFF049B059A04460F46184351
:1009A0001143084314D0184610431BD0009840212F
:1009B0000A1A18460599FFF769FF05460E46009A80
:1009C00005990498FFF752FF084305D0012004E081
:1009D0002046394607B0F0BD0020C11705430E433D
:1009E0002C43374300990E986305401A7905E40AB1
:1009F00000220C43FD0A0A3002D500200146E9E737
:100A00000105101969410C9C0D9D00196941FFF702
:100A1000A2FFDFE74A0009030123090B1B05194365
:100A20000A4B10B5520D9A4202DA0020014610BD61
:100A3000064B34339A4203DC9A1AFFF727FF10BDA6
:100A4000034BD218FFF712FF10BD0000FF03000098
:100A5000CDFBFFFF064C0125064E05E0E36807CC01
:100A60002B430C3C98471034B442F7D3FFF72CFBD0
:100A7000807B0000A07B000070B58C180578401CBE
:100A80006B075B0F01D10378401C2A1106D1027855
:100A9000401C03E006780E70401C491C5B1EF9D117
:100AA0002B0705D40023521E0DD40B70491CFAE706
:100AB0000378401CCB1A921C03E01D780D70491C72
:100AC0005B1C521EF9D5A142D8D3002070BD000096
:100AD00000B593B0242101A8FFF74DFB6948006BD6
:100AE00010210843674908630846006B202108432A
:100AF000644908630846406B042108436149486320
:100B00000920C006C0690821884308300921C906A8
:100B1000C8610846C0691021884310300921C90600
:100B2000C8610846C0698021884380300921C90610
:100B3000C8615548C06940084000401C5249C8611E
:100B4000002012901190FF2001300B908020109017
:100B500000200E900A900320C0020C9000200F90FD
:100B6000C0200D900AA800F0B9F848484068000974
:100B70000001C01C4549486000F092F84148006BF4
:100B8000012108433F49086341480990202004900F
:100B9000082001903D482030089000200390042058
:100BA000079040200290282006900120059001A97E
:100BB000384800F037FC0121364800F011FC33487A
:100BC000001D0990002004900820019032480890F0
:100BD0001020039003200790002002902820069008
:100BE0000120059001A92B48203000F01BFC0121B9
:100BF0002848203000F0F4FB2448083009900020F9
:100C000004900820019025480890002003900320BC
:100C1000079000200290282006900120059001A94D
:100C20001C48403000F0FEFB01211A48403000F023
:100C3000D7FB164808300990002004900820019046
:100C40001648089000200390012007900020029091
:100C5000442006900120059001A90E48603000F064
:100C6000E1FB01210B48603000F0BAFB01220221B8
:100C7000084800F0CDFB72B6092002F097FA62B680
:100C800013B000BD000001400004004800240140F2
:100C90009A00002020000240080000200C000020E4
:100CA00000B506480068012108430449086000BFF8
:100CB000802000F005F80028FAD000BD0024014093
:100CC00001460448C06B0840002801D0012070474D
:100CD0000020FCE7002401407047000082680169A1
:100CE000114342681143C2681143426911430268CB
:100CF0001143104A1268104B1A4011430D4A1160FB
:100D0000C269816911430B4A5268C0239A43114357
:100D1000084A5160016A00290AD0114609699A00FF
:100D2000914301235B02026A1A431143014A116194
:100D3000704700000024014011C0FFFFC143014A79
:100D400051617047002C01400449C96849084900B5
:100D5000C207D20F1143014AD1607047002C0140F5
:100D60000649096B012212039143020301231B036D
:100D70001A401143014A116370470000002C0140E2
:100D80000146044800690840002801D0012070474E
:100D90000020FCE7002C014010B501200004FFF703
:100DA000EFFF002803D001200004FFF7C7FF10BDAC
:100DB0004268016811430269114382681143027B52
:100DC000002A01D0802200E0002211434269114331
:100DD0000F4AD2680F4B1A4011430D4AD160816906
:100DE00011602122125CC169002A02D0FF22013267
:100DF00000E0002211432022125C002A02D00122CE
:100E0000520200E000221143014A51637047000082
:100E1000002C01400B8FFFF70268D200416811439C
:100E2000194AD269120912011143174AD1611146B8
:100E3000C9680322520591430289520503235B05C9
:100E40001A401143104AD160817B002901D0402112
:100E500000E00021027B002A02D00122920200E081
:100E600000221143427B002A02D0FF22013200E01F
:100E700000221143044A526A15239B019A431143ED
:100E8000014A516270470000002C0140416809028C
:100E90000268D20211431A4AD2690F231B029A43F5
:100EA0001143174AD1611146C96803225205914383
:100EB0000289520503235B051A401143104AD16091
:100EC000817B002901D0402100E00021027B002A23
:100ED00002D00122920200E000221143427B002A4C
:100EE00002D0FF22013200E000221143044A926A3C
:100EF00015239B019A431143014A916270470000F8
:100F0000002C0140818809040288D20411431A4A46
:100F1000D2690F231B049A431143174AD16111462A
:100F2000C9680322520591430289520503235B05D8
:100F30001A401143104AD160817B002901D0402121
:100F400000E00021027B002A02D00122920200E090
:100F500000221143427B002A02D0FF22013200E02E
:100F600000221143044AD26A15239B019A4311437C
:100F7000014AD16270470000002C014070B5049C0A
:100F8000002801D0202500E00025CE003543002AAE
:100F900001D0042600E000263543002B01D00226B4
:100FA00000E000263543002C01D0012600E0002699
:100FB0003543014EB56170BD402C014010B5114B59
:100FC000DB680A24A34304460C4323430D4CE3602F
:100FD000002A0FDB23461B6B6415A3431B19094C26
:100FE000236323461B6B1B0A1B02D4B22343054C0D
:100FF000236306E0034B1B6B01246402A343014CF3
:10100000236310BD002C01400149C86370470000F4
:10101000002C01400149486070470000402C01400D
:101020000149C86070470000402C014001494861F7
:1010300070470000402C01407047000010B50121AE
:10104000234800F06EF8002840D00121204800F02D
:1010500058F820480068401C1E4908601E48006877
:10106000401C1D4908601D480068401C1B49086061
:101070001B480068C82808D31A4800681A49086045
:1010800000201849086016490860144800681428B0
:1010900008D3164800681649086000201349086004
:1010A0000E49086013480068401C124908600C484B
:1010B0000068401C0A4908600F480068401C0E493F
:1010C00008600E480068401C0C49086010BD000014
:1010D000004801407C0000207800002084000020AF
:1010E0008C000020B400002004000020B00000208C
:1010F000B800002088000020900000208000002020
:101100007047C2698A43C2617047002904D00269EE
:1011100001231A43026103E002695208520002618E
:101120007047024690690840002801D001207047AE
:101130000020FCE7002A03D043690B43436102E02F
:1011400043698B434361704710B54A880B881A4343
:10115000CB881A430369034C23401A4302618A88EF
:10116000026010BD59F8FFFF1CB51148406B01210A
:10117000090308430E49486372B6142002F016F8BA
:1011800062B6002168464180C1800A498180012100
:101190004902018069460848FFF7D6FF012211463F
:1011A0000548FFF7C7FF01210348FFF7AEFF1CBD4D
:1011B00000000140B80B00000048014070B5044633
:1011C0000D46002D07D04B480078052803D049482C
:1011D0000078062816D100204749C86346494031A7
:1011E0004860C86001224914444800F0CAFA01224C
:1011F0009103424800F0C5FA0122D1033F4800F0B4
:10120000C0FA70BD002C01D0052C0AD10122510377
:101210003A4800F0B6FA0122D103384800F0B1FA9A
:101220001CE0012C01D0022C0AD1012251033348C9
:1012300000F0A7FA01229103304800F0A2FA0DE075
:10124000032C01D0042C09D1012291032B4800F07A
:1012500098FA0122D103294800F093FA002C01D01A
:10126000012C08D10020244940314860C86024483E
:1012700000682149C863022C01D0032C08D100204A
:101280001D49C8631C494031C8601D48006848605A
:10129000042C01D0052C08D100201749C863164939
:1012A0004031486016480068C860002C01D0052C09
:1012B00006D1002201218903104800F062FA14E0EF
:1012C000012C01D0022C06D100220121C9030B48B8
:1012D00000F057FA09E0032C01D0042C05D10022BC
:1012E00001214903054800F04CFA0648046000BF9C
:1012F00087E7000098000020002C0140000400480F
:10130000D40000200801002010B5012000F074F87E
:10131000002804D0012000F05BF800F001F810BDB7
:101320002348406840084000214948600020214986
:101330004861214988638320486088131C494862BA
:101340001D48203088621D48C8620846006A40086F
:101350004000401C08621A4815494031486019484D
:1013600088601548001DC8600846006840084000B5
:10137000401C086012484862134888620E480830D2
:10138000C8620846006A40084000401C08620C48D9
:10139000801E0749803148600B4888600648083045
:1013A000C8600846006840084000401C086070475C
:1013B00000000240002C0140002401409A0000205F
:1013C00003000100090000200C0000207047704756
:1013D000024949688143014A516070470000024058
:1013E000002904D0026801231A43026003E0026866
:1013F00052085200026070470146044800680840E5
:10140000002801D0012070470020FCE700000240C6
:10141000002A03D003680B43036002E003688B4398
:10142000036070470268F8239A430B681A434B68BD
:101430001A438B681A43CB681A4302600269120A86
:1014400012020B691A434B691A43026101231B0400
:101450008A691A434260CA6982600A6AC260704738
:1014600010B53E480078052800D110BD0121890241
:101470003B4800F07DF9012803D10020394908706C
:101480002AE038480078002826D1002400E0641CB7
:10149000FF20F5308442FAD301218902304800F060
:1014A00067F9002818D1304800680121081A2E4930
:1014B000086008460068002805D10122D1022848AA
:1014C00000F05FF905E000220121C902244800F084
:1014D00058F90120234908702021214800F048F9DB
:1014E000012803D100202149087034E01F4800780A
:1014F000002830D1002400E0641CFF20F530844235
:10150000FAD32021164800F033F9002823D11848D7
:1015100000680121081A164908600846006800287A
:1015200007D100220121C9020920C00600F029F9D3
:1015300005E00122D1020920C00600F022F90C4882
:1015400000680C490978884202D0032003490870DA
:1015500001200649087000BF87E7000098000020BE
:1015600000040048A30200200C010020A202002079
:1015700010010020AC00002070477047002804D004
:101580000822024310231A4300E000221146024AB7
:101590000A43024B5A60704700005A5A002002402A
:1015A00070477047704770471FB52D48006B10217A
:1015B00008432B4908630846006B2021084328494B
:1015C00008630846006B40210843254908638020D2
:1015D000029020200190234803904814009069460F
:1015E000214800F045F80120C0020090694609201A
:1015F000C00600F03DF80120C002009069461B487B
:1016000000F036F801200003009069460920C0066A
:1016100000F02EF800220121C9020920C00600F0C6
:10162000B0F80122D102114800F0ABF880200290FE
:10163000112001900B480390012080020090694620
:101640000A4800F015F8202000906946074800F08D
:101650000FF8102000906946044800F009F81FBDFB
:1016600000000140FFFF000000080048000400489F
:101670004A68002A04D1C2690B681A43C26174E047
:10168000C2690B689A43C26110234A681A40102A43
:101690004ED102680B681A4302604A68112A07D1CA
:1016A00002690B681A430261C2680B689A43C26000
:1016B0004A68122A07D1C2680B681A43C2600269DD
:1016C0000B689A430261426A0B689A434262826ADB
:1016D0000B689A438262C26A0B689A43C262026BC9
:1016E0000B689A43026381238A681A40812A03D1D6
:1016F000426A0B681A43426282238A681A40822A2D
:1017000003D1826A0B681A43826284238A681A4072
:10171000842A03D1C26A0B681A43C26288238A688A
:101720001A40882A21D1026B0B681A4302631CE01D
:1017300002680B689A4302604A68202A04D1426812
:101740000B689A43426003E042680B681A434260A8
:10175000064BCA689A4204D182680B681A438260B9
:1017600003E082680B689A4382607047FFFF0000C5
:101770000246106D0840002801D00120704700206B
:10178000FCE7012A01D1C16500E0816570470000D6
:1017900010B5064C0121204600F07CF8002803D04B
:1017A0000121204600F062F810BD00000004004056
:1017B00010B500240821244800F06CF8002803D05C
:1017C0000821214800F052F810211F4800F062F86B
:1017D000002803D010211C4800F048F820211A48A6
:1017E00000F058F8002803D02021174800F03EF8F8
:1017F00000F0E8F80446002C01D0072C00D110BD01
:1018000012480068401C1149086011480068401CDB
:101810000F4908600F480078062148430E494118D7
:10182000601E085C0D4908600D480068012809D158
:101830000C480078002805D109480168074800686D
:10184000FFF7BCFC00BFDAE700100040B00000204A
:10185000B4000020AC000020747B0000A800002031
:10186000A4000020A200002070477047CA43032351
:101870001B02C318DA617047032212028218126930
:1018800052085200CB07DB0F1A4303231B02C31875
:101890001A61704702460320000210188069084050
:1018A000002801D0012070470020FCE710B503227A
:1018B0001202821892680C780F23A3409A434B6857
:1018C000A3401A4303231B02C3189A600322120287
:1018D0008218126B0C780F23A3409A43CC68E40063
:1018E0008B6823430C78A3401A4303231B02C318BD
:1018F0001A6310BD10B5002A09D003231B02C318B8
:101900005B690B43032424020419636108E0032389
:101910001B02C3185B698B4303242402041963610F
:1019200010BD000010B54B68CA681A430B681A4313
:101930000B7A002B01D0402300E000231A4303233D
:101940001B02C3181B69064C23401A4303231B02C6
:10195000C3181A6103231B02C3180A691A6010BD59
:1019600019F8FFFFF8B5034608462038C5B21689B6
:1019700057897E433046F617760F3618F4102846FE
:1019800060430090002006E0D768009E3618BE5DD8
:101990001E54461CB0B2A042F6D30020F8BD000091
:1019A00070B504460D4602A001F0B6FB002070BDE4
:1019B000B5B1C7B0D7D6CCE5B2BBD6A7B3D6D6D0D3
:1019C000CEC40A0010B500240121C9030920C006B5
:1019D000FFF7CEFE002800D0012408211348FFF7AE
:1019E000C7FE002801D00220044304210920C006BC
:1019F000FFF7BEFE002801D004200443002C01D0D4
:101A0000072C0ED10A480078401C09490870084686
:101A100000780A2808DB0A200870022005490870AF
:101A200002E0002002490870204610BD0004004872
:101A300014010020A200002010B50024FFF7C2FF0F
:101A40000446002C01D0072C00D110BD0B480078B3
:101A5000062148430A494118601E085C094908608C
:101A6000002009490860012008490860084601680B
:101A700004480068FFF7A2FB00BFE6E7AC000020C7
:101A8000747B0000A8000020C0000020A4000020FB
:101A900000B58DB04448806B0421084342498863F7
:101AA0000846006B102108433F4908630846006B55
:101AB000202108433C4908638020029011200190B6
:101AC0003A4800903A48039069460920C006FFF75B
:101AD000CFFD802002901120019008200090344812
:101AE000039069463348FFF7C3FD0920C0064069EB
:101AF000000100090121490740180921C906486170
:101B00002C4880690F2109038843012149034018AB
:101B1000284988610920C00680690F21090288438D
:101B20000321490240180921C906886172B61120B3
:101B3000002809DB00BF00BFC206D20E0121914080
:101B40001D4A116000BF00BF00BF62B600200890B0
:101B500009900B9016480C90002008A908721748AD
:101B6000FFF7E0FE0020049001200690079003207C
:101B7000059004A91148FFF799FE0420049004A9D8
:101B80000E48FFF793FE0820049004A90B48FFF7C6
:101B90008DFE012238210948FFF7ACFE01210748DC
:101BA000FFF76AFE0DB000BD000001400480000098
:101BB000FFFF00000004004800E100E000100040CA
:101BC000FEE70000084880680121C90288430649F1
:101BD000886008468068C9148843401802498860B4
:101BE00000200249886070474000014000540040D6
:101BF00070477047002905D0826804239A43121D5C
:101C0000826003E0826804239A438260704700295F
:101C100005D0026852085200521C026003E00268BC
:101C20005208520002607047816808229143816027
:101C30007047002905D0826840239A434032826071
:101C400003E0826840239A4382607047002905D0F0
:101C5000826852085200521C826003E08268520877
:101C6000520082607047002912D04269F82A09D0D8
:101C7000826820239A4320328260826808239A4334
:101C8000826009E0826820239A432032826003E068
:101C9000826820239A4382607047002905D08268B9
:101CA00010239A431032826003E0826810239A4323
:101CB000826070470146886808221040C00870475B
:101CC00001464869C0B27047FFB581B015461E464F
:101CD000002701210198FFF7C6FF4AE000BF0198E5
:101CE000FFF7E8FF0028FAD00198FFF7E9FF044664
:101CF0002046282C1BD006DC082809D0182811D033
:101D0000202827D11BE030281FD0382822D117E007
:101D100000210198FFF7A7FF00227821019800F029
:101D2000EDFA18E00299019800F0F1FA13E0384654
:101D30007A1CD7B2295C019800F0E9FA0BE000BFE9
:101D400001210198FFF78FFF05E001210198FFF7BE
:101D5000A4FF00E000BF00BFB74207D901210198EE
:101D6000FFF79BFF0198FFF75FFF03E00198FFF784
:101D70005BFFB3E700BF05B0F0BD30B505460C46CC
:101D80006178284600F0C5FA21782846FFF73FFF22
:101D9000A1792846FFF75AFFE1792846FFF72AFF85
:101DA0006078092803DC01212846FFF74FFF30BD8A
:101DB00070B5064600240CE0002506E00020E10195
:101DC0000C4A89184855681C85B2802DF6DB601CCA
:101DD00084B2082CF0DB002007490870074908701E
:101DE0000749088007490880012E01D100F052FA06
:101DF00070BD0000E402002018000020190000203F
:101E00001400002016000020F8B50B46CD176D0F0A
:101E1000ED186D052A0ECD176D0FED18ED10ED00C4
:101E20004D1BECB20123A340DBB20093264B0025EF
:101E30005D5F5319DB01254D5B19254D0026AE5F13
:101E400085195B5DDB43204D0026AE5F9519ED01E2
:101E50001E4EAD191E4E0027F75FC619AB551A4B23
:101E600000255D5F5319DB01184D5B19184D0026E5
:101E7000AE5F85195B5D009D2B43134D0026AE5F61
:101E80009519ED01114EAD19114E0027F75FC619D6
:101E9000AB550D4B00255D5F5319DB010B4D5B19F5
:101EA0000B4D0026AE5F85195B5DDB43064D0026BA
:101EB000AE5F9519ED01054EAD19054E0027F75F90
:101EC000C619AB55F8BD000016000020E402002042
:101ED0001400002070B50346084606E00024DD012A
:101EE000034EAD192C54441CE0B29042F6DB70BD99
:101EF000E4020020F8B50A46CD176D0FAD186D0548
:101F00002B0ECD176D0FAD18ED10ED004D1BECB283
:101F10000122A240D2B200920D4A0025555F5A1903
:101F2000D2010C4D52190C4D0026AE5F8519525D41
:101F3000009D2A43064D0026AE5F9D19ED01054E1A
:101F4000AD19054E0027F75FC619AA55F8BD000068
:101F500016000020E40200201400002010B5AE207E
:101F600001F0C6F8402001F0C3F8B02001F0C0F83D
:101F7000C82001F0BDF8812001F0BAF8FF2001F07F
:101F8000B7F8A12001F0B4F8A62001F0B1F8A8201C
:101F900001F0AEF81F2001F0ABF8D32001F0A8F853
:101FA000002001F0A5F8D52001F0A2F8F02001F002
:101FB0009FF8D92001F09CF8222001F099F8DA204E
:101FC00001F096F8022001F093F8202001F090F83B
:101FD000002001F08DF8DB2001F08AF8492001F0A3
:101FE00087F88D2001F084F8142001F081F8AF20EB
:101FF00001F07EF810BD000070B506460C4615468F
:10200000022E1AD0042E2DD0062E40D0082E53D1E9
:102010002B480088001900B2294908800846002191
:10202000415E002908DB002D03D1002024490880EF
:1020300002E00020224908803EE021480088001B81
:1020400000B21F49088008460021415E002908DCD3
:10205000002D03D100201A49088002E00020184911
:10206000088029E017480088001900B21549088047
:1020700008460021415E002908DB002D03D1002025
:102080001049088002E000200E49088014E00D4845
:102090000088001B00B20B49088008460021415E01
:1020A000002908DC002D03D100200649088002E049
:1020B00000200449088000BF00BF00F0EBF870BDAD
:1020C0001600002014000020F7B584B0044627490C
:1020D00009684989254A1268128951430846C91777
:1020E000490F09184905090E0191009401980390C0
:1020F000039801F04DFF06461C48026830460699D9
:10210000FFF730FC002529E0705D0290002715E004
:10211000802102980840002804D020460599FFF746
:10212000E9FE03E020460599FFF76EFE029840069F
:10213000000E0290601CC4B2781CC7B2082FE7DB07
:102140000098201A094909680989884204D1009C2D
:102150000598401CC0B20590681CC5B20198854224
:10216000D2DB304601F0A8FC07B0F0BD1000002023
:10217000F7B58AB00446019402A80C99FFF710FC49
:10218000002529E0680002A90F5C3F026800401C9E
:10219000085C0743002612E00120C00330413840AC
:1021A000002804D020460B99FFF7A4FE03E0204648
:1021B0000B99FFF729FE601CC4B2701CC6B2102E2A
:1021C000EADB0198201A102804D1019C0B98401CCE
:1021D000C0B20B90681CC5B2102DD3DB0DB0F0BDA2
:1021E00037B514464EE0224601A9684600F0EAF9E8
:1021F00004462078002800D147E020787F2822DAA2
:102200002278684601790078FFF75EFF2048006871
:10221000017A684600780818C1B200911C4800682D
:1022200000898021091A68460078814209DA002174
:10223000009117480068817A684600790818C1B291
:102240000191641C1EE020787F281BDD2588280270
:102250002912401885B22A46684601790078FFF7AE
:1022600087FF684600781030C1B200916846007858
:10227000702806DD00210091684600791030C1B257
:102280000191A41C20780028ADD100BF3EBD000004
:102290001000002070B5212000F02AFF002000F07F
:1022A00027FF7F2000F024FF222000F021FF0020E4
:1022B00000F01EFF072000F01BFF002415E00025A2
:1022C0000FE00B4900228A5EA118C901094A89184A
:1022D000094A0023D35EEA18885C00F013FF681CEB
:1022E000C5B2802DEDDB601CC4B2082CE7DB70BDED
:1022F00016000020E402002014000020002A02D072
:102300000123194301E0FE231940C1607047C160F9
:10231000704741607047000000B587B01E48806B71
:102320000121C90208431C4988630846006B20212B
:10233000084319490863194880690F210906884331
:102340000321090640181549886108468069000183
:10235000000903210907401810498861C020039033
:10236000212004900E48069003A90C48FFF780F93D
:102370000121684601710421417100218172C172FD
:10238000FFF720FC01A90748FFF7F7FC01210548EA
:10239000FFF74FFC07B000BD0000014000040048FB
:1023A000FFFF0000005400407047000010B50020FF
:1023B0000349086000210846FEF700FF10BD000039
:1023C000A400002010B5FFF7F1FF002002490860CB
:1023D00006200249087010BDA400002098000020CB
:1023E000002400BF012251032548FFF7CAF900204D
:1023F0002449086000BF23480068C828FBD33DE09B
:102400002148007884422FDA1E480068C82806D286
:102410000022012149031A48FFF7B3F92EE01948B9
:102420000068FF219131884205D8012251031448E8
:10243000FFF7A7F922E013480068FF219131884295
:102440001CD911480078844218DA601CC4B20020FC
:102450000C4908600C48007884420FDA01225103CD
:102460000748FFF78EF909E006480068FF21F531BB
:10247000884203D30024002002490860C0E700001E
:10248000000800487C000020A200002010B517487A
:102490000078052800D110BD15480068002803D039
:1024A00014480068002802D1032010490870104821
:1024B00000681149086011480068142814D30020EE
:1024C0000E4908600E490968FF22F532514308465B
:1024D0000C490968FDF71EFE0B49086008460168B3
:1024E0000548006800F0FEF900BFD4E7980000201E
:1024F000C80000200C010020BC0000208800002043
:10250000B8000020E4000020C00000200A48007845
:10251000052800D1704709480068002809D00848FC
:102520000068012805D1044908700648007806496A
:10253000087000BFEEE7000098000020C8000020EF
:102540000C01002010010020AC00002010B50B4849
:102550000078052800D110BD00F070F9002108486E
:10256000006800F0BFF9FFF767FA064800680649FF
:10257000086002200149087000BFECE798000020C5
:10258000F8000020C8000020BC00002010B5094859
:102590000078052800D110BD002007490860FFF72A
:1025A00005FF06480068002801D10249087000BFF5
:1025B000F1E7000098000020A4000020C4000020E3
:1025C00070470000FEB504460D4616462AE13078F5
:1025D000082806D009287CD00A2809D00D2806D161
:1025E00061E0207894490968097A401A207017E15F
:1025F00091480068408908282CD010281DD0182840
:102600000ED0202832D12A780192D217530F019A86
:102610009A18D210D01C21788022FFF75BFC00BFF3
:102620002A780192D217530F019A9A18D210901C4F
:1026300021788022FFF74EFC00BF2A780192D21742
:10264000530F019A9A18D210501C21788022FFF75C
:1026500041FC00BF2A780192D217530F019A9A18B1
:10266000D01021788022FFF735FC00BF00BF00208A
:102670002070287870490968897A4018287028786D
:102680006D49096849894022511A88420ADD0022B1
:1026900002210820FFF7B0FC287867490968897A89
:1026A000401A2870BCE064480068408908282ED091
:1026B00010281FD0182810D0202834D12A78019251
:1026C000D217530F019A9A18D210D01C2178802269
:1026D00000E045E0FFF7FEFB00BF2A780192D21729
:1026E000530F019A9A18D210901C21788022FFF77C
:1026F000F1FB00BF2A780192D217530F019A9A1862
:10270000D210501C21788022FFF7E4FB00BF2A780A
:102710000192D217530F019A9A18D0102178802273
:10272000FFF7D8FB00BF00BF002020702878424987
:102730000968897A4018287028783F4909684989CA
:102740004022511A88420ADD002202210820FFF7A8
:1027500053FC287838490968897A401A28705FE064
:10276000354A1268128991002078FDF7E9FC324859
:102770000068007A8000401AC7B22F48006840897C
:10278000082838D0102825D0182812D0202842D167
:1027900028780190C017430F01981818C010C01C6A
:1027A00000902078C019C2B221780098FFF792FB00
:1027B00000BF28780190C017430F01981818C01067
:1027C000801C00902078C019C2B221780098FFF7D1
:1027D00081FB00BF28780190C017430F019818189B
:1027E000C010401C00902078C019C2B22178009817
:1027F000FFF770FB00BF28780190C017430F0198C6
:102800001818C01000902078C019C2B22178009822
:10281000FFF760FB00BF00BF2078C019207000BF29
:1028200000BF761C3078202803DA3078002800D0EA
:10283000CDE63046FEBD00001000002070B500203F
:102840001D4908601D4A1060506000211C4A11603B
:1028500051601C480068FDF70CFF04461A49FDF75B
:102860002BFD1A4908601A480068FDF702FF04466C
:102870001549FDF721FD1749086017480068FDF765
:10288000F8FE04461049FDF717FD14490860144886
:102890000068FDF709FF094A03C20E480068FDF70A
:1028A00049FF044622460B46044903C9FDF75EFE74
:1028B000024A03C270BD0000D4020020B80200200A
:1028C000C8020020FC00002000007A44A80200207A
:1028D00000010020AC02002004010020B002002012
:1028E000D4000020F0B589B004460D4600265C48AF
:1028F000006860434B21C900884206D258480168ED
:102900004B20C000FDF706FC0446601B55490860DB
:102910000022554B554903C9FDF720FF04D2002082
:102920005149524A03C232E051480068FDF702FFA4
:10293000059104904D480CC80498FDF7AFFD0022A6
:102940004C4B07910690FDF71DFF13D2002149481B
:10295000464A1160506046480068FDF7EBFE0246AB
:102960000B4607910690414903C9FDF7FFFD3F4A19
:1029700003C20CE03B480068FDF782FE0791069019
:102980003A480CC80698FDF7D5FC384A03C23548CA
:102990000068FDF775FE0591049037480CC804984F
:1029A000FDF76DFD07910690FDF7A0FE3349086025
:1029B0002C480068FDF764FE2F4A03C230480768C0
:1029C00028480068FDF74AFE39460790FDF737FCB6
:1029D0000646274807683846FDF7ACFE019100908F
:1029E00022480CC80098FDF759FD05910490304627
:1029F000FDF7A0FE03910290059B049AFDF79AFC57
:102A000007910690FDF7D2FE06461E4807681B4850
:102A10000068FDF723FE39460690FDF710FC3146AD
:102A20000790FDF7B3FB064617493046FDF7E4FE75
:102A300003D21648164908600EE07F21C9053046CA
:102A4000FDF7D0FE03D201201149086004E03046B2
:102A5000FDF738FE0E49086000F000FB09B0F0BD3C
:102A6000E4000020D402002000407F40B802002093
:102A7000AC02002000BEA240C8020020D00200200C
:102A8000A8020020B002002000F015455F090000F8
:102A9000D400002000B593B06248406B8021084309
:102AA000604948630846006B102108435D4908638C
:102AB0000846006B202108435A4908630920C006D4
:102AC000406900090001C01D0921C9064861084686
:102AD0004069F021884370300921C90648610846E1
:102AE00040690F2109028843072109024018092182
:102AF000C9064861802004902020039007204003ED
:102B000002904948059002A94848FEF7B1FD00220D
:102B1000FF2101310920C006FEF733FE002201210A
:102B200049020920C006FEF72CFE0022012189027D
:102B30000920C006FEF725FE802004902020039087
:102B40000720000202903848059002A90920C0061B
:102B5000FEF78EFD012251033448FEF712FE0122DA
:102B600091033248FEF70DFE0122D1032F48FEF7F4
:102B700008FE012108A8017500200F9048030C9061
:102B800000200A900B9010A8417200200E90284857
:102B9000109000201190002110A801720AA8FEF7E1
:102BA00007F9002108A8817101710020089008A888
:102BB0004171062007900020069006A8FEF72CF928
:102BC00006A8FEF763F906A8FEF79CF90020FEF7B9
:102BD0001BFA0020FEF71EFA0020FEF721FA002261
:102BE000D24300210820FEF7E9F90120FEF7B8F8EA
:102BF0000120FEF7A9F80F488069082188430830B2
:102C00000C498861002003460122114600901046BD
:102C1000FEF7B4F90848FEF709FA0120FEF794F828
:102C200013B000BD00000140FFFF00000004004899
:102C30005F090000002C0140AF0400007047000055
:102C400010B5002400E0641C18488442FBD3002423
:102C500000E0641C15488442FBD3002400E0641C9F
:102C600012488442FBD3002400E0641C0F488442D5
:102C7000FBD3002400E0641C0C488442FBD30024F6
:102C800000E0641C09488442FBD309490968094AE9
:102C90001268881AFDF7EDFC0749086007490648E5
:102CA0000068FDF709FB0449086010BD60EA0000F8
:102CB000E8000020F8000020CC00002000F058457B
:102CC00010B5052000F010F80648006B02210843FB
:102CD000044908630220FEF751FC062000F004F8C6
:102CE00010BD000000000140C10293225202128870
:102CF0001143084A916111464968074A1143054A40
:102D0000516000BF034989690122D20311409142F9
:102D1000F8D170470000014001005A5A70477047CF
:102D20007047704770470000FEB500250024164824
:102D3000C488FF20EB30844203D20020134908608E
:102D400020E0FF20F53084421CD91148844219D874
:102D50002046FF38F538FDF78CFC00900D480168DF
:102D60000098FDF76CFA07460B480068FDF781FCF8
:102D700039460190FDF70AFA0646FDF7A3FC054621
:102D800002480560FEBD00009A000020C800002037
:102D9000830F0000CC000020F8000020F0B587B0C1
:102DA0004748808847490968884203D80020464937
:102DB000086018E042498988424A1268881AFDF77B
:102DC00058FC06900698FDF7B5FC06463F4A404B76
:102DD000FDF764FB0446FDF7E9FC06900698FDF755
:102DE00071FC394908603B4800687D21C9004843AF
:102DF00035490968884210D83748007800280CD136
:102E000036480078401C35490870084600780F287D
:102E100006DB04203049087002E000202F490870CA
:102E200027490888FDF725FC06908B21C9050698DF
:102E3000FDF742FA0190FDF77DFC0446284A294B34
:102E4000FDF72CFB0646264A274BFDF78FFB274A4A
:102E5000274B03910290FDF721FB05910490FDF7AC
:102E6000A5FC069023490698FDF7E9F90446FDF70D
:102E700029FC21490860214800680A2148431E496D
:102E80000968884210D81448007800280CD11C48E2
:102E90000078401C1A490870084600780F2806DBA5
:102EA00006200D49087002E000201549087000F066
:102EB0005DF80446FDF7DDFB1249086007B0F0BD80
:102EC0009A000020D8000020E0000020C3F5285C14
:102ED0008FC2F93FEC000020A2000020A0020020D9
:102EE0006666666666660A40666614403333333348
:102EF00033A3694000002041DC000020F0000020E6
:102F0000A1020020940000200348006803490978CA
:102F100040180149086070476800002070000020D8
:102F2000014802490860704700127A0074000020CE
:102F300000B5FFF7F5FF9321490209884805400DC8
:102F400009498969C90AC9020143074A9161932164
:102F5000490249888805800D1146096A890A890253
:102F60000143116200BD000000000140F0B585B0D2
:102F70002C494888FDF77DFB04908B21C9050498F6
:102F8000FDF79AF9049028490498FDF758F9049040
:102F900026490498FDF790F925490090FDF74BF973
:102FA000014601900498FDF787F90490214904989F
:102FB000FDF745F90190FDF785FB0390039D612620
:102FC00000240DE030194708B8001B490858A842F2
:102FD00001D23E4600E03C46301B012800D800E00C
:102FE000F0E700BFA64203D10A202546454316E07C
:102FF000A100114A5158B2000F4B9A58881A0A2161
:10300000FDF788F80290A1000B4A5158481B02991D
:10301000FDF780F80290029D0A206043451928467A
:1030200005B0F0BD9A00002000404E4500007A44F3
:103030000000A040000020411801002070477047A8
:1030400010B50421044800F047F8002803D00421FB
:10305000014800F03DF810BD0048004019480068E4
:10306000002803D017480068012808D1002016491D
:103070004860C8601548006813494039C863114862
:103080000068022803D00F480068032808D10020F8
:103090000D494039C8630C49C8600C480068486055
:1030A00008480068042803D006480068052808D1AD
:1030B000002005494039C863034948600348006857
:1030C000C860704708010020402C0140D400002057
:1030D000026A8A43026270470246D06908400028AB
:1030E00001D0012070470020FCE77047704770470F
:1030F00001B501236A4600210148FEF7E5FD08BD40
:103100000054004001B501236A4640210148FEF702
:10311000DBFD08BD005400400FB410B503A9044BFB
:10312000044A029800F01CF910BC08BC04B018470F
:10313000A73A0000D80200200FB410B504A9074B2D
:1031400002AA039800F00CF9044602A9002000F03E
:10315000A5FC204610BC08BC04B018479D3A0000EE
:103160002021020C01D010211046020A01D0104685
:103170000839020901D01046091F820801D0104603
:10318000891E420801D0881E7047081A704730B463
:103190007446641E2578641CAB4204D3635D5B00F7
:1031A000E31830BC18471D46F8E70000002809DB8B
:1031B00000BF00BFC206D20E01219140024A116039
:1031C00000BF00BF7047000000E100E002E008C857
:1031D000121F08C1002AFAD170477047002001E091
:1031E00001C1121F002AFBD170470000F0B51FB4C7
:1031F00086B00998089A030D0021024314D0514863
:10320000514A1818504305141198012810981AD0E3
:10321000281A401C00264D4F4D49009601910490FC
:10322000002812DA444211E01198012449A3012830
:1032300001D11098C1430698119A84600360C2605E
:1032400041600BB0F0BD4042E4E704462105002098
:103250003F4A001C51410391029012E0E00707D061
:1032600032463B4601990098FDF718F9019100900C
:1032700032463B4610461946FDF710F906460F4602
:103280006410002CEAD10498039B0028029A099943
:10329000089806DAFDF702F9019B009AFDF7FEF89F
:1032A00005E0FDF763F9019B009AFDF75FF904461D
:1032B0000E460022284BFDF765FA03D80020C043D4
:1032C000014607E00022254B20463146FDF732F843
:1032D000FDF7A0FB102409E0002C0ADB0A220023E2
:1032E000FDF794FA079B30321A55641E02460A43D2
:1032F000F2D11122641C079B121B1C19119B012B7C
:1033000003D0012308430ED10AE0084304D0112062
:1033100010900020119077E71098151A6D1E0BE0A1
:103320001098824202DD00236D1C03E0824201DA24
:1033300000236D1E002BEED0069811998260C160AB
:1033400030C07EE701FCFFFF104D0000000014407C
:103350000000F03F300000000000F0430000E03FBC
:10336000FFB597B0064600251BE2252876D100243C
:103370002746F749049400E00443761C3278012084
:10338000203A90400842F7D130782A280ED0022205
:10339000307801463039092916D804990A2359434F
:1033A000303940181443761C0490F1E7189802C88D
:1033B00004911890002904DA012040030443484294
:1033C000049002200443761C30782E2814D1042067
:1033D00004437078761C2A2809D11898761C80C876
:1033E000189009E00A214F43303FC719761C307806
:1033F000014630390929F5D930786C2810D006DC1F
:103400004C281AD068280ED06A2817D104E07428F6
:1034100013D07A2812D110E00120400504430CE0BB
:103420000121090501E0032109050C43717881425E
:1034300003D1012000052418761C761C30786628FC
:103440000BD013DC58287DD009DC00287BD0452820
:10345000F6D04628F4D047281AD1A9E118E063280D
:1034600035D0642870D0652812D1A1E170286CD0C5
:1034700008DC6728F1D069287DD06E280DD06F2830
:1034800006D1BCE073282ED0752873D0782859D087
:103490001A9A199990476D1C82E16002400F022828
:1034A00009D003280DD00428189801680DD00D60AC
:1034B000001D189074E11898EA1701680D604A60C1
:1034C000F6E7189801680D80F2E70D70F0E718989C
:1034D0006A4601781172001D18900020507202A8EF
:1034E0000090012005E0189802C818900020009173
:1034F000C04361070ED5002101E00199491C0191EB
:10350000B94213DA8142F8DB019A0099895C0029FB
:10351000F3D10BE0002101E00199491C01918142A6
:10352000FADB019A0099895C0029F5D10199049888
:103530001A9B471A21463846199A00F099FA401901
:10354000019903E051E030E115E050E0451807E053
:10355000009800990078491C00911A9A199990478F
:103560000198401E0190401CF2D1214638461A9B1A
:10357000199A12E137E00A200021009001916002BF
:10358000410F022907D0189A01CA1892C21794460F
:10359000032908D00AE01898C01DC108C90005C950
:1035A0001891944607E000B2C2179446042902D14C
:1035B00040B2C1178C4600226146944506DA0A469D
:1035C0000021404291418C462D2102E0210504D585
:1035D0002B216A461173012103E0E10701D020216C
:1035E000F7E7029156E00A200AE0102008E01020D8
:1035F00000900021042004430191082703E00820E3
:103600000021019100906002410F022907D0189A11
:1036100001CA189200229446032908D008E018989D
:10362000C01DC108C90005C91891944603E080B2C5
:10363000042900D1C0B20021029121072AD5317896
:103640000D91702906D0009A1021019B4A401A431F
:1036500005D00EE040216A461173012108E0614661
:10366000014306D030216A4611730D99517302212E
:103670000291009A0821019B4A401A430AD16146EF
:10368000014301D1610705D530216A46117301213B
:103690007F1E02913178582904D02EA10E910DA9D8
:1036A0000D910DE030A1F9E76146019B009AFDF70D
:1036B000ADF80E9B8C469B5C0D9A521E0D921370BA
:1036C00061460143F0D10D9805A9081A20300190F8
:1036D000600703D501200004844300E0012701981E
:1036E000874201DD381A00E000200199009041185E
:1036F000029809180498401A0490E00306D4214661
:103700001A9B199A049800F0B3F94519002706E0AE
:1037100003A81A9AC05D199990476D1C7F1C0298E6
:103720008742F5DBE0030CD521461A9B199A0498D1
:1037300000F09EF9451904E01A9A30201999904733
:103740006D1C0099481E00900029F5DC1FE0000068
:103750000928010030313233343536373839616267
:10376000636465660000000030313233343536372B
:103770003839414243444546000000000D980D99F8
:103780000078491C0D911A9A199990476D1C01995E
:10379000481E01900029F1DC4DE100F059F945196E
:1037A000761C3078002800D0DFE528461BB0F0BD3D
:1037B000600700D406271898C01DC108C9004868D2
:1037C0000A680831C30FDB071891190001D09CA1CA
:1037D00008E0210501D59BA104E0E10701D09AA1F1
:1037E00000E09AA14300109130785B0865280CD066
:1037F00006DC452809D046281DD0472841D141E0A4
:10380000662818D067283CD13CE00021112F01DB4D
:10381000112000E0781C0191009008A911A8FFF781
:10382000E5FC139905910021119A15927F1C1298BD
:103830000197009150E00120C00703900120019002
:1038400008A9009711A8FFF7D1FC139A14990592C3
:103850000022119B009212981593059A019200295B
:1038600001D0104602E0791C40180190381A01D5A9
:10387000019804E04042401E0090781C0190C01B5B
:10388000029043E0012F00DA01270021112F01DD12
:10389000112000E038460191009008A911A8FFF717
:1038A000A5FC13990591119A002112981592009187
:1038B000019721070CD40599B94201DB019900E079
:1038C0000191012904DD159A491E515C302906D069
:1038D000B84201DA011D05DA0121029115E00199D2
:1038E000491EEDE7002805DC009941180091019977
:1038F000091A03E0019A411C914200DD01910099EF
:10390000401A401C02900120C0070390200706D4F3
:1039100002990198814202DB0020C04302900020FE
:103920006946C87707AF012103980337C907884262
:1039300024D0022011902B201290039800280CDA3A
:10394000404203902D20129007E00A210398FCF7D3
:10395000E1FB30317F1E039039701199481E1190A0
:103960000029F2DC03980028EFD1791E1298087024
:103970003078202108404530BF1E387006A8C01B93
:10398000C01D039010980078002800D001200199F4
:1039900041180298C0170918039809180498401A8A
:1039A000401E0490E00306D421461A9B199A0498FD
:1039B00000F05EF8451910980078002803D01A9A94
:1039C000199990476D1CE00324D521461A9B199A3A
:1039D000049800F04DF845191CE00098002807DB1A
:1039E00000990598884203DD1598405C199901E01B
:1039F000199930201A9A904700986D1C401C00902D
:103A00000298401E0290002804D11A9A2E2019997B
:103A100090476D1C0199481E01900029DDDC05E0EE
:103A200038781A9A7F1C199990476D1C0399481E83
:103A300003900029F4DC21461A9B199A0498ACE6FD
:103A40002D0000002B0000002000000000000000FE
:103A5000F8B5044600251E461746880404D405E040
:103A600039462020B0476D1C641EF9D52846F8BDA4
:103A7000FFB50446002581B01E46C80301D5302796
:103A800000E02027880404D505E038460399B047B4
:103A90006D1C641EF9D5284605B0F0BD0A68531C9C
:103AA0000B601070704738B504466846047069466C
:103AB0000320ABBE204638BD10B5002823D0124BE2
:103AC0000022001F196803E0814203D80A464968B2
:103AD0000029F9D1002A0AD01368841A9C4204D123
:103AE000006818181060104602E0506000E018608E
:103AF000002907D002680B1A934203D10B68D21831
:103B000002604968416010BDDC020020A8B00025B9
:103B1000002400200190FFF793F8FFF7D1F8FDF79C
:103B200043FD0022012109030920C006FDF729FEFB
:103B3000002201214903D948FDF723FEFCF7C8FF05
:103B4000FEF7A8FFFDF710FBFDF7A2FF0022012101
:103B50004903D348FDF715FE002201218903D0480F
:103B6000FDF70FFE00220121C903CD48FDF709FE34
:103B70000020CC49086000BFCA4800683228FBD347
:103B80000020C849086001225103C548FDF7F9FD2E
:103B900001229103C248FDF7F4FD0122D103C04880
:103BA000FDF7EFFDFEF7B8FBFEF7D8F90120FEF7B1
:103BB000FFF8FEF76FFB05200002BB490860BB4819
:103BC0008088BB49884208DDB8488088B949884266
:103BD00003DCB6488088B4490860FFF7DFF85CE191
:103BE000B5480068142806D90020B3490860FFF7DB
:103BF0009BF8FDF7E7FEB1480068C82825D30020F0
:103C0000AE490860FFF7CAF8AD490968322251434E
:103C10000846AC490968FCF77DFAAB490860AB4837
:103C20000078012803D0A948007802280DD1A648C1
:103C30000068782808D2681CC5B20A2D05DB00256B
:103C40000720A349087000E00025A148007800285B
:103C50000AD09E480078052806D09C48007806289F
:103C600002D005209949087010218D48FDF780FD8C
:103C7000012802D10020019073E00198002870D142
:103C8000012001909348006802280AD891480068F2
:103C9000401C9049086008460068032801D10020B4
:103CA00008608C480068002813D100220121090314
:103CB0000920C006FDF765FD874888A1026802A8B3
:103CC000FFF73AFA804889A102680FA8FFF734FA93
:103CD0003BE08048006801281ED100220103092032
:103CE000C006FDF74EFD0A2184480068FCF712FA71
:103CF0000E460A2181480068FCF70CFA0746334655
:103D00003A467FA102A8FFF717FA814881A102680D
:103D10000FA8FFF711FA18E06E480068022814D1C6
:103D20000024224680A102A8FFF706FA82498348B0
:103D30000068FCF7C1FA0090FCF7FCFC064632462E
:103D40000B467FA10FA8FFF7F7F902AA002108464A
:103D5000FEF746FA0FAA0F210020FEF741FAFEF700
:103D600099FA7C480068FF21F531884274D300201D
:103D70007849086057480068002813D100220121C3
:103D800009030920C006FDF7FCFC534853A1026853
:103D900002A8FFF7D1F94C486FA102680FA8FFF7FE
:103DA000CBF94DE04B48006801281ED100220103E9
:103DB0000920C006FDF7E5FC0A2150480068FCF721
:103DC000A9F90E460A214D480068FCF7A3F90746F9
:103DD00033463A464AA102A8FFF7AEF94C4863A120
:103DE00002680FA8FFF7A8F92AE03A4800680228FD
:103DF00026D1002C07D10122C1020920C006FDF7FF
:103E0000C0FC012408E0012C06D100222103092076
:103E1000C006FDF7B6FC0024224659A102A8FFF710
:103E20008BF9454945480068FCF746FA0090FCF7D5
:103E300081FC064632460B4641A10FA8FFF77CF9EC
:103E400002AA00210846FEF7CBF90FAA0F21002095
:103E5000FEF7C6F9FEF71EFA1C4800780300FFF7CC
:103E600096F907050A0D121B15181B00FDF7F8FA45
:103E7000FEF74CFB10E0FEF769FB0DE0FEF706FBDA
:103E8000FDF7EEFA08E0FEF781FB05E0FEF79AFA8F
:103E900002E0FEF7A5FA00BF00BFA1E60008004857
:103EA000000400487C000020D80000209A00002078
:103EB0005D040000DC050000780000209000002078
:103EC00004000020E4000020C4000020980000202E
:103ED000A200002000000020C800002053657420CC
:103EE0003A2534642052504D202000005265616C08
:103EF0003A2534642052504D20200000DC00002080
:103F000056627573203A25642E25642056202000C1
:103F1000E0000020492843293A2564202020202061
:103F2000202020202020000062757A7A203A256423
:103F300020202020202000000000204194000020AC
:103F400074656D703A25302E316643202020202084
:103F500020000000800000205265616C3A25346426
:103F60002052504D202020200000000049284329E5
:103F70003A2564202020202020202020200000003E
:103F800062757A7A203A25642020202020202000A3
:103F9000F0B50B30C108C900144F0026144A0FE0D9
:103FA00003688B420BD38B4205D95C1A43184568D2
:103FB00030C3083B00E04368136002C004E0021D08
:103FC00010680028ECD13046002803D1386800285A
:103FD00001D00020F0BD064A06481060064A121AB9
:103FE000D208D20044C001203860D7E7E0020020A8
:103FF000DC020020EC060020E808002000000000A1
:104000000000000000000000000000000000001898
:1040100018181818180800081800000000000034CC
:104020002424240000000000000000000000000024
:1040300016247F2424247E2424000000000000088D
:104040003E6848681C1612127C10100000000061C7
:10405000D296740810162949C6000000000000001E
:104060003C646438724ACE467F00000000000018AD
:1040700018181800000000000000000000000004F4
:10408000081810303030301010180C0400000020D8
:104090001008080C0404040C081810200000000884
:1040A0000A341C6A08000000000000000000000044
:1040B00000001818187F18181800000000000000F1
:1040C0000000000000000018180830000000000088
:1040D00000000000003C00000000000000000000A4
:1040E000000000000000001818000000000000029E
:1040F00006040C08081010202040000000000000FA
:104100003C6642475B7342663C00000000000000D2
:1041100018784808080808087E0000000000000021
:104120003C460606040810207E0000000000000047
:104130007C0606043C0202067C0000000000000031
:104140000C1C14246444FF04040000000000000060
:104150007E6060607E0202067C00000000000000BD
:104160001E306048764242623C00000000000000C1
:104170007E0206040C081810300000000000000049
:104180003C6242361C6642423C00000000000000D7
:104190003C664242661A02047800000000000000FB
:1041A00000001818000000181800000000000000AF
:1041B0000000181800000018180830000000000067
:1041C000000004183060100C060000000000000021
:1041D000000000007E007E000000000000000000E3
:1041E0000000301804060C10200000000000003011
:1041F0001C06060618100010100000000000001C2D
:10420000224141DDB5A5A5AF94C0403C00000000AF
:10421000181C342426627E43C10000000000000008
:104220007C4642467C4242427C0000000000000086
:104230001E204040404040603E0000000000000062
:104240007C464243434342467800000000000000A1
:104250007E6060607E6060607E00000000000000A4
:104260007E6060607E6060606000000000000000B2
:104270001E604040CE4242623E000000000000004E
:10428000424242427E4242424200000000000000A0
:104290007E181818181818187E000000000000007A
:1042A0007C040404040404447800000000000000BE
:1042B0004244485070584C44420000000000000046
:1042C00020202020202020203E00000000000000B0
:1042D0006266675F5B5BC1C1C10000000000000057
:1042E000626272525A4A4E464600000000000000C8
:1042F0003C6243C3C3C343623C00000000000000B3
:104300007C464242467840404000000000000000E9
:104310003C6243C3C3C343623C180F00000000006B
:104320007C6662667C6C64666200000000000000CF
:104330003E6040601C0602027C000000000000009D
:104340007F1818181818181818000000000000002E
:1043500042424242424242623C00000000000000F1
:10436000C14342622624341C1800000000000000F3
:10437000C1C141495B5B7666660000000000000039
:1043800043663418181C2466C300000000000000B7
:10439000C14266341C181818180000000000000004
:1043A0007E02040C181020607E0000000000001C3B
:1043B00010101010101010101010101C00000040F1
:1043C0002020101008080C04060200000000003C29
:1043D0000C0C0C0C0C0C0C0C0C0C0C3C000000001D
:1043E000181C246200000000000000000000000013
:1043F0000000000000000000000000FF000000209E
:10440000100000000000000000000000000000009C
:1044100000003C06023E42467A00000000000040D8
:1044200040405C62424242427C00000000000000CA
:1044300000001E20604060203E00000000000002DE
:1044400002023E62424242663A0000000000000062
:1044500000003C62427E40603E0000000000000F11
:104460001810107E10101010100000000000000046
:1044700000003F66426658403E43423C0000004018
:1044800040405C624242424242000000000000188C
:1044900018007808080808087E00000000000004E2
:1044A0000C007C040404040404040C780000006084
:1044B0006060626C787068646200000000000078E0
:1044C00008080808080808087E000000000000002E
:1044D0000000764B4B4B4B4B4B00000000000000A4
:1044E00000005C62424242424200000000000000C4
:1044F00000003C62424342623C00000000000000B9
:1045000000005C62424242427C40404000000000A9
:1045100000003E62424242663A020202000000008F
:1045200000006E72636060606000000000000000C8
:1045300000003E20203C06027C000000000000003D
:104540001010FE10101010101E00000000000000DF
:1045500000004242424242663A0000000000000071
:1045600000004342662434181800000000000000D8
:104570000000C1C15B5A5E666600000000000000DA
:10458000000062261C181C266200000000000000CB
:10459000000043426624341C181830E0000000007C
:1045A00000007E060C1810207E0000000000000EA7
:1045B00018101010307010101010180E000008089D
:1045C000080808080808080808080808000000305B
:1045D000180808080C0E0808080818300000000029
:1045E00000000000714B0600000000000000000009
:1045F00000000000000000000000000000000000BB
:1046000000000000000000000000000000000000AA
:10461000000000000000000000000000000000009A
:104620000000000000000380018001800180018003
:10463000018001800180018001800000000003C032
:1046400003C00000000000000000000000000000A7
:104650000000000000000E700E700E700C300000A4
:10466000000000000000000000000000000000004A
:10467000000000000000000000000000000000003A
:1046800000000000000000000618063806307FFE1B
:104690000C300C300C300C307FFE0C601C6018604D
:1046A0001860000000000000000000000000000092
:1046B0000000000000C000C00FF83CC831C03180CD
:1046C0003D801F8003F001F8031C030C031C3FF81E
:1046D0003FE00700060000000000000000000000AE
:1046E000000000001C007E0E630C631863307E60C7
:1046F00000C001800300077C0EE61CC618C630C649
:10470000607C0000000000000000000000000000CD
:104710000000000000000FE01CF0387038701C60D2
:104720001FC00F003F8C71CC60EC607C70383CFC8B
:104730001FCE00000000000000000000000000008C
:1047400000000000000003C0018001800180000023
:104750000000000000000000000000000000000059
:104760000000000000000000000000000000000049
:1047700000000000003000E001C0018003000700DD
:10478000060006000E000E000E000E0006000700D8
:104790000300038001C000E00030000000000000C2
:1047A000000000000C0006000380018001C000E052
:1047B000006000600070007000700060006000E049
:1047C00000C00180038006000C0000000000000013
:1047D000000000000000018011881DB803C007E040
:1047E0003DBC0188018000000000000000000000C6
:1047F00000000000000000000000000000000000B9
:1048000000000000000000000000000001800180A6
:104810000180018001807FFE018001800180018094
:104820000000000000000000000000000000000088
:104830000000000000000000000000000000000078
:1048400000000000000000000000000003C003C0E2
:1048500001C001C003801F00000000000000000034
:104860000000000000000000000000000000000048
:104870000000000000000FF0000000000000000039
:104880000000000000000000000000000000000028
:104890000000000000000000000000000000000018
:1048A00000000000000000000000000003C003C082
:1048B00003C0000000000000000000000000000035
:1048C000000000000000001800380030006000E028
:1048D00000C001C001800300030006000E000C00B0
:1048E0001C00180030000000000000000000000064
:1048F00000000000000001800FF01C38381C301C44
:10490000707E70EE738E7E0E7C0C300C381C1E7820
:104910000FE00000000000000000000000000000A8
:10492000000000000000000007C01FC039C001C027
:1049300001C001C001C001C001C001C001C03FFCF5
:104940003FFC00000000000000000000000000002C
:1049500000000000000003801FF018380038001825
:1049600000380038007001E0038007001C003FFCA5
:104970003FFC0000000000000000000000000000FC
:1049800000000000000007801FF0003800380038E9
:10499000003007E007F00038001C001C001820F869
:1049A0003FE00000000000000000000000000000E8
:1049B000000000000000000000F001B003300730EC
:1049C0000E301C30383070307FFE7FFE00300030FB
:1049D00000300000000000000000000000000000A7
:1049E00000000000000000001FF818001800180068
:1049F00018001FE000F8001C001C001C003800F02C
:104A00001FC00000000000000000000000000000C7
:104A1000000000000000000003F80F001C00180058
:104A2000300037F83C3C300C300C380C381C1E3849
:104A30000FF0000000000000000000000000000077
:104A400000000000000000003FFC001C00180038BF
:104A50000070006000E001C00180038007000600D4
:104A60000E00000000000000000000000000000038
:104A700000000000000003C01FF8381C381C381C60
:104A80001C380FF007F01C78381C300C381C3C38F0
:104A90000FF0000000000000000000000000000017
:104AA00000000000000003801FF03838301C701C2C
:104AB000700C380C1FFC0FCC001C001800701FE09D
:104AC0001F80000000000000000000000000000047
:104AD000000000000000000000000000000003C013
:104AE00003C00180000000000000000003C003C0FC
:104AF00003C00000000000000000000000000000F3
:104B0000000000000000000000000000000003C0E2
:104B100003C00180000000000000000003C003C0CB
:104B200001C001C003800F00000000000000000071
:104B3000000000000000000000000000003800F04D
:104B400001C007001E0038000E00078001C0007081
:104B50000030000000000000000000000000000025
:104B60000000000000000000000000000000000045
:104B700000003FFC000000003FFC3FFC0000000084
:104B80000000000000000000000000000000000025
:104B90000000000000000000000000001C000F00EA
:104BA000038001E00078001C007001E003800E002B
:104BB0000C000000000000000000000000000000E9
:104BC0000000000000000FC000F00038003800387E
:104BD000003803F00380030003000000000007809A
:104BE000078000000000000000000000000000003E
:104BF0000000000000E007F80C0C180630067003F7
:104C000063F36633C673CC63CC62CC66CCE6C7FC78
:104C1000E0006000700038101FF00000000000008D
:104C2000000000000000000003C007E006E00E7076
:104C30000E700C301C3818183FFC3FFC700E600ED4
:104C4000E00700000000000000000000000000007D
:104C500000000000000000003FF03838381C381C0D
:104C600038383FF03FF8381C380C380C381C3FF807
:104C70003FE0000000000000000000000000000015
:104C800000000000000000E007FC1E0438003800AF
:104C90003000700070007000300038003C001F9C35
:104CA00007FC000000000000000000000000000001
:104CB00000000000000000003FF03078301C300C95
:104CC000300E300E300E300E300E301C30383FF0CB
:104CD0003FC00000000000000000000000000000D5
:104CE00000000000000000001FF818001800180065
:104CF00018001FF81FF818001800180018001FF8F7
:104D00001FF800000000000000000000000000008C
:104D100000000000000000001FF818001800180034
:104D200018001FF81FF818001800180018001800C5
:104D3000180000000000000000000000000000005B
:104D400000000000000000F007FC1E0438003000E6
:104D50007000700070FC700C700C300C380C1F1C54
:104D600007FC000000000000000000000000000040
:104D70000000000000000000300C300C300C300C43
:104D8000300C3FFC3FFC300C300C300C300C300C45
:104D9000300C0000000000000000000000000000D7
:104DA00000000000000000003FFC01800180018045
:104DB00001800180018001800180018001803FFC31
:104DC0003FFC0000000000000000000000000000A8
:104DD00000000000000000001FF000300030003034
:104DE00000300030003000300030003000701DE036
:104DF0001FC00000000000000000000000000000D4
:104E00000000000000000000381C387038E039C095
:104E10003B803F003F003B8039C038E03870383875
:104E2000381C00000000000000000000000000002E
:104E300000000000000000001C001C001C001C0002
:104E40001C001C001C001C001C001C001C001FFC83
:104E50001FFC000000000000000000000000000037
:104E60000000000000000000381C7C3C6C3E6E6EB0
:104E7000666E66CE63C663866186600660066006FF
:104E800060060000000000000000000000000000BC
:104E900000000000000000003C0C3C0C3E0C360CF6
:104EA000330C338C318C31CC30EC306C307C303C7A
:104EB000301C0000000000000000000000000000A6
:104EC00000000000000001C00FF81C3C381C700EF0
:104ED000700E60066006700E700E700C381C1E7826
:104EE0000FE00000000000000000000000000000D3
:104EF00000000000000000003FF0383C381C380C77
:104F0000380C381C38783FE038003800380038005A
:104F10003800000000000000000000000000000059
:104F200000000000000001C00FF81C3C381C700E8F
:104F3000700E60066006700E700E700C381C1E78C5
:104F40000FE0018001C000FF003C000000000000F5
:104F500000000000000000003FF038383818381812
:104F6000383838F03FC038E0387038383838381CB6
:104F7000380E0000000000000000000000000000EB
:104F800000000000000001E00FF838003800380091
:104F90003C001F8003F00078001C001C001C3878C7
:104FA0003FE00000000000000000000000000000E2
:104FB00000000000000000007FFE018001800180F1
:104FC00001800180018001800180018001800180D9
:104FD0000180000000000000000000000000000050
:104FE0000000000000000000300C300C300C300CD1
:104FF000300C300C300C300C300C300C381C1C38A1
:105000000FF00000000000000000000000000000A1
:105010000000000000000000E006700E700E381C5A
:10502000381C1C181C380C300E70066007E003C0DA
:1050300003C00000000000000000000000000000AD
:1050400000000000000000006006600660066006C8
:105050006186638673C673CE766C366C3C3C3C3C92
:10506000381C0000000000000000000000000000EC
:105070000000000000000000301C38181C380E70C2
:1050800007E003C003C007E00E701C381838381C56
:10509000700E000000000000000000000000000092
:1050A0000000000000000000700E700C381C1C385E
:1050B0000E70066007E003C001800180018001805E
:1050C000018000000000000000000000000000005F
:1050D00000000000000000003FFC001C00380070D1
:1050E00000E001C0038007000E000C0018003FFC28
:1050F0003FFC000000000000000000000000000075
:105100000000000007F007F0060006000600060099
:10511000060006000600060006000600060006005F
:10512000060006000600060007F000000000000070
:1051300000000000000018001C000C000600070022
:1051400003000380018001C000C0006000700030D7
:1051500000380018000C00000000000000000000F3
:10516000000000000FE00FE00060006000600060E1
:10517000006000600060006000600060006000602F
:1051800000600060006000600FE0000000000000B0
:10519000000000000000000003C006C006600C30E4
:1051A0001818301C00000000000000000000000083
:1051B00000000000000000000000000000000000EF
:1051C00000000000000000000000000000000000DF
:1051D00000000000000000000000000000000000CF
:1051E0000000000000000000FFFF000000000000C1
:1051F0000000000000001E0003800000000000000E
:10520000000000000000000000000000000000009E
:10521000000000000000000000000000000000008E
:1052200000000000000000000000000000001FF06F
:105230001038001C001C0FFC1C1C381C381C3CFCCB
:105240001FDC000000000000000000000000000063
:1052500000000000000038003800380038003BF83B
:105260003E1C3C1C380C380C380C380C381C3C7874
:105270001FE000000000000000000000000000002F
:10528000000000000000000000000000000007F81F
:105290000E001C0038003800380038001C000F18C1
:1052A00007F80000000000000000000000000000FF
:1052B000000000000000001C001C001C001C0FFC73
:1052C0001C1C381C301C301C301C301C383C1CFC96
:1052D0000F9C000000000000000000000000000023
:1052E00000000000000000000000000000000FF0BF
:1052F0001C38381C300C3FFC3000300038001E0CCD
:1053000007FC00000000000000000000000000009A
:1053100000000000003C01FE0380030003000300C6
:105320007FFC7FFC03000300030003000300030075
:10533000030000000000000000000000000000006A
:1053400000000000000000000000000000000FFE50
:105350001C383818381818381FF03B8030003FF0E0
:105360001FFC300E700E381C1FF8000000000000FB
:1053700000000000000038003800380038003BF81A
:105380003E383C1C381C381C381C381C381C381C57
:10539000381C0000000000000000000000000000B9
:1053A00000000000018003C003C0000000001FC017
:1053B00001C001C001C001C001C001C001C001C0E5
:1053C0003FFC0000000000000000000000000000A2
:1053D00000000000002000700070000000003FF09E
:1053E000007000700070007000700070007000703D
:1053F00000700070007020E03FC00000000000005E
:105400000000000000001800180018001800183CE8
:10541000187018E01B801F001B8019E018701838E6
:10542000181C000000000000000000000000000048
:105430000000000000001FC001C001C001C001C089
:1054400001C001C001C001C001C001C001C001C054
:105450003FFC000000000000000000000000000011
:1054600000000000000000000000000000006F3C91
:1054700079EE71CE718E718E718E718E718E718E8C
:10548000718E00000000000000000000000000001D
:1054900000000000000000000000000000003BF8D9
:1054A0003E383C1C381C381C381C381C381C381C36
:1054B000381C000000000000000000000000000098
:1054C00000000000000000000000000000000FF0DD
:1054D0001C3C381C700E700E700E700C381C1E7840
:1054E0000FE00000000000000000000000000000CD
:1054F00000000000000000000000000000003BF879
:105500003E1C3C1C380C380C380C380C381C3C78D1
:105510003FE038003800380038000000000000008C
:1055200000000000000000000000000000000FFC70
:105530001C1C381C301C301C301C301C383C1CFC23
:105540000F9C001C001C001C001C00000000000040
:10555000000000000000000000000000000019F83A
:105560001F1C1C0C180E180018001800180018003A
:105570001800000000000000000000000000000013
:1055800000000000000000000000000000000FF814
:105590001C0018001E000FC001F800180018183871
:1055A0001FF00000000000000000000000000000EC
:1055B00000000000000000000600060006007FFC5E
:1055C0000600060006000600060006000700078425
:1055D00001FC0000000000000000000000000000CE
:1055E0000000000000000000000000000000381C67
:1055F000381C381C381C381C381C381C383C1CFC27
:105600000FDC0000000000000000000000000000AF
:105610000000000000000000000000000000700C0E
:10562000381C38181C380C300E70066007E003C0B8
:1056300003C00000000000000000000000000000A7
:1056400000000000000000000000000000006006F4
:1056500060066186738E73CC33CC366C366C3C3C02
:105660003C380000000000000000000000000000C6
:105670000000000000000000000000000000381CD6
:105680001C380E7007E003C003C007E00E701C3822
:10569000381E0000000000000000000000000000B4
:1056A0000000000000000000000000000000700C7E
:1056B000381C38181C380C300E70066007E003C028
:1056C00003C0038007000E007C0000000000000003
:1056D00000000000000000000000000000001FF8B3
:1056E0000038007000E001C0038007000C001FFCC0
:1056F0003FFC00000000000000000000000000006F
:1057000000000000007801F803800380038003801C
:10571000038003003F003E000300038003800380FA
:1057200003800380038001C000F800000000000037
:105730000180018001800180018001800180018061
:105740000180018001800180018001800180018051
:1057500001800180018001800180000000000000C4
:10576000000000001E001F80018001C001C001C0B8
:1057700001C000C000FC007C00C001C001C001C02D
:1057800001C001C001C003801F0000000000000034
:105790000000000000000000000000000000000009
:1057A00000001C003F0671CE60FC000000000000FD
:1057B00000000000000000000000000000000000E9
:1057C00000000000000000000000000000000000D9
:1057D00000000000000000000000000000000000C9
:1057E00000000000000000000000000000000000B9
:1057F00000000000000000000000000000000000A9
:105800000000000000000000000000000000000098
:105810000000000000000000000000000000000088
:105820000000000000000000000000000000003C3C
:1058300000003C00003C00003C00003C00003C003C
:10584000003C00003C00003C00003C00003C00002C
:105850003C00003C00003C00000000000000003C58
:1058600000007E00003C000000000000000000007E
:105870000000000000000000000000000000000028
:10588000000000000000000000000000000003C352
:10589000E003C3E003C3C003C3C003C3C003C3C06A
:1058A00003C1C00000000000000000000000000074
:1058B00000000000000000000000000000000000E8
:1058C00000000000000000000000000000000000D8
:1058D00000000000000000000000000000000000C8
:1058E00000000000000000000000000000000000B8
:1058F0000000000001E0E001C0E001C0E001C0E004
:105900003FFFFE3FFFFE03C1C00381C00381C00310
:1059100081C07FFFFC7FFFFC0783800703800703B4
:1059200080070380070780000000000000000000DF
:105930000000000000000000000000000000000067
:105940000000000000000000000000000700000F41
:1059500000000E0001FFF007FFF01F0E001E1E00EA
:105960001E1C001E1C000FDC0007FC0000FF800056
:105970003FF00038F800387800783C0070783071DB
:10598000F83FFFE01FFF0000E00000E00000E00043
:105990000000000000000000000000000000000007
:1059A00000000000000000000000000000000F8068
:1059B0000F3FE01E78703C7070707070E07071C0C6
:1059C0003FE3801FC700000E00001C0000780000AD
:1059D000F0F001E7FC03CF0E078E0E0F0E0E1E0E29
:1059E0000E3C07BC7003F80000000000000000003F
:1059F00000000000000000000000000000000000A7
:105A00000000000000000000000000000000000096
:105A10000001FF0007FF800F03C00F03C00F03C08A
:105A20000F0780079F0003FE0003F0000FF83C3EC5
:105A30007C3C3C1F3C780FF87807F87C01F03E0373
:105A4000F81FFFFC07FE1F00000000000000000020
:105A50000000000000000000000000000000000046
:105A60000000000000000000000000000000003EF8
:105A700000003C00003C00003C00003C00003C00FA
:105A8000003C0000000000000000000000000000DA
:105A90000000000000000000000000000000000006
:105AA00000000000000000000000000000000000F6
:105AB00000000000000000000000000000000000E6
:105AC0000000000000000000000000000080000155
:105AD000C0000780000F00001E00003C000078009E
