:020000040000FA
:1000000018020020D9000000E90A00006109000080
:1000100000000000000000000000000000000000E0
:100020000000000000000000000000002F0F000092
:100030000000000000000000030B0000310F000072
:1000400005130000150A0000290F00002F0700000B
:10005000A90C000095070000970700009907000011
:100060009B070000FD000000F9060000FB060000F1
:100070007D060000FD0000000113000003130000D6
:100080009108000095080000C9080000CB08000096
:10009000FD000000810600008306000063090000E7
:1000A000650900002B0F00002D0F0000C50F000098
:1000B000C70F0000C90F00007F0600002D070000D9
:1000C0000448854600F0C8FA004800473D14000087
:1000D000C046C0461802002009480A4A002100A173
:1000E000814200D902440848026008488047084815
:1000F0000047FEE7FEE7FEE7FEE7FEE7FEE700005B
:10010000000000200000000008ED00E0890F000062
:10011000C100000030B50B4601460020202201241A
:1001200009E00D46D5409D4205D31D469540491B2B
:100130002546954040191546521E002DF1DC30BD74
:1001400003460B439B0703D009E008C9121F08C0F0
:10015000042AFAD203E00B780370401C491C521E9B
:10016000F9D27047F8B502464A40D40F42004B001E
:1001700052085B089A4202D20246084611464A00DB
:1001800023D0C30D4A00DDB2120EAD1A202D35DA90
:1001900049020126490AF6058A19002C00D052426C
:1001A00020214F1B1146B9402A411018C20D9A4216
:1001B00021D0002C17D0012D08DCDA05801AD20FCF
:1001C0008019D207DBB200F0AFF9F8BDDA05801A6A
:1001D000012340001B06C01880185A428018CA0F1D
:1001E0001043490007E04908C2071143DA05801AA5
:1001F00080194008801800F08FF9F8BD61000122D5
:10020000511A001BF7E70122D2075140AAE7012249
:10021000D2075040A6E770B502464A40D50F4000CD
:100220004A00ED0740085208002814D0002A12D0D6
:10023000C40DD30D41020120C0055202490A520AE1
:10024000E41A091812187D34914201D3641C00E0AD
:100250004900002C01DA002070BD0023914201D337
:10026000891A0343400849000028F7D100290AD021
:10027000914202D10121C90705E0914201D2012139
:1002800001E00121C943E005C018401900F044F91C
:1002900070BD420005D04200120E52428A4201DB7C
:1002A00000207047C905081870470000F0B50746E0
:1002B0000846584087B0C00F049048000E465900C9
:1002C00040084908BC1A884105D2384631461E46C6
:1002D00017460B4602465800400810434DD0300DDB
:1002E000039040055900400D490D0590401A0290B9
:1002F000402873DA18030121000B09050843019017
:1003000004980092002806D01146019A4942002024
:10031000904100910190029840210A1A0199009899
:1003200000F0C6F805460C466B4607CB00F0E1F836
:10033000C0197141039A0E0D0023D71756401A4673
:100340007A40164344D0049A002A2DD0029A012AFA
:10035000039A15DC1205C01A914101263605001CCE
:100360007141D20F059ED2070093019202962A4650
:10037000234600F01FF907B0F0BD38463146FAE7D2
:100380001605234A0F46B218C01AB74101210905C4
:10039000001C4F4100187F41114618187941E20FA7
:1003A00010436D19644113E0E2076D0815436408BA
:1003B000C2071443039A01261205C01A914136055B
:1003C000001C7141CE07400830434908C018514114
:1003D0002A46234600F0E1F8CDE7FFE70498012222
:1003E0004000C117121A00238B4104983146C417EC
:1003F000381AA141EEE730B40124E407634030BC71
:1004000054E730B40124E407614030BC4EE70000FB
:100410000000E0FF10B500229623114600F084F89A
:1004200010BD410040020122400AD205090E801889
:100430007F2901DA00207047962903DC9622511AA1
:10044000C840704796398840704700004A00090349
:100450000123090B1B051943094B10B5520D9A4294
:1004600001DA002010BD064B34339A4203DC9A1A9D
:1004700000F02EF810BD03495118884010BD00004F
:10048000FF030000CDFBFFFFC20FD2074000400872
:100490000BD0C10D0723DB01C91840020905400A32
:1004A0001143C208400711437047002001467047BE
:1004B00010B5202A04DB0146203A9140002010BDEF
:1004C000914020239C1A0346E3401943904010BDFD
:1004D00010B5202A04DB0846203AD040002110BD88
:1004E0000B46D340D0402024A21A9140084319461D
:1004F00010BD10B5202A06DBCB170846203A104164
:10050000C1170B4306E00B461341D0402024A21A2A
:1005100091400843194610BD002904DA401C4900E7
:1005200001D140084000704770B40024050C05D18B
:100530001024000402D1002921D01124050E01D17C
:1005400000020834050F01D10001241D850F01D1DF
:100550008000A41C002801DB4000641C002908D096
:1005600020252E1B0D46F540A14000D00121294336
:10057000084301061B1B000ADB1D02D5002070BCCE
:100580007047DB05181880180029F8DA401C49006C
:10059000F5D170BC40084000704710B5002B08DA58
:1005A0000024401C614192185B411A4301D140086C
:1005B000400010BDF0B51FB482B005460C0003D05A
:1005C000084600F0B1FE02E000F0AEFE2030024628
:1005D000009021462846FFF76BFF049B059A0446CE
:1005E0000F4618431143084314D0184610431BD03C
:1005F000009840210A1A18460599FFF769FF054639
:100600000E46009A05990498FFF752FF084305D05B
:10061000012004E02046394607B0F0BD0020C11794
:1006200005430E432C43374300990E986305401A47
:100630007905E40A00220C43FD0A0A3002D50020A5
:100640000146E9E70105101969410C9C0D9D00194F
:100650006941FFF7A2FFDFE7064C0125064E05E0E2
:10066000E36807CC2B430C3C98471034B442F7D3D3
:10067000FFF72AFD30150000501500007047704745
:10068000704770471FB508486C460FC80FC401215A
:10069000102000F037FA09206946C00600F07EF805
:1006A00000F004F81FBD00009C14000010B50121EB
:1006B000092000220903C00600F0E4F810BD000084
:1006C00000B587B000F03CFC00F018F8182209498A
:1006D0006846FFF735FD00F0E1FD684600F0D6FD05
:1006E00000F09AF900F06CF9FFF7CCFF00F0FDF98B
:1006F00007B000BD741400007047704710B503497F
:1007000001200870024800F02FF910BD04000020FD
:100710000090D00370B50D46044600F017F961193A
:10072000884201D3012070BD002070BD7047704722
:1007300010B5040007D0012C05D0022C03D03621BF
:1007400008A000F05BFE1048016B02221143016318
:10075000002C01D0182004430C4804430C4844608A
:1007600010BD00002E2E5C2E2E5C2E2E5C66776C4B
:1007700069625C7372635C63773332663033305F17
:10078000666C6173682E63000000014000005A5AD5
:100790000020024070477047704770470CC9083905
:1007A000002B0DD0C3699343C3610A79D206026856
:1007B0000B684DD51A4302604A68112A04D00BE039
:1007C000C1691143C161704702690B681A43026134
:1007D000C2680B689A43C2604A68122A07D1C2688D
:1007E0000B681A43C26002690B689A430261426A4D
:1007F0000B689A434262826A0B689A438262C26AB9
:100800000B689A43C262026B0B689A4302638B685F
:1008100081229A4303D1426A0B681A4342628B6871
:1008200082229A4303D1826A0B681A4382628B68E0
:1008300084229A4303D1C26A0B681A43C2628B684E
:1008400088229A43BFD1026B09680A43026370474A
:100850009A4302604A68202A42680B6809D01A430A
:100860004260064BCA689A428268096803D10A430B
:1008700002E09A43F4E78A4382607047FFFF00007A
:1008800001667047012A01D081657047C1657047D4
:100890007047000010B5094C0821204600F016F8FA
:1008A0001021204600F012F82021204600F00EF81A
:1008B0000348016903490969006910BD001000403F
:1008C00040000048400400487047704770B5044637
:1008D00010480D4684420DD00F4884420AD00F487C
:1008E000844207D00E48844204D0FF21A7310DA0D6
:1008F00000F084FD1448054201D1002D04D1FF21F0
:10090000A83108A000F07AFD0321E843090261182C
:10091000C86170BD0004004000100040004001406C
:10092000004401402E2E5C2E2E5C2E2E5C66776CD1
:1009300069625C7372635C63773332663033305F55
:100940006774696D2E63000080FDFFFF01488068B9
:10095000704700000400002010B5FFF7F7FF10BD3E
:10096000FEE7704770470000F8B50446114D7D2042
:100970002978C000FFF7CEFB01462046FFF7CAFBEF
:100980000D490026771E401E884203D90120002809
:100990000ED108E0094C60610321384600F0E8FC04
:1009A000A661072020610021384600F0E1FC6E605E
:1009B000F8BD000004000020FFFFFF0000E000E0A1
:1009C0001FB5124801AB07C807C3102000900121D2
:1009D000202000F097F80E4C69462046FFF7DEFE17
:1009E000202100910121202000F08CF8694620464A
:1009F000FFF7D4FE0121890200910121202000F09F
:100A000081F869462046FFF7C9FE1FBD901400001B
:100A100000040048704700001FB5174801AB07C825
:100A200007C30120400300900121402000F06AF834
:100A300069461248FFF7B2FE012000F023F80124B6
:100A4000E40201211020009400F05CF809206946BE
:100A5000C006FFF7A3FE022000F014F801212020B9
:100A6000009400F04FF869460548FFF797FE032011
:100A700000F008F81FBD0000B01400000008004896
:100A80000004004810B501280AD00121C90202283B
:100A90000AD0032803D101220548FFF7F3FE10BD59
:100AA000012251030348F8E701220920C006F4E7B8
:100AB000000400480008004810B5012809D00121B1
:100AC000C902022809D0032802D10548FFF7D8FE41
:100AD00010BD012149030348F8E70920C006F5E7E6
:100AE0000004004800080048704710B5012110209C
:100AF00000F008F80920C006C16910221143C16145
:100B000010BD704770B5044609480D46044201D136
:100B1000002C03D1074908A000F070FC0F48002DFD
:100B2000016B01D0214300E0A143016370BD0000CF
:100B300088FDFFFFA90200002E2E5C2E2E5C2E2EBB
:100B40005C66776C69625C7372635C637733326690
:100B50003033305F7263632E630000000000014099
:100B600070B5044609480D46044201D1002C03D15A
:100B7000074908A000F042FC0F48002D416B01D04E
:100B8000214300E0A143416370BD000001E6FFFF87
:100B9000D90200002E2E5C2E2E5C2E2E5C66776C09
:100BA00069625C7372635C63773332663033305FE3
:100BB0007263632E630000000000014010B5040062
:100BC00011D0202C0FD0402C0DD0602C0BD0802CBD
:100BD00009D0A02C07D0C02C05D0E02C03D03321A5
:100BE00005A000F00BFC0D4801680D4A11400D4AAC
:100BF00021431143016010BD2E2E5C2E2E5C2E2E43
:100C00005C66776C69625C7372635C6377333266CF
:100C10003033305F7263632E6300000000000140D8
:100C20001FFF000000005A5A10B50446062816D0CF
:100C3000082C14D0072C12D0092C10D0052C0ED063
:100C40000B2C0CD00C2C0AD00D2C08D00E2C06D05E
:100C50000F2C04D0FF211F3108A000F0CFFBE102D0
:100C600093204002008801430D48816141680D4A8C
:100C70001143416081690904FCD510BD2E2E5C2E04
:100C80002E5C2E2E5C66776C69625C7372635C63AB
:100C9000773332663033305F7263632E6300000057
:100CA0000000014001005A5A7047000010B50400CE
:100CB00009D0082C07D0102C05D0182C03D03D21CA
:100CC00005A000F09BFB0D4908680D4A10400D4A35
:100CD00020431043086010BD2E2E5C2E2E5C2E2E5D
:100CE0005C66776C69625C7372635C6377333266EF
:100CF0003033305F7263632E6300000000000140F8
:100D0000E7FF000000005A5AF0B507468BB00025F7
:100D1000354814460E4609950FC803936B4607C322
:100D200031491422103104A8FFF70AFA002F08D025
:100D3000012F06D0032F04D0FF21FD312BA000F09E
:100D40005DFB334833493018884204D9FF21FE3116
:100D500026A000F053FB022C18D0032C16D0042C34
:100D600014D0052C12D0062C10D0072C0ED0082C35
:100D70000CD0092C0AD00A2C08D00B2C06D00C2C35
:100D800004D0FF21FF3119A000F038FB6846A9000C
:100D90004158B14201D9099503E06D1CEDB2042D13
:100DA000F5D36643002004A982008A58B24201D9D3
:100DB000064603E0401CC0B20528F5D371022001AD
:100DC0000143099880000143072039430003014390
:100DD000114881624168114A11434160816A0904E6
:100DE000FCD50BB0F0BD00000C1500002E2E5C2EC3
:100DF0002E5C2E2E5C66776C69625C7372635C633A
:100E0000773332663033305F7263632E63000000E5
:100E100000F7C2FF002D31010000014004005A5AC2
:100E200070B504000CD0012C0AD0022C08D0032C81
:100E300006D0042C04D0092189010CA000F0DEFAB0
:100E4000134D28681349084313490840204328607C
:100E500000F026F81149086028684007400FA042BA
:100E600001D0012070BD002070BD00002E2E5C2E30
:100E70002E5C2E2E5C66776C69625C7372635C63B9
:100E8000773332663033305F7263632E6300000065
:100E90000000014000005A5AF8FF5A5A1000002082
:100EA000F8B5194C20684707A0697F0F4004010F6F
:100EB000A06A8207A06A920FC005C50E134E14489F
:100EC0003B0000F048FA050409100B0D04008900EE
:100ED0007158FFF71FF90FE00E480DE00E480BE0C8
:100EE0000120C00308E0002A0BD0012A09D08900A4
:100EF0007158FFF70FF9684321680906490FC84088
:100F0000F8BD04486843F7E700000140CC14000036
:100F1000006CDC020024F40020800000014908601D
:100F200070470000100000207047704770477047FE
:100F300002488168027889188160704704000020A7
:100F400010B50520FFF770FE0020FFF737FE0020E8
:100F5000FFF7ACFE082209490320FFF7D5FE084839
:100F6000016B0222114301631046FFF7E1FB0220EF
:100F7000FFF756FF0348FFF7D1FF10BD00127A00BC
:100F8000000001400090D0030C490B4893235B0202
:100F90000860188841050A48490D8269D20AD202C0
:100FA0000A4382615988026A8905890D920A920270
:100FB0000A4302627047000000127A00100000200D
:100FC00000000140704770477047000070B504464C
:100FD0000E480D4684420AD00D48844207D00D4881
:100FE000844204D0FF216A310BA000F007FA680A9E
:100FF00001D1002D04D1FF216B3107A000F0FEF9D3
:10100000E069284000D0012070BD00000038014098
:1010100000440040004800402E2E5C2E2E5C2E2EF8
:101020005C66776C69625C7372635C6377333266AB
:101030003033305F756172742E630000F8B5054679
:101040006D480C46854209D06C48854206D06C48F4
:10105000854203D077216BA000F0D0F92068724957
:10106000401E884203D9782166A000F0C7F9012705
:10107000A088BF027E1000280BD0B04209D0B84231
:1010800007D003214902884203D079215DA000F0F6
:10109000B5F9E088002809D0B04207D00321090241
:1010A000884203D07A2157A000F0A8F9A0685F49D0
:1010B000401E884203D97B2152A000F09FF9A089ED
:1010C000002806D0C11FF93903D07C214DA000F0C3
:1010D00095F9E089002807D0202805D0102803D0F2
:1010E0007D2148A000F08AF9208A002809D008282C
:1010F00007D00C2805D0042803D07E2141A000F0A1
:101100007DF9608A810801D1002803D17F213DA0AB
:1011100000F074F9A08A002809D0082807D0042814
:1011200005D00C2803D0802136A000F067F9A088F4
:10113000A189228A0843E18911430843618A08434F
:1011400029683B4A114008432860E088A18A084387
:101150006968C3229200914308436860A088002810
:1011600004D0B04226D12068C00027E020680001EA
:10117000FFF750F90646A068FFF74CF93146FFF734
:101180004AF80646FFF74DF984B22046FFF742F9C8
:101190003146FFF73CF80421FFF77BF8FFF774F9BD
:1011A0000022244BFFF782F8FFF750F980B2EC6081
:1011B0002861F8BDB842206807D18000FFF72AF9FE
:1011C0000646A068FFF726F908E0FFF723F9064670
:1011D000A068FFF71FF90821FFF75BF83146FFF71A
:1011E0001AF8FFF751F90022124BFFF75FF8FFF7EB
:1011F0002DF980B2E860F8BD00380140004400409D
:10120000004800402E2E5C2E2E5C2E2E5C66776CE5
:1012100069625C7372635C63773332663033305F6C
:10122000756172742E630000FF23F400FF8FD003FA
:10123000C0F8FFFF0000E03F70B5044607480D46C8
:10124000844209D00648844206D00648844203D02E
:10125000452105A000F0D2F8A56270BD003801401C
:1012600000440040004800402E2E5C2E2E5C2E2EA6
:101270005C66776C69625C7372635C637733326659
:101280003033305F756172742E63000010B5014613
:101290000148FFF7D3FE10BD003801407FB5164866
:1012A0006C460FC80FC401214D022846FFF758FCB9
:1012B00001212020FFF726FC01212020FFF722FC3E
:1012C0000E4C606900090001C01C60616069F0217A
:1012D00088433030606120200190C0000090694652
:1012E0002046FFF75BFA11200190694600952046E1
:1012F000FFF754FA7FBD0000BC1400000004004852
:1013000070477047704700000FB410B503A9044B35
:10131000044A029800F05DF810BC08BC04B01847FD
:1013200001140000140000202021020C01D0102123
:101330001046020A01D010460839020901D01046B1
:10134000091F820801D01046891E420801D0881E5C
:101350007047081A704730B47446641E2578641CC0
:10136000AB4200D21D46635D5B00E31830BC1847FA
:101370008307FF22DB0E9A408907090E9940002857
:1013800008DB830809489B001818036893430B4344
:10139000036070470007000F0838830804489B006B
:1013A0001818C36993430B43C361704700E400E01E
:1013B00000ED00E002E008C8121F08C1002AFAD1BF
:1013C00070477047002001E001C1121F002AFBD1C5
:1013D0007047F8B51E4617460446002509E0252843
:1013E00003D16078641C002806D03946B047641CDD
:1013F0006D1C20780028F2D12846F8BD7047000007
:1014000070B50D4D04460A2809D10D212846FFF775
:1014100013FF01212846FFF7D9FD0028F9D0E1B2DA
:101420002846FFF709FF01212846FFF7CFFD0028D6
:10143000F9D0204670BD000000380140FFF740F9A8
:101440007D25094C2D0129462068FFF763F9002806
:10145000F9D00120FFF730FB04A0FFF755FFFFF79D
:101460007BFA2060EFE700000000002068656C6CEC
:101470006F0A000000C20100000000000090D003CD
:101480000000000000000300000000000000000059
:101490001100000080000000FFFF000000100000AD
:1014A0002000000080000000FFFF0000000000009E
:1014B0002000000080000000FFFF0000000000008E
:1014C0000000000080000000FFFF00000600000098
:1014D00006000000060000000600000006000000F4
:1014E00006000000010000000300000002000000F0
:1014F0000400000006000000080000000A000000D0
:101500000C0000000E00000010000000808D5B0049
:10151000001BB700002D310101366E0180A81201B9
:1015200000366E0100512502006CDC0201A24A0463
:10153000501500000000002018000000B413000047
:10154000681500001800002000020000C41300000D
:101550000000000001000000040000000000000086
:0815600000127A0000000000F7
:04000005000000C136
:00000001FF
