:020000040000FA
:1000000028020020D90000003D180000B5160000AD
:1000100000000000000000000000000000000000E0
:10002000000000000000000000000000171D00009C
:10003000000000000000000065180000191D00000D
:10004000ED20000069170000111D0000DF0F000007
:10005000911A0000451000004710000049100000F0
:100060004B100000FD000000A90F0000AB0F0000C6
:10007000990A0000FD000000E9200000EB200000CC
:100080004B1100004D110000811100008311000090
:10009000FD0000001F0F0000210F0000B716000038
:1000A000B9160000131D0000151D0000AD1D000055
:1000B000AF1D0000B11D0000990E0000DD0F000013
:1000C0000448854600F048FC00480047AD2A00007F
:1000D000C046C0462802002009480A4A002100A163
:1000E000814200D902440848026008488047084815
:1000F0000047FEE7FEE7FEE7FEE7FEE7FEE700005B
:10010000000000200000000008ED00E0711D00006C
:10011000C100000030B50B4601460020202201241A
:1001200009E00D46D5409D4205D31D469540491B2B
:100130002546954040191546521E002DF1DC30BD74
:1001400003460B439B0703D009E008C9121F08C0F0
:10015000042AFAD203E00B780370401C491C521E9B
:10016000F9D27047F8B502464A40D40F42004B001E
:1001700052085B089A4202D20246084611464A00DB
:1001800023D0C30D4A00DDB2120EAD1A202D35DA90
:1001900049020126490AF6058A19002C00D052426C
:1001A00020214F1B1146B9402A411018C20D9A4216
:1001B00021D0002C17D0012D08DCDA05801AD20FCF
:1001C0008019D207DBB200F0FBFAF8BDDA05801A1D
:1001D000012340001B06C01880185A428018CA0F1D
:1001E0001043490007E04908C2071143DA05801AA5
:1001F00080194008801800F0DBFAF8BD6100012288
:10020000511A001BF7E70122D2075140AAE7012249
:10021000D2075040A6E7024670B54A40D30FDB072D
:1002200040002DD04A002AD0010E140E0002120206
:100230000919400A520A8418E50104465443000A89
:10024000120A2E045043A4194219200CC543AA18BF
:10025000120C0125AD03521C521912047F392404DB
:1002600000D0521C104301D44000491EC2B20C06FB
:10027000C0092018401C4008802A02D003E000205A
:1002800070BD40084000002900DA0020184370BD0E
:1002900070B502464A40D50F40004A00ED074008BD
:1002A0005208002814D0002A12D0C40DD30D4102E8
:1002B0000120C0055202490A520AE41A091812180C
:1002C0007D34914201D3641C00E04900002C01DA26
:1002D000002070BD0023914201D3891A03434008D6
:1002E00049000028F7D100290AD0914202D101210A
:1002F000C90705E0914201D2012101E00121C94372
:10030000E005C018401900F053FA70BD420005D056
:100310004200120E52428A4201DB00207047C9059A
:1003200008187047F0B507460846584087B0C00F18
:10033000049048000E46590040084908BC1A8841FC
:1003400005D2384631461E4617460B46024658002F
:10035000400810434DD0300D039040055900400D2A
:10036000490D0590401A0290402873DA18030121C4
:10037000000B09050843019004980092002806D05C
:100380001146019A49420020904100910190029843
:1003900040210A1A0199009800F0D6F905460C464A
:1003A0006B4607CB00F0F1F9C0197141039A0E0DAD
:1003B0000023D71756401A467A40164344D0049A71
:1003C000002A2DD0029A012A039A15DC1205C01AC0
:1003D000914101263605001C7141D20F059ED207BE
:1003E0000093019202962A46234600F02FFA07B0A6
:1003F000F0BD38463146FAE71605234A0F46B218D3
:10040000C01AB74101210905001C4F4100187F4166
:10041000114618187941E20F10436D19644113E039
:10042000E2076D0815436408C2071443039A0126C6
:100430001205C01A91413605001C7141CE074008D3
:1004400030434908C01851412A46234600F0F1F9CB
:10045000CDE7FFE7049801224000C117121A0023DC
:100460008B4104983146C417381AA141EEE730B4E5
:100470000124E407634030BC54E730B40124E407AE
:10048000614030BC4EE700000000E0FFF0B51FB453
:1004900088B00B990998002448400999C00F490079
:1004A00049080991C0070B990090490049080B9130
:1004B00009990898A64608431CD00B990A98084346
:1004C00018D0099801244000420D4800410D0998B8
:1004D00024050003000B204309900B980003000B38
:1004E00020430B9050181C494018002201901446DC
:1004F000104605E0002001460DB0F0BD032801DAEA
:10050000034600E003239C46C11A0AAE0AE05F00DE
:1005100008ADED5B4F00F75B7D430027AA187C41D7
:10052000491C5B1E6145F2DD410004AB5A522104B7
:10053000120C0A43240C401C0828DFDB01980290AF
:100540000099704601910090059B049A07990698BE
:1005500000F07CF9D0E700000DFCFFFFF0B50C4681
:100560005C4085B0E40FE40703944C000026640867
:1005700059009446490802460296224321D0624619
:100580000A431ED06200570D4A000E032303550D87
:10059000012402462C492405781B1B0B360B4018FE
:1005A00023432643614600901C46501AB44103D3AE
:1005B0000098401C009002E0921800985B410028CF
:1005C00003DA0020014605B0F0BD00200121090535
:1005D0000746864611E064461D46141BB54106D306
:1005E0006546521BB341744607430C43A646CD07EC
:1005F00040084908284392185B4105460D43EAD15B
:100600001046184313D060461946504071400843C5
:1006100006D06046101AB34106D20122002306E03C
:1006200000220123DB0702E00122D243531000988D
:1006300074460105381C6141029C039D0019694103
:1006400000F0F7F8BFE70000FD03000010B500223E
:100650009623114600F0B4F810BD4100400201227B
:10066000400AD205090E80187F2901DA0020704760
:10067000962903DC9622511AC84070479639884063
:10068000704700004A0009030123090B1B051943A9
:10069000094B10B5520D9A4201DA002010BD064BED
:1006A00034339A4203DC9A1A00F05EF810BD034915
:1006B0005118884010BD0000FF030000CDFBFFFF74
:1006C000C20FD207400040080BD0C10D0723DB0149
:1006D000C91840020905400A1143C20840071143E6
:1006E0007047002001467047F0B51FB40646002051
:1006F00082B005464024019100901BE001992246FA
:100700000F46304600F030F8049A059B801A994154
:1007100010D310461946224600F016F8361A8F41BB
:100720000197224601200021009F00F00DF83818A3
:100730004D4100902046641E0028DFDC019B00989C
:100740002946324607B0F0BD10B5202A04DB014629
:10075000203A9140002010BD914020239C1A03466E
:10076000E3401943904010BD10B5202A04DB084631
:10077000203AD040002110BD0B46D340D040202469
:10078000A21A91400843194610BD10B5202A06DB75
:10079000CB170846203A1041C1170B4306E00B4621
:1007A0001341D0402024A21A91400843194610BD9D
:1007B000002904DA401C490001D14008400070477C
:1007C00070B40024050C05D11024000402D10029C6
:1007D00021D01124050E01D100020834050F01D1EA
:1007E0000001241D850F01D18000A41C002801DB1D
:1007F0004000641C002908D020252E1B0D46F54022
:10080000A14000D001212943084301061B1B000A17
:10081000DB1D02D5002070BC7047DB05181880185E
:100820000029F8DA401C4900F5D170BC40084000AE
:10083000704710B5002B08DA0024401C6141921863
:100840005B411A4301D14008400010BDF0B51FB410
:1008500082B005460C0003D0084601F059FC02E0C6
:1008600001F056FC20300246009021462846FFF752
:100870006BFF049B059A04460F4618431143084337
:1008800014D0184610431BD0009840210A1A18466D
:100890000599FFF769FF05460E46009A05990498E9
:1008A000FFF752FF084305D0012004E020463946F7
:1008B00007B0F0BD0020C11705430E432C4337435A
:1008C00000990E986305401A7905E40A00220C434A
:1008D000FD0A0A3002D500200146E9E7010510199A
:1008E00069410C9C0D9D00196941FFF7A2FFDFE7EC
:1008F0004A0009030123090B1B0519430A4B10B5D4
:10090000520D9A4202DA0020014610BD064B3433E4
:100910009A4203DC9A1AFFF727FF10BD034BD21847
:10092000FFF712FF10BD0000FF030000CDFBFFFF2B
:1009300010B5002904DB0124E40740428C41214624
:10094000002B04DB1C460123DB075242A3419942E2
:1009500000D1904210BD0000064C0125064E05E076
:10096000E36807CC2B430C3C98471034B442F7D3D0
:10097000FFF7AAFBEC2C00000C2D00000D2803D083
:100980000E2801D00F280CD108490A684B141A43CD
:100990000A600F2806D00E2803D1086820221043D1
:1009A0000860704708681022F9E700000024014041
:1009B00010B50446802811D0402C0FD0202C0DD02B
:1009C000102C0BD0082C09D0042C07D0022C05D0F9
:1009D000012C03D07C2104A002F048F80B48816B65
:1009E000A143816310BD00002E2E5C2E2E5C2E2EA6
:1009F0005C66776C69625C7372635C6377333266E2
:100A00003033305F6164632E6300000000240140D6
:100A100010B505480168012211430160802000F0F3
:100A20000BF80028FAD010BD002401400148006AEC
:100A300080B270470024014010B50446802811D0D0
:100A4000402C0FD0202C0DD0102C0BD0082C09D00E
:100A5000042C07D0022C05D0012C03D05D2104A06A
:100A600002F004F80B48C06B204000D0012010BDFC
:100A70002E2E5C2E2E5C2E2E5C66776C69625C736B
:100A800072635C63773332663033305F6164632E48
:100A9000630000000024014070470000F8B50446E0
:100AA000006800280FD002280DD004280BD006289B
:100AB00009D0082807D00A2805D00C2803D0C42163
:100AC0004FA001F0D3FFFF250135032760686E00BA
:100AD0003F02002817D0A84215D0B04213D0B84228
:100AE00011D0A90088420ED00521090288420AD0FF
:100AF0007900884207D007210902884203D0C52126
:100B00003FA001F0B3FFA06800280ED00121C90268
:100B100088420AD04900884207D00321C90288428E
:100B200003D0C62136A001F0A1FFE068002809D05B
:100B3000402807D0802805D0C02803D0C72130A086
:100B400001F094FF2069002807D001214903884261
:100B500003D0C8212AA001F089FF6069002805D0D0
:100B6000202803D0C92126A001F080FFA069002819
:100B700005D0802803D0CA2121A001F077FFE069C9
:100B8000002805D0402803D0CB211DA001F06EFF26
:100B9000206A002805D0A84203D0CC2118A001F07B
:100BA00065FFA1682069E268084361681143084352
:100BB00061690843216808431A490A681A4B1A40B8
:100BC00010430860E269A06910434A68C0239A4351
:100BD00010434860206A002804D00A69BA433243AF
:100BE00010430861E068802809D11048016B202279
:100BF000114301630E48C16901221143C161F8BD6F
:100C00002E2E5C2E2E5C2E2E5C66776C69625C73D9
:100C100072635C63773332663033305F6164632EB6
:100C2000630000000024014011C0FFFF00000140EC
:100C30000004004810B501680446002922D00129AB
:100C400020D002291ED003291CD004291AD005293E
:100C500018D0062916D0072914D0082912D009293E
:100C600010D00A290ED00B290CD00C290AD00D293E
:100C700008D00E2906D00F2904D0FF217D3113A002
:100C800001F0F4FE6068002806D0202804D0FF217F
:100C90007E310EA001F0EAFE20460830FFF7FEFE8E
:100CA0002068FFF76BFE0121206B4903884203D1C6
:100CB00020462C3000F052F82168606808430C4947
:100CC0004A682F239A431043486010BD2E2E5C2E95
:100CD0002E5C2E2E5C66776C69625C7372635C635B
:100CE000773332663033305F6164632E6300000017
:100CF0000024014010B5FFF79DFF034801680E2254
:100D00009143016010BD00000024014010B5094C62
:100D100000280AD0012804D0FF21553106A001F097
:100D2000A5FEA0680121084302E0A0684008400039
:100D3000A06010BD002401402E2E5C2E2E5C2E2EB5
:100D40005C66776C69625C7372635C63773332668E
:100D50003033305F6164632E6300000070B50F258F
:100D600001682D02044600293CD0C81FF93839D04B
:100D7000C81FFF38FA3835D003200002814231D035
:100D80000120800281422DD005200002814229D01D
:100D900003204002814225D007200002814221D059
:100DA0000120C00281421DD009200002814219D0D9
:100DB00005204002814215D00B200002814211D053
:100DC0000320800281420DD00D200002814209D013
:100DD00007204002814205D0A94203D0A12124A0CE
:100DE00001F044FE6068002807D0012149038842D1
:100DF00003D0A2211EA001F039FEA068002805D072
:100E0000202803D0A3211AA001F030FEE0680028BA
:100E100005D0102803D0A42115A001F027FE2069D9
:100E2000002805D0082803D0A52111A001F01EFE3E
:100E300003CC0143174842682F231B029A431143F6
:100E4000416062682168436B1143A2683826B3434E
:100E50001A4311434163E168416121698161083CA2
:100E60002168A94203D1016810221143016070BDBD
:100E70002E2E5C2E2E5C2E2E5C66776C69625C7367
:100E800072635C63773332663033305F6164632E44
:100E900063000000002401407047000010B5FFF718
:100EA000D5FB0B21C943FFF731FA0249FFF7B3F92C
:100EB00010BD00003333534000B5104893B0416B70
:100EC000042211434163032000901102039100208A
:100ED0000321C9020491C02105910290019007905D
:100EE000D102089009900A900C9006916846FFF78D
:100EF00001FFFFF78DFD13B000BD000000000140B1
:100F000010B50120FFF702FF0120FFF795FD002833
:100F1000FAD00120FFF74CFDFFF788FD10BD7047A8
:100F2000704700001FB508486C460FC80FC4012168
:100F3000102000F0ADFC09206946C00600F086F8DC
:100F400000F004F81FBD0000342B000010B5012193
:100F5000092000220903C00600F0F1F810BD0000CE
:100F600000B587B000F0E0FE00F020F818220D492F
:100F70006846FFF7E5F801F085F8684601F07AF871
:100F800000F0F4FB00F0C6FBFFF7CCFF00F058FCCC
:100F900000F06AFCFFF790FF00F00CFB00F076FC1D
:100FA00007B000BD0C2B00007047704710B5034917
:100FB00001200870024800F081FB10BD10000020E5
:100FC0000090D00370B50D46044600F0BDFA6119DB
:100FD000884201D3012070BD002070BD704770476A
:100FE00010B5040007D0012C05D0022C03D0362107
:100FF00008A001F03BFD1048016B02221143016380
:10100000002C01D0182004430C4804430C484460D1
:1010100010BD00002E2E5C2E2E5C2E2E5C66776C92
:1010200069625C7372635C63773332663033305F5E
:10103000666C6173682E63000000014000005A5A1C
:101040000020024070477047704770470CC908394C
:10105000002B0DD0C3699343C3610A79D20602689D
:101060000B684DD51A4302604A68112A04D00BE080
:10107000C1691143C161704702690B681A4302617B
:10108000C2680B689A43C2604A68122A07D1C268D4
:101090000B681A43C26002690B689A430261426A94
:1010A0000B689A434262826A0B689A438262C26A00
:1010B0000B689A43C262026B0B689A4302638B68A7
:1010C00081229A4303D1426A0B681A4342628B68B9
:1010D00082229A4303D1826A0B681A4382628B6828
:1010E00084229A4303D1C26A0B681A43C2628B6896
:1010F00088229A43BFD1026B09680A430263704792
:101100009A4302604A68202A42680B6809D01A4351
:101110004260064BCA689A428268096803D10A4352
:1011200002E09A43F4E78A4382607047FFFF0000C1
:10113000006D084000D00120704701667047012A09
:1011400001D081657047C1657047704710B50A4C82
:101150000821204600F016F81021204600F012F871
:101160002021204600F00EF8044C6068401C6060AE
:1011700000F0F4F9208010BD0010004008000020AD
:101180007047704770B5044610480D4684420DD034
:101190000F4884420AD00F48844207D00E48844248
:1011A00004D0FF21A7310DA001F060FC14480542D6
:1011B00001D1002D04D1FF21A83108A001F056FC77
:1011C0000321E84309026118C86170BD00040040B2
:1011D0000010004000400140004401402E2E5C2ED3
:1011E0002E5C2E2E5C66776C69625C7372635C6346
:1011F000773332663033305F6774696D2E63000079
:1012000080FDFFFF70B5044611480D4684420CD0A6
:101210001048844209D01048844206D00F488442C6
:1012200003D09E210EA001F021FC002D05D0012D40
:1012300003D09F210AA001F019FC0320000220180E
:101240000169EA0749084900D20F1143016170BDE5
:1012500000040040001000400040014000440140F4
:101260002E2E5C2E2E5C2E2E5C66776C69625C7373
:1012700072635C63773332663033305F6774696DF5
:101280002E63000070B505462F480C4685420CD0F1
:101290002E48854209D02E48854206D02D488542E9
:1012A00003D08B212CA001F0E1FB2068002809D09D
:1012B000042807D0082805D00C2803D08C2126A0AC
:1012C00001F0D4FB6068012807D0022805D003286C
:1012D00003D08D2120A001F0C9FBA168002911D005
:1012E00001290FD002290DD003290BD0042909D0E0
:1012F000052907D0062905D0072903D08E2116A07D
:1013000001F0B4FBE068012805D0002803D08F214C
:1013100011A001F0ABFB032000022818836821789C
:101320000F2215468D40AB4365688D402B4383608B
:10133000036B21788A409343A268E468E400224367
:101340008A401343036370BD000400400010004056
:1013500000400140004401402E2E5C2E2E5C2E2EBB
:101360005C66776C69625C7372635C637733326668
:101370003033305F6774696D2E63000070B50446CA
:10138000174816460D4684420DD0164884420AD0AE
:101390001548844207D01548844204D0FF21843187
:1013A00013A001F063FB1B48054201D1002D04D1BD
:1013B000FF2185310EA001F059FB03200002241803
:1013C000002E09D0012E04D0FF21863108A001F0A3
:1013D0004DFB6069284301E06069A843606170BD0E
:1013E0000004004000100040004001400044014063
:1013F0002E2E5C2E2E5C2E2E5C66776C69625C73E2
:1014000072635C63773332663033305F6774696D63
:101410002E63000080FDFFFF70B505463C480C467A
:1014200085420CD03B48854209D03B48854206D0D6
:101430003A48854203D04E2139A001F017FB2068BD
:10144000002809D0022807D0042805D0062803D098
:101450004F2133A001F00AFB6068002805D0202846
:1014600003D050212EA001F001FB0326E2683602D2
:10147000002A39D0802A37D0D01FF93834D010460E
:10148000FF38813830D0D01FFF38FA382CD00520F3
:10149000C001824228D0B24226D00720C001824239
:1014A00022D00120800282421ED00920C001824247
:1014B0001AD005200002824216D00B20C0018242C1
:1014C00012D0700082420FD00D20C00182420BD09A
:1014D00007200002824207D00F20C001824203D0C1
:1014E00051210FA001F0C2FAE1686068226801434F
:1014F000207A002800D0402002431143A819026935
:10150000104B1A40114301612169016070BD000058
:101510000004004000100040004001400044014031
:101520002E2E5C2E2E5C2E2E5C66776C69625C73B0
:1015300072635C63773332663033305F6774696D32
:101540002E63000019F8FFFF014880687047000013
:101550001000002010B5FFF7F7FF10BD70B509258A
:101560000121ED06C9032846FFF7E2FD04460821E4
:101570000D48FFF7DDFD4000044304212846FFF736
:10158000D7FD800004432006000E0AD0072808D0AB
:101590000649400040184038C08F3C21484380B283
:1015A00070BD034870BD0000000400486C2C0000B2
:1015B000FFFF0000F0B53A4C89B00FCC6D460FC567
:1015C00001211020103C00F063F90121202000F0DF
:1015D0005FF90121102000F05BF90925ED0668692B
:1015E000A90000010009401868612E4FB8690F2159
:1015F00009038843012149034018B861A8690F21F4
:1016000009028843032149024018A861780100902B
:1016100069462846FFF71AFD0826694638460096AF
:10162000FFF714FD0427694628460097FFF70EFDD3
:1016300021461422103104A8FEF782FD24340FCC79
:101640006C460FC40121042000F050F9164C04A987
:101650002046FFF7E1FE0020009069462046FFF794
:1016600011FE694620460097FFF70CFE69462046AA
:101670000096FFF707FE012238212046FFF77EFE85
:1016800072B6012009494004086062B6FFF766FFA0
:101690000749088001212046FFF7B4FD09B0F0BDDD
:1016A000382C0000000400480010004000E100E079
:1016B00008000020FEE7704770470000F8B50446B8
:1016C000114D7D202978C000FEF724FD01462046FB
:1016D000FEF720FD0D490026771E401E884203D9E3
:1016E000012000280ED108E0094C60610321384632
:1016F00000F032FDA661072020610021384600F08D
:101700002BFD6E60F8BD000010000020FFFFFF0001
:1017100000E000E01FB5124801AB07C807C3102066
:1017200000900121202000F0B3F80E4C69462046BD
:10173000FFF78CFC202100910121202000F0A8F867
:1017400069462046FFF782FC0121890200910121B0
:10175000202000F09DF869462046FFF777FC1FBD6A
:10176000282B000000040048704700001FB51748F0
:1017700001AB07C807C301204003009001214020AE
:1017800000F086F869461248FFF760FC012000F07F
:1017900023F80124E40201211020009400F078F8DD
:1017A00009206946C006FFF751FC022000F014F83A
:1017B00001212020009400F06BF869460548FFF7EE
:1017C00045FC032000F008F81FBD00002C2C000091
:1017D000000800480004004810B501280AD0012183
:1017E000C90202280AD0032803D101220548FFF7C5
:1017F000A6FC10BD012251030348F8E7012209208D
:10180000C006F4E7000400480008004810B50128AD
:1018100009D00121C902022809D0032802D10548B4
:10182000FFF78BFC10BD012149030348F8E70920AD
:10183000C006F5E7000400480008004870470000B3
:101840001FB507486C460FC80FC40121102000F0D7
:101850001FF809206946C006FFF7F8FB1FBD00000E
:10186000442B0000704700001FB506486C460FC8A7
:101870000FC40121202000F00BF869460248FFF751
:10188000E5FB1FBD182C0000000400487047000055
:1018900070B5044609480D46044201D1002C03D11D
:1018A000074908A001F0E2F80F48002D016B01D0B4
:1018B000214300E0A143016370BD000088FDFFFFEC
:1018C000A90200002E2E5C2E2E5C2E2E5C66776CFC
:1018D00069625C7372635C63773332663033305FA6
:1018E0007263632E630000000000014070B504467F
:1018F00009480D46044201D1002C03D1074908A034
:1019000001F0B4F80F48002D816B01D0214300E0B5
:10191000A143816370BD000001E6FFFFC10200002A
:101920002E2E5C2E2E5C2E2E5C66776C69625C73AC
:1019300072635C63773332663033305F7263632E79
:10194000630000000000014070B5044609480D46E0
:10195000044201D1002C03D1074908A001F086F808
:101960000F48002D416B01D0214300E0A1434163AA
:1019700070BD000001E6FFFFD90200002E2E5C2E94
:101980002E5C2E2E5C66776C69625C7372635C639E
:10199000773332663033305F7263632E630000004A
:1019A0000000014010B5040011D0202C0FD0402CB5
:1019B0000DD0602C0BD0802C09D0A02C07D0C02CCF
:1019C00005D0E02C03D0332105A001F04FF80D48DD
:1019D00001680D4A11400D4A21431143016010BDB9
:1019E0002E2E5C2E2E5C2E2E5C66776C69625C73EC
:1019F00072635C63773332663033305F7263632EB9
:101A000063000000000001401FFF000000005A5A60
:101A100010B50446062816D0082C14D0072C12D076
:101A2000092C10D0052C0ED00B2C0CD00C2C0AD06D
:101A30000D2C08D00E2C06D00F2C04D0FF211F3106
:101A400008A001F013F8E10293204002008801434E
:101A50000D48816141680D4A114341608169090463
:101A6000FCD510BD2E2E5C2E2E5C2E2E5C66776C67
:101A700069625C7372635C63773332663033305F04
:101A80007263632E630000000000014001005A5A97
:101A90007047000010B5040009D0082C07D0102CA6
:101AA00005D0182C03D03D2105A000F0DFFF0D4923
:101AB00008680D4A10400D4A20431043086010BDCD
:101AC0002E2E5C2E2E5C2E2E5C66776C69625C730B
:101AD00072635C63773332663033305F7263632ED8
:101AE0006300000000000140E7FF000000005A5AB8
:101AF000F0B507468BB00025354814460E460995CB
:101B00000FC803936B4607C331491422103104A850
:101B1000FEF716FB002F08D0012F06D0032F04D0AC
:101B2000FF21FD312BA000F0A1FF334833493018CD
:101B3000884204D9FF21FE3126A000F097FF022C35
:101B400018D0032C16D0042C14D0052C12D0062C3F
:101B500010D0072C0ED0082C0CD0092C0AD00A2C3F
:101B600008D00B2C06D00C2C04D0FF21FF3119A07B
:101B700000F07CFF6846A9004158B14201D909959F
:101B800003E06D1CEDB2042DF5D36643002004A9DB
:101B900082008A58B24201D9064603E0401CC0B216
:101BA0000528F5D371022001014309988000014303
:101BB0000720394300030143114881624168114AFB
:101BC00011434160816A0904FCD50BB0F0BD0000EF
:101BD000C82C00002E2E5C2E2E5C2E2E5C66776CA0
:101BE00069625C7372635C63773332663033305F93
:101BF0007263632E6300000000F7C2FF002D310105
:101C00000000014004005A5A70B504000CD0012CA9
:101C10000AD0022C08D0032C06D0042C04D00921B1
:101C200089010CA000F022FF134D286813490843D6
:101C3000134908402043286000F026F81149086045
:101C400028684007400FA04201D0012070BD00204D
:101C500070BD00002E2E5C2E2E5C2E2E5C66776CE6
:101C600069625C7372635C63773332663033305F12
:101C70007263632E630000000000014000005A5AA6
:101C8000F8FF5A5A1C000020F8B5194C2068470785
:101C9000A0697F0F4004010FA06A8207A06A920F1B
:101CA000C005C50E134E14483B0000F048FA050469
:101CB00009100B0D040089007158FEF72BFA0FE094
:101CC0000E480DE00E480BE00120C00308E0002A9A
:101CD0000BD0012A09D089007158FEF71BFA68431E
:101CE00021680906490FC840F8BD04486843F7E772
:101CF00000000140882C0000006CDC020024F4008D
:101D00002080000001490860704700001C0000208E
:101D10007047704770477047024881680278891899
:101D2000816070471000002010B50520FFF770FE9D
:101D30000020FFF737FE0020FFF7ACFE082209491C
:101D40000320FFF7D5FE0848016B0222114301630F
:101D50001046FFF745F90220FFF756FF0348FFF74B
:101D6000D1FF10BD00127A00000001400090D003A6
:101D70000C490B4893235B020860188841050A4808
:101D8000490D8269D20AD2020A4382615988026AE5
:101D90008905890D920A92020A4302627047000087
:101DA00000127A001C0000200000014070477047BC
:101DB0007047000070B504460E480D4684420AD0B4
:101DC0000D48844207D00D48844204D0FF216A3177
:101DD0000BA000F04BFE680A01D1002D04D1FF21B9
:101DE0006B3107A000F042FEE069284000D00120DE
:101DF00070BD000000380140004400400048004031
:101E00002E2E5C2E2E5C2E2E5C66776C69625C73C7
:101E100072635C63773332663033305F756172743E
:101E20002E630000F8B505466D480C46854209D082
:101E30006C48854206D06C48854203D077216BA060
:101E400000F014FE20687249401E884203D97821B0
:101E500066A000F00BFE0127A088BF027E100028BC
:101E60000BD0B04209D0B84207D0032149028842C2
:101E700003D079215DA000F0F9FDE088002809D0A9
:101E8000B04207D003210902884203D07A2157A02B
:101E900000F0ECFDA0685F49401E884203D97B2119
:101EA00052A000F0E3FDA089002806D0C11FF93937
:101EB00003D07C214DA000F0D9FDE089002807D097
:101EC000202805D0102803D07D2148A000F0CEFDA9
:101ED000208A002809D0082807D00C2805D004281B
:101EE00003D07E2141A000F0C1FD608A810801D1AC
:101EF000002803D17F213DA000F0B8FDA08A002872
:101F000009D0082807D0042805D00C2803D0802148
:101F100036A000F0ABFDA088A189228A0843E189A0
:101F200011430843618A084329683B4A114008432A
:101F30002860E088A18A08436968C322920091431F
:101F400008436860A088002804D0B04226D12068E9
:101F5000C00027E020680001FEF778FB0646A06875
:101F6000FEF774FB3146FEF793F90646FEF775FB64
:101F700084B22046FEF76AFB3146FEF748F9042199
:101F8000FEF7C4F9FEF79CFB0022244BFEF7CAF9CA
:101F9000FEF778FB80B2EC602861F8BDB84220689B
:101FA00007D18000FEF752FB0646A068FEF74EFB05
:101FB00008E0FEF74BFB0646A068FEF747FB08214A
:101FC000FEF7A4F93146FEF763F9FEF779FB00222C
:101FD000124BFEF7A7F9FEF755FB80B2E860F8BD9B
:101FE0000038014000440040004800402E2E5C2E86
:101FF0002E5C2E2E5C66776C69625C7372635C6328
:10200000773332663033305F756172742E6300004F
:10201000FF23F400FF8FD003C0F8FFFF0000E03F74
:1020200070B5044607480D46844209D006488442EC
:1020300006D00648844203D0452105A000F016FDD5
:10204000A56270BD003801400044004000480040D7
:102050002E2E5C2E2E5C2E2E5C66776C69625C7375
:1020600072635C63773332663033305F75617274EC
:102070002E63000010B501460148FFF7D3FE10BDE6
:10208000003801407FB516486C460FC80FC40121C7
:102090004D022846FFF758FC01212020FFF7F8FBEE
:1020A00001212020FFF7F4FB0E4C606900090001BC
:1020B000C01C60616069F02188433030606120207D
:1020C0000190C000009069462046FEF7BFFF112036
:1020D0000190694600952046FEF7B8FF7FBD0000DD
:1020E000782C0000000400487047704770470000DB
:1020F0000FB410B503A9044B044A029800F018F974
:1021000010BC08BC04B01847712A00002000002051
:102110002021020C01D010211046020A01D01046E5
:102120000839020901D01046091F820801D0104663
:10213000891E420801D0881E7047081A704730B4C3
:102140007446641E2578641CAB4200D21D46635D54
:102150005B00E31830BC18478307FF22DB0E9A4070
:102160008907090E9940002808DB830809489B006D
:102170001818036893430B43036070470007000F70
:102180000838830804489B001818C36993430B431D
:10219000C361704700E400E000ED00E002E008C821
:1021A000121F08C1002AFAD170477047002001E0D1
:1021B00001C1121F002AFBD170470000F0B51FB407
:1021C00086B00998089A030D0021024314D05148A3
:1021D000514A1818504305141198012810981AD024
:1021E000281A401C00264D4F4D490096019104903D
:1021F000002812DA444211E01198012449A3012871
:1022000001D11098C1430698119A84600360C2609E
:1022100041600BB0F0BD4042E4E7044621050020D8
:102220003F4A001C51410391029012E0E00707D0A1
:1022300032463B4601990098FEF728F9019100903B
:1022400032463B4610461946FEF720F906460F4631
:102250006410002CEAD10498039B0028029A099983
:10226000089806DAFEF712F9019B009AFEF70EF9BC
:1022700005E0FEF773F9019B009AFEF76FF904463B
:102280000E460022284BFEF753FB03D80020C04324
:10229000014607E00022254B20463146FEF742F872
:1022A000FEF726FB102409E0002C0ADB0A2200239B
:1022B000FEF71AFA079B30321A55641E02460A438B
:1022C000F2D11122641C079B121B1C19119B012BBC
:1022D00003D0012308430ED10AE0084304D01120A3
:1022E00010900020119077E71098151A6D1E0BE0E2
:1022F0001098824202DD00236D1C03E0824201DA65
:1023000000236D1E002BEED0069811998260C160EB
:1023100030C07EE701FCFFFF104D000000001440BC
:102320000000F03F300000000000F0430000E03FFC
:10233000FFB597B0064600251BE2252876D100247C
:102340002746F749049400E00443761C32780120C4
:10235000203A90400842F7D130782A280ED0022245
:10236000307801463039092916D804990A2359438F
:10237000303940181443761C0490F1E7189802C8CD
:1023800004911890002904DA0120400304434842D4
:10239000049002200443761C30782E2814D10420A7
:1023A00004437078761C2A2809D11898761C80C8B6
:1023B000189009E00A214F43303FC719761C307846
:1023C000014630390929F5D930786C2810D006DC5F
:1023D0004C281AD068280ED06A2817D104E0742837
:1023E00013D07A2812D110E00120400504430CE0FC
:1023F0000121090501E0032109050C43717881429F
:1024000003D1012000052418761C761C307866283C
:102410000BD013DC58287DD009DC00287BD0452860
:10242000F6D04628F4D047281AD1A9E118E063284D
:1024300035D0642870D0652812D1A1E170286CD005
:1024400008DC6728F1D069287DD06E280DD06F2870
:1024500006D1BCE073282ED0752873D0782859D0C7
:102460001A9A199990476D1C82E16002400F022868
:1024700009D003280DD00428189801680DD00D60EC
:10248000001D189074E11898EA1701680D604A6001
:10249000F6E7189801680D80F2E70D70F0E71898DC
:1024A0006A4601781172001D18900020507202A82F
:1024B0000090012005E0189802C8189000200091B3
:1024C000C04361070ED5002101E00199491C01912B
:1024D000B94213DA8142F8DB019A0099895C00293C
:1024E000F3D10BE0002101E00199491C01918142E7
:1024F000FADB019A0099895C0029F5D101990498C9
:102500001A9B471A21463846199A00F099FA401941
:10251000019903E051E030E115E050E0451807E093
:10252000009800990078491C00911A9A19999047CF
:102530000198401E0190401CF2D1214638461A9B5A
:10254000199A12E137E00A200021009001916002FF
:10255000410F022907D0189A01CA1892C21794464F
:10256000032908D00AE01898C01DC108C90005C990
:102570001891944607E000B2C2179446042902D18C
:1025800040B2C1178C4600226146944506DA0A46DD
:102590000021404291418C462D2102E0210504D5C5
:1025A0002B216A461173012103E0E10701D02021AC
:1025B000F7E7029156E00A200AE0102008E0102018
:1025C00000900021042004430191082703E0082023
:1025D0000021019100906002410F022907D0189A52
:1025E00001CA189200229446032908D008E01898DE
:1025F000C01DC108C90005C91891944603E080B206
:10260000042900D1C0B20021029121072AD53178D6
:102610000D91702906D0009A1021019B4A401A435F
:1026200005D00EE040216A461173012108E06146A1
:10263000014306D030216A4611730D99517302216E
:102640000291009A0821019B4A401A430AD161462F
:10265000014301D1610705D530216A46117301217B
:102660007F1E02913178582904D02EA10E910DA918
:102670000D910DE030A1F9E76146019B009AFEF74C
:1026800033F80E9B8C469B5C0D9A521E0D92137074
:1026900061460143F0D10D9805A9081A2030019038
:1026A000600703D501200004844300E0012701985E
:1026B000874201DD381A00E000200199009041189E
:1026C000029809180498401A0490E00306D42146A1
:1026D0001A9B199A049800F0B3F94519002706E0EF
:1026E00003A81A9AC05D199990476D1C7F1C029827
:1026F0008742F5DBE0030CD521461A9B199A049812
:1027000000F09EF9451904E01A9A30201999904773
:102710006D1C0099481E00900029F5DC1FE00000A8
:1027200009280100303132333435363738396162A7
:10273000636465660000000030313233343536376B
:102740003839414243444546000000000D980D9938
:102750000078491C0D911A9A199990476D1C01999E
:10276000481E01900029F1DC4DE100F059F94519AE
:10277000761C3078002800D0DFE528461BB0F0BD7D
:10278000600700D406271898C01DC108C900486812
:102790000A680831C30FDB071891190001D09CA10A
:1027A00008E0210501D59BA104E0E10701D09AA131
:1027B00000E09AA14300109130785B0865280CD0A6
:1027C00006DC452809D046281DD0472841D141E0E4
:1027D000662818D067283CD13CE00021112F01DB8E
:1027E000112000E0781C0191009008A911A8FFF7C2
:1027F000E5FC139905910021119A15927F1C1298FE
:102800000197009150E00120C00703900120019042
:1028100008A9009711A8FFF7D1FC139A1499059203
:102820000022119B009212981593059A019200299B
:1028300001D0104602E0791C40180190381A01D5E9
:10284000019804E04042401E0090781C0190C01B9B
:10285000029043E0012F00DA01270021112F01DD52
:10286000112000E038460191009008A911A8FFF757
:10287000A5FC13990591119A0021129815920091C7
:10288000019721070CD40599B94201DB019900E0B9
:102890000191012904DD159A491E515C302906D0A9
:1028A000B84201DA011D05DA0121029115E0019912
:1028B000491EEDE7002805DC0099411800910199B7
:1028C000091A03E0019A411C914200DD019100992F
:1028D000401A401C02900120C0070390200706D434
:1028E00002990198814202DB0020C043029000203F
:1028F0006946C87707AF012103980337C9078842A3
:1029000024D0022011902B201290039800280CDA7A
:10291000404203902D20129007E00A210398FDF712
:10292000F9FB30317F1E039039701199481E1190C8
:102930000029F2DC03980028EFD1791E1298087064
:102940003078202108404530BF1E387006A8C01BD3
:10295000C01D039010980078002800D00120019934
:1029600041180298C0170918039809180498401ACA
:10297000401E0490E00306D421461A9B199A04983D
:1029800000F05EF8451910980078002803D01A9AD4
:10299000199990476D1CE00324D521461A9B199A7A
:1029A000049800F04DF845191CE00098002807DB5A
:1029B00000990598884203DD1598405C199901E05B
:1029C000199930201A9A904700986D1C401C00906D
:1029D0000298401E0290002804D11A9A2E201999BC
:1029E00090476D1C0199481E01900029DDDC05E02F
:1029F00038781A9A7F1C199990476D1C0399481EC4
:102A000003900029F4DC21461A9B199A0498ACE63D
:102A10002D0000002B00000020000000000000003E
:102A2000F8B5044600251E461746880404D405E080
:102A300039462020B0476D1C641EF9D52846F8BDE4
:102A4000FFB50446002581B01E46C80301D53027D6
:102A500000E02027880404D505E038460399B047F4
:102A60006D1C641EF9D5284605B0F0BD7047000006
:102A700070B50D4D04460A2809D10D212846FFF7EF
:102A8000CFFA01212846FFF795F90028F9D0E1B2E5
:102A90002846FFF7C5FA01212846FFF78BF90028E1
:102AA000F9D0204670BD000000380140FEF758FA0A
:102AB000FF25134CF53529462068FEF783FA0028D8
:102AC00005D00120FEF7A2FEFEF744FD20600A219A
:102AD0006068FEF777FA0028EDD0FEF711FAFEF7EE
:102AE000DDF90849FDF797FBFDF7EAFD02460B46C5
:102AF00005A0FFF7FDFAFEF72DFD6060DBE70000A3
:102B000000000020C6DC204225660A0000C2010049
:102B1000000000000090D00300000000000003004F
:102B20000000000000000000110000008000000014
:102B3000FFFF0000001000002000000080000000E7
:102B4000FFFF000010000000000000000000000077
:102B5000FFFF0000716DCA6861643560425C845893
:102B6000F8549C516B4E634B80483248E546E04434
:102B70006042983FAF3CC339E7362A349231242F64
:102B8000E22CCA2ADA2810276825E02373221E21A6
:102B9000E01FB51E9B1D8F1C901B9D1AB519D518E3
:102BA000FE172E176616A515E91435148613DD12C7
:102BB00039129B1103117010E10F570FD20E500EF6
:102BC000D20D570DDE0C670CF20B7D0B090BD80AEA
:102BD0009E0A5C0A160ACC0980093409E8089F0895
:102BE00057081208D007920757071F07EA06B806CA
:102BF00089065C0632060A06E405BF059B057905D1
:102C0000570536051505F404D404B404930473047D
:102C1000530432041204F20301000000000000001B
:102C200000000000FFFF0000000000002000000086
:102C300080000000FFFF0000000000001100000005
:102C400080000000FFFF0000000000000000000006
:102C50000000000000000000FF0000000000000075
:102C6000030000000100000001000000010003005B
:102C70000200050000000400000000000000000049
:102C800080000000FFFF00000600000006000000BA
:102C9000060000000600000006000000060000001C
:102CA000010000000300000002000000040000001A
:102CB00006000000080000000A0000000C000000F0
:102CC0000E00000010000000808D5B00001BB700AC
:102CD000002D310101366E0180A8120100366E010F
:102CE00000512502006CDC0201A24A040C2D0000F8
:102CF00000000020240000009C210000302D000076
:102D00002400002004020000AC21000000000000AC
:102D100000000000000000000000000001000000B2
:102D2000040000000000000000127A000000000013
:04000005000000C136
:00000001FF
