:020000040000FA
:1000000038020020D9000000851F0000511D0000AB
:1000100000000000000000000000000000000000E0
:100020000000000000000000000000006F2500003C
:100030000000000000000000AD1F0000712500005E
:1000400081280000391E0000692500008316000089
:10005000E9220000E9160000EB160000ED16000092
:10006000EF160000FD0000004D1600004F160000C6
:10007000710A0000FD0000007D2800007F280000BC
:10008000EB170000ED1700002118000023180000F6
:10009000FD000000C5150000C7150000531D00003D
:1000A000551D00006B2500006D2500000526000091
:1000B00007260000092600007915000081160000BF
:1000C0000448854600F054FC00480047512F0000CA
:1000D000C046C0463802002009480A4A002100A153
:1000E000814200D902440848026008488047084815
:1000F0000047FEE7FEE7FEE7FEE7FEE7FEE700005B
:10010000000000200000000008ED00E0C92500000C
:10011000C100000030B50B4601460020202201241A
:1001200009E00D46D5409D4205D31D469540491B2B
:100130002546954040191546521E002DF1DC30BD74
:1001400003460B439B0703D009E008C9121F08C0F0
:10015000042AFAD203E00B780370401C491C521E9B
:10016000F9D27047D2B201E00270401C491EFBD2A6
:1001700070470022F6E710B513460A4604461946B2
:10018000FFF7F0FF204610BDF8B502464A40D40FF5
:1001900042004B0052085B089A4202D202460846CF
:1001A00011464A0023D0C30D4A00DDB2120EAD1A2B
:1001B000202D35DA49020126490AF6058A19002C54
:1001C00000D0524220214F1B1146B9402A4110183D
:1001D000C20D9A4221D0002C17D0012D08DCDA057F
:1001E000801AD20F8019D207DBB200F015FBF8BDE0
:1001F000DA05801A012340001B06C01880185A42F5
:100200008018CA0F1043490007E04908C20711438C
:10021000DA05801A80194008801800F0F5FAF8BD58
:1002200061000122511A001BF7E70122D207514059
:10023000AAE70122D2075040A6E7024670B54A401D
:10024000D30FDB0740002DD04A002AD0010E140E38
:10025000000212020919400A520A8418E5010446F4
:100260005443000A120A2E045043A4194219200CC8
:10027000C543AA18120C0125AD03521C52191204D1
:100280007F39240400D0521C104301D44000491E81
:10029000C2B20C06C0092018401C4008802A02D0B7
:1002A00003E0002070BD40084000002900DA002073
:1002B000184370BD70B502464A40D50F40004A0051
:1002C000ED0740085208002814D0002A12D0C40DAF
:1002D000D30D41020120C0055202490A520AE41A14
:1002E000091812187D34914201D3641C00E04900C2
:1002F000002C01DA002070BD0023914201D3891A3D
:100300000343400849000028F7D100290AD0914250
:1003100002D10121C90705E0914201D2012101E08A
:100320000121C943E005C018401900F06DFA70BD05
:10033000420005D04200120E52428A4201DB0020E8
:100340007047C90508187047F0B507460846584079
:1003500087B0C00F049048000E4659004008490875
:10036000BC1A884105D2384631461E4617460B4610
:1003700002465800400810434DD0300D0390400510
:100380005900400D490D0590401A0290402873DA3B
:1003900018030121000B09050843019004980092FD
:1003A000002806D01146019A494200209041009150
:1003B0000190029840210A1A0199009800F0F0F982
:1003C00005460C466B4607CB00F00BFAC01971418D
:1003D000039A0E0D0023D71756401A467A4016434B
:1003E00044D0049A002A2DD0029A012A039A15DCDF
:1003F0001205C01A914101263605001C7141D20F29
:10040000059ED2070093019202962A46234600F0E9
:1004100049FA07B0F0BD38463146FAE71605234AD7
:100420000F46B218C01AB74101210905001C4F41FF
:1004300000187F41114618187941E20F10436D19D9
:10044000644113E0E2076D0815436408C2071443D2
:10045000039A01261205C01A91413605001C71410C
:10046000CE07400830434908C01851412A46234668
:1004700000F00BFACDE7FFE7049801224000C11716
:10048000121A00238B4104983146C417381AA1412F
:10049000EEE730B40124E407634030BC54E730B4E5
:1004A0000124E407614030BC4EE700000000E0FF9B
:1004B000F0B51FB488B00B990998002448400999F9
:1004C000C00F490049080991C0070B9900904900E5
:1004D00049080B9109990898A64608431CD00B9926
:1004E0000A98084318D0099801244000420D48009A
:1004F000410D099824050003000B204309900B9837
:100500000003000B20430B9050181C494018002298
:1005100001901446104605E0002001460DB0F0BDE4
:10052000032801DA034600E003239C46C11A0AAE01
:100530000AE05F0008ADED5B4F00F75B7D430027ED
:10054000AA187C41491C5B1E6145F2DD410004ABE9
:100550005A522104120C0A43240C401C0828DFDBE9
:10056000019802900099704601910090059B049AB1
:100570000799069800F096F9D0E700000DFCFFFF00
:10058000F0B50C465C4085B0E40FE40703944C00E2
:100590000026640859009446490802460296224300
:1005A00021D062460A431ED06200570D4A000E0356
:1005B0002303550D012402462C492405781B1B0BEF
:1005C000360B401823432643614600901C46501AC0
:1005D000B44103D30098401C009002E092180098A8
:1005E0005B41002803DA0020014605B0F0BD002081
:1005F000012109050746864611E064461D46141B85
:10060000B54106D36546521BB341744607430C43BC
:10061000A646CD0740084908284392185B41054685
:100620000D43EAD11046184313D060461946504096
:100630007140084306D06046101AB34106D2012229
:10064000002306E000220123DB0702E00122D2435F
:100650005310009874460105381C6141029C039DAB
:100660000019694100F011F9BFE70000FD03000027
:10067000C217C10F504010B54018CA079623002179
:1006800000F0CAF810BD10B500229623114600F004
:10069000C3F810BD410040020122400AD205090EF4
:1006A00080187F2901DA00207047962903DC962202
:1006B000511AC840704796398840704770B5CD0FC1
:1006C0004A0009030123090B1B0519430B4BED07D6
:1006D0000024520D9A4201DA002070BD074B3433DA
:1006E0009A4203DC9A1A00F06BF802E004495118B0
:1006F00088402C43F1D0404270BD0000FF03000051
:10070000CDFBFFFF4A0009030123090B1B05194319
:10071000094B10B5520D9A4201DA002010BD064B6C
:1007200034339A4203DC9A1A00F04AF810BD0349A8
:100730005118884010BD0000FF030000CDFBFFFFF3
:10074000C20FD207400040080BD0C10D0723DB01C8
:10075000C91840020905400A1143C2084007114365
:100760007047002001467047CB0FDB07490010B5EA
:10077000490802460A4307D00A0D07240903E40189
:10078000090B121B002A01DC002010BDC900440F18
:100790000C43C100E018D205801800F035F810BDF8
:1007A00010B5202A04DB0146203A9140002010BDFC
:1007B000914020239C1A0346E3401943904010BD0A
:1007C00010B5202A04DB0846203AD040002110BD95
:1007D0000B46D340D0402024A21A9140084319462A
:1007E00010BD10B5202A06DBCB170846203A104171
:1007F000C1170B4306E00B461341D0402024A21A38
:1008000091400843194610BD002904DA401C4900F4
:1008100001D140084000704770B40024050C05D198
:100820001024000402D1002921D01124050E01D189
:1008300000020834050F01D10001241D850F01D1EC
:100840008000A41C002801DB4000641C002908D0A3
:1008500020252E1B0D46F540A14000D00121294343
:10086000084301061B1B000ADB1D02D5002070BCDB
:100870007047DB05181880180029F8DA401C490079
:10088000F5D170BC40084000704710B5002B08DA65
:100890000024401C614192185B411A4301D1400879
:1008A000400010BDF0B51FB482B005460C0003D067
:1008B000084601F0E6FF02E001F0E3FF20300246C7
:1008C000009021462846FFF76BFF049B059A0446DB
:1008D0000F4618431143084314D0184610431BD049
:1008E000009840210A1A18460599FFF769FF054646
:1008F0000E46009A05990498FFF752FF084305D069
:10090000012004E02046394607B0F0BD0020C117A1
:1009100005430E432C43374300990E986305401A54
:100920007905E40A00220C43FD0A0A3002D50020B2
:100930000146E9E70105101969410C9C0D9D00195C
:100940006941FFF7A2FFDFE710B5002904DB0124AE
:10095000E40740428C412146002B04DB1C46012366
:10096000DB075242A3418B4200D1824210BD0000FE
:10097000064C0125064E05E0E36807CC2B430C3CF2
:1009800098471034B442F7D3FFF79EFB7838000045
:100990009838000070B54B005B0803430BD04B0048
:1009A0005C0D002633466542B341D417AD1AA3410E
:1009B00002DB0020014670BD12053018514170BDA8
:1009C0000D2803D00E2801D00F280CD108490A6841
:1009D0004B141A430A600F2806D00E2803D108686A
:1009E000202210430860704708681022F9E70000D1
:1009F0000024014010B5054801680122114301603F
:100A0000802000F005F80028FAD010BD0024014035
:100A100010B50446802811D0402C0FD0202C0DD0CA
:100A2000102C0BD0082C09D0042C07D0022C05D098
:100A3000012C03D05D2104A002F0ACF80B48C06B80
:100A4000204000D0012010BD2E2E5C2E2E5C2E2EBC
:100A50005C66776C69625C7372635C637733326681
:100A60003033305F6164632E630000000024014076
:100A700070470000F8B50446006800280FD002282F
:100A80000DD004280BD0062809D0082807D00A2842
:100A900005D00C2803D0C4214FA002F07BF8FF251D
:100AA0000135032760686E003F02002817D0A84276
:100AB00015D0B04213D0B84211D0A90088420ED050
:100AC0000521090288420AD07900884207D007210F
:100AD0000902884203D0C5213FA002F05BF8A0685C
:100AE00000280ED00121C90288420AD0490088425C
:100AF00007D00321C902884203D0C62136A002F0E4
:100B000049F8E068002809D0402807D0802805D09F
:100B1000C02803D0C72130A002F03CF8206900288B
:100B200007D001214903884203D0C8212AA002F03E
:100B300031F86069002805D0202803D0C92126A0FB
:100B400002F028F8A069002805D0802803D0CA2127
:100B500021A002F01FF8E069002805D0402803D04A
:100B6000CB211DA002F016F8206A002805D0A8426B
:100B700003D0CC2118A002F00DF8A1682069E2682A
:100B800008436168114308436169084321680843C9
:100B90001A490A681A4B1A4010430860E269A069B2
:100BA00010434A68C0239A4310434860206A0028D3
:100BB00004D00A69BA43324310430861E0688028D0
:100BC00009D11048016B2022114301630E48C1690D
:100BD00001221143C161F8BD2E2E5C2E2E5C2E2EFB
:100BE0005C66776C69625C7372635C6377333266F0
:100BF0003033305F6164632E6300000000240140E5
:100C000011C0FFFF000001400004004810B501685A
:100C10000446002922D0012920D002291ED0032910
:100C20001CD004291AD0052918D0062916D0072966
:100C300014D0082912D0092910D00A290ED00B2966
:100C40000CD00C290AD00D2908D00E2906D00F2966
:100C500004D0FF217D3113A001F09CFF60680028C3
:100C600006D0202804D0FF217E310EA001F092FF93
:100C700020460830FFF7FEFE2068FFF7A1FE0121A5
:100C8000206B4903884203D120462C3000F02AF81B
:100C90002168606808430C494A682F239A4310432F
:100CA000486010BD2E2E5C2E2E5C2E2E5C66776C5E
:100CB00069625C7372635C63773332663033305FD2
:100CC0006164632E630000000024014010B5FFF74B
:100CD0009DFF034801680E229143016010BD000092
:100CE0000024014070B50F2501682D02044600293B
:100CF0003CD0C81FF93839D0C81FFF38FA3835D072
:100D000003200002814231D00120800281422DD097
:100D100005200002814229D003204002814225D0D3
:100D200007200002814221D00120C00281421DD053
:100D300009200002814219D005204002814215D0CD
:100D40000B200002814211D00320800281420DD08D
:100D50000D200002814209D007204002814205D0C7
:100D6000A94203D0A12124A001F014FF606800284B
:100D700007D001214903884203D0A2211EA001F01F
:100D800009FFA068002805D0202803D0A3211AA0BD
:100D900001F000FFE068002805D0102803D0A4214E
:100DA00015A001F0F7FE2069002805D0082803D01F
:100DB000A52111A001F0EEFE03CC014317484268C3
:100DC0002F231B029A431143416062682168436BE1
:100DD0001143A2683826B3431A4311434163E168C3
:100DE000416121698161083C2168A94203D1016800
:100DF00010221143016070BD2E2E5C2E2E5C2E2E13
:100E00005C66776C69625C7372635C6377333266CD
:100E10003033305F6164632E6300000000240140C2
:100E20000449CA68C00752085200C00F0243CA6092
:100E300070470000002C014010B5040006D0012CC2
:100E400004D0FF21CF3106A001F0A4FE0D49086BAC
:100E50008A149043E207D20C1043086310BD0000CF
:100E60002E2E5C2E2E5C2E2E5C66776C69625C7377
:100E700072635C63773332663033305F6174696DFF
:100E80002E630000002C014010B5044600680028C5
:100E900007D00121C906884203D029212EA001F0E4
:100EA00079FE012160688903884205D0002803D0BB
:100EB0002A2129A001F06EFE0121A0684903884281
:100EC00007D003210903884203D02B2122A001F07F
:100ED00061FE206900280FD010280DD020280BD0EB
:100EE000302809D0402807D0602805D0702803D0CA
:100EF0002C2119A001F04EFE6069002805D00428BD
:100F000003D02D2114A001F045FE21686068A2687D
:100F10000143206910430143207B002800D080203A
:100F200001436069154A0143D068154B18400143DD
:100F3000D160A0691060214620314878002800D097
:100F400090150978002901D0012149020843E1697F
:100F50000843506310BD00002E2E5C2E2E5C2E2EFA
:100F60005C66776C69625C7372635C63773332666C
:100F70003033305F6174696D2E630000002C0140D6
:100F80000B8FFFF710B504464068072804D9FF21EE
:100F90001C312EA001F0FEFD2068002806D001289B
:100FA00004D0FF211D3129A001F0F4FDA068032821
:100FB00004D9FF211E3125A001F0ECFDA07B002803
:100FC00006D0012804D0FF211F3120A001F0E2FD4E
:100FD000207B002806D0012804D0FF2120311BA04F
:100FE00001F0D8FD607B002806D0012804D0FF2145
:100FF000213116A001F0CEFD1D4AD06921680009FB
:101000000001C900084361680843D061D06803212A
:1010100049058843217A8907490A0843D060A07BA3
:10102000002800D04020217B002901D00121890225
:101030000843617B002901D0FF2101310843516A37
:1010400015239B0199430843506210BD2E2E5C2E40
:101050002E5C2E2E5C66776C69625C7372635C63D7
:10106000773332663033305F6174696D2E63000010
:10107000002C014010B504464068072804D9FF2120
:1010800032312CA001F086FD2068002806D001280E
:1010900004D0FF21333127A001F07CFDA068032894
:1010A00004D9FF21343123A001F074FDA07B002876
:1010B00006D0012804D0FF2135311EA001F06AFDC1
:1010C000207B002806D0012804D0FF21363119A04A
:1010D00001F060FD607B002806D0012804D0FF21CC
:1010E000373114A001F056FD606821680001C90184
:1010F00008431949CA69F0239A431043C861A0689C
:101100000203A07B002800D080200243207B00281F
:1011100001D00120C0020243607B002801D00120E1
:1011200040020243486A7523DB01984302434A6246
:1011300010BD00002E2E5C2E2E5C2E2E5C66776C71
:1011400069625C7372635C63773332663033305F3D
:101150006174696D2E630000002C014010B50446D7
:101160004068072804D9FF214A311CA001F012FD74
:101170002068002806D0012804D0FF214B3117A099
:1011800001F008FD606821680002C9021C4A08439A
:10119000D1690F231B0299430843D061D068032112
:1011A00049058843217A8907490A0843D060A07B12
:1011B000002800D04020217B002901D00121890294
:1011C0000843617B002901D0FF2101310843916A66
:1011D00015239B0199430843906210BD2E2E5C2E6F
:1011E0002E5C2E2E5C66776C69625C7372635C6346
:1011F000773332663033305F6174696D2E6300007F
:10120000002C014010B504464068072804D9FF218E
:101210005D312CA001F0BEFC2068002806D001281A
:1012200004D0FF215E3127A001F0B4FCA0680328A0
:1012300004D9FF215F3123A001F0ACFCA07B002882
:1012400006D0012804D0FF2160311EA001F0A2FCCD
:10125000207B002806D0012804D0FF21613119A08D
:1012600001F098FC607B002806D0012804D0FF2103
:10127000623114A001F08EFC606821680003C9038C
:1012800008431949CA690F231B039A431043C861D5
:10129000A0680203A07B002800D080200243207BAE
:1012A000002801D00120C0020243607B002801D049
:1012B000012040020243886A7523DB019843024300
:1012C0008A6210BD2E2E5C2E2E5C2E2E5C66776CF4
:1012D00069625C7372635C63773332663033305FAC
:1012E0006174696D2E630000002C014010B5044646
:1012F0004068072804D9FF2174312FA001F04AFC6F
:101300002068002806D0012804D0FF2175312AA0CA
:1013100001F040FCA068032804D9FF21763126A003
:1013200001F038FCA07B002806D0012804D0FF2162
:10133000773121A001F02EFC207B002806D0012867
:1013400004D0FF2178311CA001F024FC607B002830
:1013500006D0012804D0FF21793117A001F01AFC32
:10136000A08821880004C9041C4A0843D1690F23BE
:101370001B0499430843D061D06803214905884381
:10138000217A8907490A0843D060A07B002800D051
:101390004020217B002901D0012189020843617B83
:1013A000002901D0FF2101310843D16A15239B0197
:1013B00099430843D06210BD2E2E5C2E2E5C2E2E3B
:1013C0005C66776C69625C7372635C637733326608
:1013D0003033305F6174696D2E630000002C014072
:1013E00010B504464068072804D9FF218B312CA092
:1013F00001F0D0FB2068002806D0012804D0FF218E
:101400008C3127A001F0C6FBA068032804D9FF2176
:101410008D3123A001F0BEFBA07B002806D001285F
:1014200004D0FF218E311EA001F0B4FB207B0028E8
:1014300006D0012804D0FF218F3119A001F0AAFBAA
:10144000607B002806D0012804D0FF21903114A031
:1014500001F0A0FBA08821880005C90508431949AF
:10146000CA690F231B059A431043C861A068020391
:10147000A07B002800D080200243207B002801D0E0
:101480000120C0020243607B002801D001204002FD
:101490000243C86A7523DB0198430243CA6210BD48
:1014A0002E2E5C2E2E5C2E2E5C66776C69625C7331
:1014B00072635C63773332663033305F6174696DB9
:1014C0002E630000002C014070B515460E46040046
:1014D00006D0082C04D0FF21BD3114A001F05AFB26
:1014E000002E06D0022E04D0FF21BE310FA001F045
:1014F00051FBFF2D04DDFF21BF310CA001F04AFBA1
:101500001348C1680A22914334432143C160421504
:10151000016B002D07DB11430163016BEAB2090A7D
:101520000902114300E09143016370BD2E2E5C2E31
:101530002E5C2E2E5C66776C69625C7372635C63F2
:10154000773332663033305F6174696D2E6300002B
:10155000002C01400149C86370470000002C014085
:101560000149486070470000402C01400149C860B3
:1015700070470000402C01407047000000B5104843
:1015800093B0416B04221143416303200090110288
:10159000039100200321C9020491C021059102900A
:1015A00001900790D102089009900A900C90069142
:1015B0006846FFF78BFBFFF71DFA13B000BD000074
:1015C00000000140704770471FB508486C460FC8BF
:1015D0000FC40121102000F087FD09206946C006D4
:1015E00000F086F800F004F81FBD0000A0320000F3
:1015F00010B50121092000220903C00600F0EFF810
:1016000010BD000000B587B000F0BAFF00F020F870
:1016100018220D496846FEF793FD01F0FDF8684673
:1016200001F0F2F800F00AFC00F0C2FBFFF7CCFF7B
:1016300000F0AAFC00F0BCFCFFF7A0FF00F0DEFA0F
:1016400000F0C8FC07B000BD78320000704770475A
:1016500010B5034901200870024800F07DFB10BD61
:10166000240000200090D00370B50D46044600F021
:10167000BBFA6119884201D3012070BD002070BD02
:101680007047704710B5040007D0012C05D0022C1C
:1016900003D0362108A001F07DFA1048016B022228
:1016A00011430163002C01D0182004430C4804436B
:1016B0000C48446010BD00002E2E5C2E2E5C2E2E99
:1016C0005C66776C69625C7372635C637733326605
:1016D0003033305F666C6173682E63000000014038
:1016E00000005A5A00200240704770477047704708
:1016F0000CC90839002B0DD0C3699343C3610A7923
:10170000D20602680B684DD51A4302604A68112A56
:1017100004D00BE0C1691143C161704702690B68D5
:101720001A430261C2680B689A43C2604A68122A6F
:1017300007D1C2680B681A43C26002690B689A43FA
:101740000261426A0B689A434262826A0B689A435A
:101750008262C26A0B689A43C262026B0B689A4348
:1017600002638B6881229A4303D1426A0B681A4351
:1017700042628B6882229A4303D1826A0B681A43C1
:1017800082628B6884229A4303D1C26A0B681A432F
:10179000C2628B6888229A43BFD1026B09680A43F0
:1017A000026370479A4302604A68202A42680B68C5
:1017B00009D01A434260064BCA689A428268096897
:1017C00003D10A4302E09A43F4E78A4382607047F8
:1017D000FFFF0000006D084000D001207047012A83
:1017E00001D081657047C1657047704710B50A4CDC
:1017F0000821204600F016F81021204600F012F8CB
:101800002021204600F00EF804484168491C416040
:1018100000F072FA10BD0000001000400800002027
:101820007047704770B5044610480D4684420DD08D
:101830000F4884420AD00F48844207D00E488442A1
:1018400004D0FF21A7310DA001F0A4F914480542EE
:1018500001D1002D04D1FF21A83108A001F09AF98F
:101860000321E84309026118C86170BD000400400B
:101870000010004000400140004401402E2E5C2E2C
:101880002E5C2E2E5C66776C69625C7372635C639F
:10189000773332663033305F6774696D2E630000D2
:1018A00080FDFFFF70B5044611480D4684420CD000
:1018B0001048844209D01048844206D00F48844220
:1018C00003D09E210EA001F065F9002D05D0012D59
:1018D00003D09F210AA001F05DF903200002201827
:1018E0000169EA0749084900D20F1143016170BD3F
:1018F000000400400010004000400140004401404E
:101900002E2E5C2E2E5C2E2E5C66776C69625C73CC
:1019100072635C63773332663033305F6774696D4E
:101920002E63000070B505462F480C4685420CD04A
:101930002E48854209D02E48854206D02D48854242
:1019400003D08B212CA001F025F92068002809D0B4
:10195000042807D0082805D00C2803D08C2126A005
:1019600001F018F96068012807D0022805D0032883
:1019700003D08D2120A001F00DF9A168002911D01C
:1019800001290FD002290DD003290BD0042909D039
:10199000052907D0062905D0072903D08E2116A0D6
:1019A00001F0F8F8E068012805D0002803D08F2165
:1019B00011A001F0EFF803200002281883682178B5
:1019C0000F2215468D40AB4365688D402B438360E5
:1019D000036B21788A409343A268E468E4002243C1
:1019E0008A401343036370BD0004004000100040B0
:1019F00000400140004401402E2E5C2E2E5C2E2E15
:101A00005C66776C69625C7372635C6377333266C1
:101A10003033305F6774696D2E63000070B5044623
:101A2000174816460D4684420DD0164884420AD007
:101A30001548844207D01548844204D0FF218431E0
:101A400013A001F0A7F81B48054201D1002D04D1D5
:101A5000FF2185310EA001F09DF80320000224181B
:101A6000002E09D0012E04D0FF21863108A001F0FC
:101A700091F86069284301E06069A843606170BD26
:101A800000040040001000400040014000440140BC
:101A90002E2E5C2E2E5C2E2E5C66776C69625C733B
:101AA00072635C63773332663033305F6774696DBD
:101AB0002E63000080FDFFFF70B505463C480C46D4
:101AC00085420CD03B48854209D03B48854206D030
:101AD0003A48854203D04E2139A001F05BF82068D6
:101AE000002809D0022807D0042805D0062803D0F2
:101AF0004F2133A001F04EF86068002805D020285F
:101B000003D050212EA001F045F80326E2683602EA
:101B1000002A39D0802A37D0D01FF93834D0104667
:101B2000FF38813830D0D01FFF38FA382CD005204C
:101B3000C001824228D0B24226D00720C001824292
:101B400022D00120800282421ED00920C0018242A0
:101B50001AD005200002824216D00B20C00182421A
:101B600012D0700082420FD00D20C00182420BD0F3
:101B700007200002824207D00F20C001824203D01A
:101B800051210FA001F006F8E16860682268014366
:101B9000207A002800D0402002431143A81902698E
:101BA000104B1A40114301612169016070BD0000B2
:101BB000000400400010004000400140004401408B
:101BC0002E2E5C2E2E5C2E2E5C66776C69625C730A
:101BD00072635C63773332663033305F6774696D8C
:101BE0002E63000019F8FFFF01488068704700006D
:101BF0002400002010B5FFF7F7FF10BDF0B53A4CF8
:101C000089B0204608300FC86D460FC5012110204D
:101C100000F06AFA0121202000F066FA012110206C
:101C200000F062FA0925ED066869A90000010009C3
:101C3000401868612D4FB8690F21090388430121BD
:101C400049034018B861A8690F210902884303219C
:101C500049024018A8617801009069462846FFF7BC
:101C600047FD0826694638460096FFF741FD0427E0
:101C7000694628460097FFF73BFD2146142218319C
:101C800004A8FEF75DFA2C340FCC6C460FC401217A
:101C9000042000F057FA164C04A92046FFF70CFF69
:101CA0000020009069462046FFF73CFE694620462A
:101CB0000097FFF737FE694620460096FFF732FE91
:101CC000012238212046FFF7A9FE72B601200949FA
:101CD0004004086062B600F00FF801212046FFF7CB
:101CE000E1FD09B0F0BD0000A4330000000400488D
:101CF0000010004000E100E070B509250121ED066B
:101D0000C9032846FFF766FD840008210D48FFF748
:101D100061FD4000044304212846FFF75BFD0443B6
:101D20002006000E0CD007280AD007490870074A81
:101D300010182038C07F3C2250434880012070BDDD
:101D4000002070BD0004004808000020A4330000FB
:101D5000FEE7704770470000F8B50446114D7D203E
:101D60002978C000FEF7D6F901462046FEF7D2F9E1
:101D70000D490026771E401E884203D90120002805
:101D80000ED108E0094C60610321384600F0B4FD33
:101D9000A661072020610021384600F0ADFD6E608D
:101DA000F8BD000024000020FFFFFF0000E000E07D
:101DB0001FB5124801AB07C807C3102000900121CE
:101DC000202000F091F90E4C69462046FFF790FC68
:101DD000202100910121202000F086F9694620464B
:101DE000FFF786FC0121890200910121202000F0EB
:101DF0007BF969462046FFF77BFC1FBD943200004B
:101E00000004004810B50B4A012804D0022804D071
:101E1000032808D109E0102100E020211046FFF737
:101E2000D9FC002804D0002010BD01218902F5E76B
:101E3000012010BD00040048704700001FB517487E
:101E400001AB07C807C301204003009001214020D7
:101E500000F04AF969461248FFF74AFC012000F0F9
:101E600023F80124E40201211020009400F03CF941
:101E700009206946C006FFF73BFC022000F014F879
:101E800001212020009400F02FF969460548FFF752
:101E90002FFC032000F008F81FBD0000983300005D
:101EA000000800480004004810B501280AD00121AC
:101EB000C90202280AD0032803D101220548FFF7EE
:101EC0008EFC10BD012251030348F8E701220920CE
:101ED000C006F4E7000400480008004810B50128D7
:101EE0000AD00121C90202280BD0032803D1002205
:101EF0000648FFF774FC10BD002201214903044885
:101F0000F7E700220920C006F3E7000000040048BC
:101F10000008004810B586B018216846FEF729F978
:101F2000104CE068FEF70CFC0F4A104BFEF70CFA61
:101F3000FEF71AFC0E49E060884208DBFEF700FC61
:101F40000C4A0D4BFEF7A5FAFEF70EFCE0600B49BC
:101F500000F012FE02460021094801F01DF806B00B
:101F600010BD0000080000202D431CEBE2362A3F84
:101F7000C3F5C8401F85EB51B81E19400000C04092
:101F80000000A040704700001FB507486C460FC80E
:101F90000FC40121102000F0A7F809206946C006EF
:101FA000FFF7A6FB1FBD0000B03200007047000025
:101FB0001FB506486C460FC80FC40121202000F051
:101FC00093F869460248FFF793FB1FBD8433000076
:101FD00000040048F0B5414E8DB0306B102108432D
:101FE0003063306B2027384330633D4CE168A06894
:101FF000029009200391C006416909090901C91D20
:1020000041614169F022914370314161416912019E
:10201000072391431B02C9184161324D69691203BC
:1020200091431A038918696169690F221206914365
:102030001A04891869616969120109010909891875
:102040006961694601970093FFF752FB072040033F
:102050000090694601972846FFF74AFB2146242253
:10206000103104A8FEF76CF834340FCC6C460FC462
:10207000706B80210843706304A8FEF705FF002001
:1020800000906846FEF77EFF6846FFF767F86846EF
:10209000FFF72CF9012000906846FEF7EBFF684639
:1020A000FFF7B0F86846FFF79BF91924A401204612
:1020B000FFF750FA2046FFF753FA2046FFF756FA8B
:1020C000022211460020FFF7FFF90120FEF7B4FEBF
:1020D0000120FEF7A5FE0DB0F0BD0000000001409C
:1020E0000C3400000004004870B5044609480D4651
:1020F000044201D1002C03D1074908A000F04AFD99
:102100000F48002D016B01D0214300E0A143016382
:1021100070BD000088FDFFFFA90200002E2E5C2E7E
:102120002E5C2E2E5C66776C69625C7372635C63F6
:10213000773332663033305F7263632E63000000A2
:102140000000014070B5044609480D46044201D123
:10215000002C03D1074908A000F01CFD0F48002DFA
:10216000816B01D0214300E0A143816370BD000079
:1021700001E6FFFFC10200002E2E5C2E2E5C2E2EEB
:102180005C66776C69625C7372635C63773332663A
:102190003033305F7263632E630000000000014043
:1021A00070B5044609480D46044201D1002C03D104
:1021B000074908A000F0EEFC0F48002D416B01D04C
:1021C000214300E0A143416370BD000001E6FFFF31
:1021D000D90200002E2E5C2E2E5C2E2E5C66776CB3
:1021E00069625C7372635C63773332663033305F8D
:1021F0007263632E630000000000014010B504000C
:1022000011D0202C0FD0402C0DD0602C0BD0802C66
:1022100009D0A02C07D0C02C05D0E02C03D033214E
:1022200005A000F0B7FC0D4801680D4A11400D4AA9
:1022300021431143016010BD2E2E5C2E2E5C2E2EEC
:102240005C66776C69625C7372635C637733326679
:102250003033305F7263632E630000000000014082
:102260001FFF000000005A5A10B50446062816D079
:10227000082C14D0072C12D0092C10D0052C0ED00D
:102280000B2C0CD00C2C0AD00D2C08D00E2C06D008
:102290000F2C04D0FF211F3108A000F07BFCE102CD
:1022A00093204002008801430D48816141680D4A36
:1022B0001143416081690904FCD510BD2E2E5C2EAE
:1022C0002E5C2E2E5C66776C69625C7372635C6355
:1022D000773332663033305F7263632E6300000001
:1022E0000000014001005A5A7047000010B5040078
:1022F00009D0082C07D0102C05D0182C03D03D2174
:1023000005A000F047FC0D4908680D4A10400D4A31
:1023100020431043086010BD2E2E5C2E2E5C2E2E06
:102320005C66776C69625C7372635C637733326698
:102330003033305F7263632E6300000000000140A1
:10234000E7FF000000005A5AF0B507468BB00025A1
:10235000354814460E4609950FC803936B4607C3CC
:1023600031491422103104A8FDF7EAFE002F08D0ED
:10237000012F06D0032F04D0FF21FD312BA000F048
:1023800009FC334833493018884204D9FF21FE3113
:1023900026A000F0FFFB022C18D0032C16D0042C32
:1023A00014D0052C12D0062C10D0072C0ED0082CDF
:1023B0000CD0092C0AD00A2C08D00B2C06D00C2CDF
:1023C00004D0FF21FF3119A000F0E4FB6846A9000A
:1023D0004158B14201D9099503E06D1CEDB2042DBD
:1023E000F5D36643002004A982008A58B24201D97D
:1023F000064603E0401CC0B20528F5D37102200157
:102400000143099880000143072039430003014339
:10241000114881624168114A11434160816A09048F
:10242000FCD50BB0F0BD0000B03700002E2E5C2EA6
:102430002E5C2E2E5C66776C69625C7372635C63E3
:10244000773332663033305F7263632E630000008F
:1024500000F7C2FF002D31010000014004005A5A6C
:1024600070B504000CD0012C0AD0022C08D0032C2B
:1024700006D0042C04D0092189010CA000F08AFBAD
:10248000134D286813490843134908402043286026
:1024900000F026F81149086028684007400FA04264
:1024A00001D0012070BD002070BD00002E2E5C2EDA
:1024B0002E5C2E2E5C66776C69625C7372635C6363
:1024C000773332663033305F7263632E630000000F
:1024D0000000014000005A5AF8FF5A5A300000200C
:1024E000F8B5194C20684707A0697F0F4004010F19
:1024F000A06A8207A06A920FC005C50E134E144849
:102500003B0000F0D5F9050409100B0D040089000B
:102510007158FDF7FFFD0FE00E480DE00E480BE08F
:102520000120C00308E0002A0BD0012A09D089004D
:102530007158FDF7EFFD684321680906490FC8404F
:10254000F8BD04486843F7E7000001407037000019
:10255000006CDC020024F4002080000001490860C7
:102560007047000030000020704770477047704788
:102570000248816802788918816070472400002031
:1025800010B50520FFF770FE0020FFF737FE002092
:10259000FFF7ACFE082209490320FFF7D5FE0848E3
:1025A000016B0222114301631046FFF76BF8022012
:1025B000FFF756FF0348FFF7D1FF10BD00127A0066
:1025C000000001400090D0030C490B4893235B02AC
:1025D0000860188841050A48490D8269D20AD2026A
:1025E0000A4382615988026A8905890D920A92021A
:1025F0000A4302627047000000127A003000002097
:10260000000001407047704770470000F8B505466C
:102610006D480C46854209D06C48854206D06C480E
:10262000854203D077216BA000F0B4FA206872498C
:10263000401E884203D9782166A000F0ABFA01273A
:10264000A088BF027E1000280BD0B04209D0B8424B
:1026500007D003214902884203D079215DA000F010
:1026600099FAE088002809D0B04207D00321090276
:10267000884203D07A2157A000F08CFAA0685F4905
:10268000401E884203D97B2152A000F083FAA08922
:10269000002806D0C11FF93903D07C214DA000F0DD
:1026A00079FAE089002807D0202805D0102803D027
:1026B0007D2148A000F06EFA208A002809D0082861
:1026C00007D00C2805D0042803D07E2141A000F0BB
:1026D00061FA608A810801D1002803D17F213DA0E1
:1026E00000F058FAA08A002809D0082807D004284A
:1026F00005D00C2803D0802136A000F04BFAA0882A
:10270000A189228A0843E18911430843618A084369
:1027100029683B4A114008432860E088A18A0843A1
:102720006968C3229200914308436860A08800282A
:1027300004D0B04226D12068C00027E02068000104
:10274000FDF7A1FF0646A068FDF79DFF3146FDF7A6
:10275000B1FD0646FDF79EFF84B22046FDF793FFCC
:102760003146FDF766FD0421FDF7E2FDFDF7E8FFC8
:102770000022244BFDF7E8FDFDF7C4FF80B2EC60BA
:102780002861F8BDB842206807D18000FDF77BFFC3
:102790000646A068FDF777FF08E0FDF774FF0646E0
:1027A000A068FDF770FF0821FDF7C2FD3146FDF777
:1027B00081FDFDF7C5FF0022124BFDF7C5FDFDF7BA
:1027C000A1FF80B2E860F8BD00380140004400403D
:1027D000004800402E2E5C2E2E5C2E2E5C66776C00
:1027E00069625C7372635C63773332663033305F87
:1027F000756172742E630000FF23F400FF8FD00315
:10280000C0F8FFFF0000E03F10B501460148FFF7A8
:10281000FDFE10BD003801407FB516486C460FC85C
:102820000FC401214D022846FFF7BAFC01212020E8
:10283000FFF75AFC01212020FFF756FC0E4C60697F
:1028400000090001C01C60616069F02188433030DC
:10285000606120200190C000009069462046FEF78C
:1028600047FF11200190694600952046FEF740FF82
:102870007FBD0000FC330000000400487047704733
:1028800070472021020C01D010211046020A01D00D
:1028900010460839020901D01046091F820801D0EC
:1028A0001046891E420801D0881E7047081A7047DA
:1028B00030B47446641E2578641CAB4200D21D46B9
:1028C000635D5B00E31830BC184700004900CA0292
:1028D0000243100000D004204A0D01D00122104311
:1028E000044A490D914201D102210843012800D137
:1028F00005207047FF0700008307FF22DB0E9A4088
:102900008907090E9940002808DB830809489B00C5
:102910001818036893430B43036070470007000FC8
:102920000838830804489B001818C36993430B4375
:10293000C361704700E400E000ED00E0F8B5044634
:102940004F1EC8000838211815461E4608684968F9
:102950003A4606239A4310D02A463346FDF7A8FD8F
:102960003A46D200083AA3181A687F1E5B68FDF742
:10297000EBFC06223B469343EED1022F23D0042FDB
:1029800011D0062F2FD12A463346FDF791FDE36A79
:10299000A26AFDF7D9FC2A463346FDF789FD636A32
:1029A000226AFDF7D1FC2A463346FDF781FDE36933
:1029B000A269FDF7C9FC2A463346FDF779FD636934
:1029C0002269FDF7C1FC2A463346FDF771FDE36835
:1029D000A268FDF7B9FC2A463346FDF769FD636836
:1029E0002268FDF7B1FCF8BD10B50122FDF7D2FF5A
:1029F00010BD10B5FDF7A8FC10BD0000034A10B5CE
:102A000000201107FDF7C6FF10BD000001FDFFFF0C
:102A100002E008C8121F08C1002AFAD170477047A7
:102A2000002001E001C1121F002AFBD17047000005
:102A300001490860704700003400002070B50B4C5D
:102A400001E0FDF7F2FB21468842FADA084DA84280
:102A500003D32146FDF798FBF9E7FF21C905C842DA
:102A600002D32146FDF790FB70BD0000DA0FC9408C
:102A7000DA0FC9C0F8B50446304E314D3149FDF783
:102A8000DCFB0090FDF75CFE2F4B304F0246B4425A
:102A900012DA0098A842104603D20022FDF754FC37
:102AA00002E00022FDF7F5FCFDF708FE8000385833
:102AB000FDF7DEFD26493EE02648844210DA009804
:102AC000A842104603D20022FDF73EFC02E000229D
:102AD000FDF7DFFCFDF7F2FDFF218F31081AE5E776
:102AE0001D481E4E8442009811DAA842104603D2B7
:102AF0000022FDF729FC02E00022FDF7CAFCFDF7E9
:102B0000DDFD80001649C0194018806C10E0A84215
:102B1000104603D20022FDF717FC02E00022FDF769
:102B2000B8FCFDF7CBFDC7218900081A8000385892
:102B3000FDF79EFD3146FDF780FBF8BDDA0FC93F7A
:102B400000008080E65FFD420000E03F503400005E
:102B500017B7D138DA0F4940E4CB964017B7D1B850
:102B600080F9FFFF034A10B54110511AFDF765FBCC
:102B700010BD0000865A375F10B5FDF75EFB044CB0
:102B800001E0FDF752FB21468842FADA10BD000051
:102B9000C3F5C84070470000F0B589B004460D4643
:102BA0004800069172494008884215DB7149884205
:102BB00003DC884207D1002C05D020462946FFF7C8
:102BC00013FF09B0F0BD6C48002D02DD6B4909B060
:102BD000F0BD6B4909B0F0BD6A49884211DA6A4913
:102BE00088420BDA20462946FFF770FE042801D1FF
:102BF000FFF704FF2046294609B0F0BD0026F64342
:102C00005DE06D0061496D08884232DA60498842B2
:102C100019DA0026012332469B0720462946FDF794
:102C200093FB07460191012220462946FDF7B2FE9B
:102C30000022584BFDF72DFC3A46019BFDF7A0FC06
:102C400004460D463BE001260022524B2046294611
:102C5000FDF77AFB0746009100224E4B204629469D
:102C6000FDF717FC3A46009BFDF78AFC04460D462B
:102C700025E04949884219DA02260022474B2046BE
:102C80002946FDF715FC0022424BFDF75DFB074688
:102C900002910022414B20462946FDF7FAFB3A46B5
:102CA000029BFDF76DFC04460D4608E00326224614
:102CB0002B4600203A49FDF763FC04460D462246A8
:102CC0002B4610461946FDF7F3FB07460B46024616
:102CD0000191FDF7EDFB0246029032480B4603914D
:102CE00006217844FFF72AFE3A46019BFDF7E0FBF8
:102CF00000902D48019105217844039B029AFFF72B
:102D00001DFE039B029AFDF7D3FB02460B46019979
:102D10000098002E0BDAFDF717FB22462B46FDF735
:102D2000C7FB22462B46FDF7BAFB09B0F0BDFDF705
:102D30000BFB22462B46FDF7BBFB1C4AF6007A44F0
:102D400093191A685B68FDF7A4FB22462B46FDF732
:102D5000A0FB174A7A4493191A685B68FDF79FFB3A
:102D6000069A002AE1DA0122D207514009B0F0BDEB
:102D7000000010440000F07F182D4454FB21F93F5F
:102D8000FB21F9BF0000DC3F0000203E0000F33FC4
:102D90000000E63F0000F03F008003400000F83FE5
:102DA0000000F0BF5A0B00001C0B0000B60A000028
:102DB000800A0000F0B51FB4039A029D53006E42D2
:102DC0002E439446F40F5B084A00574E52081C43AA
:102DD0008E46B44205D847420743FC0F1443B44221
:102DE00005D92A466346FFF704FE05B0F0BD4F4EF5
:102DF00066442E430AD0CC0F6646B61702273E40E3
:102E0000264304464A4F144304D00BE0FFF7C4FEA8
:102E100005B0F0BD002EFBD0012EF9D0022E32D02D
:102E2000032E34D01C462C430BD03F4CA34216D16A
:102E3000A2420AD1012189078B438A431146039399
:102E40000DE0704600280FDB25E03A4D7D44002E52
:102E50000ED0012E10D0022E15D0032E17D0A24274
:102E60001DD17046002816DA3148334905B0F0BD4F
:102E70006968286805B0F0BD01226968D207286832
:102E8000514005B0F0BD38462C4905B0F0BD38467C
:102E90002B4905B0F0BD26482A4905B0F0BDD21A2D
:102EA00012153C2A02DD224D264C12E06346002B0F
:102EB00005DA3C23DA4202DA00252C4609E0039BBE
:102EC000029AFDF75DFB49004908FFF765FE0546DC
:102ED0000C46002E12D0012E0DD01B4A1B4B022E89
:102EE0002846214618D0FDF7D4FA3A46134BFDF791
:102EF000D0FA05B0F0BD0120C007444000221346BF
:102F000028462146FDF720FD02D10220FFF790FD63
:102F10002846214605B0F0BDFDF7BBFA3A46074BFF
:102F2000FDF7BDFA05B0F0BD0000F07F000010C055
:102F3000182D4454200A0000FB21F9BFFB21094051
:102F4000FB2109C0FB21F93F075C143326A6A13CF5
:102F5000FEF758FBFF250F4CF53529462068FEF794
:102F600083FB002802D0FEF745FE20600021606848
:102F7000FEF77AFB002809D0FEF73CFE60600120D6
:102F8000FEF740FF002801D0FEF7C4FF00F03AF939
:102F9000E3E7000000000020F7B594B0074615985D
:102FA0004000040E3846FDF7CBFB0E460546002CCC
:102FB0002BD039460846FDF740F9159904460846D6
:102FC000FDF73BF92146FDF7DFF8FFF7CBFDFDF7F5
:102FD000B7FB834A834BFDF7D3FAFDF7C5FB0446E5
:102FE0001598FDF7ADFB02460B4628463146FFF724
:102FF000E1FE05460E461698FDF7A2FB33462A462B
:10300000FDF7A2F9FDF7B0FB0AE0754A754BFDF735
:10301000B7FAFDF7A9FB044673491698FDF7B4F813
:10302000FFF70CFD06467148844202DC704884427A
:1030300000D904466F493046FDF73CF97F27FF056C
:103040003946FDF7A1F8FDF725FB0546FDF71BFB0B
:1030500068491390FDF7F1F83146FDF7E6F8FFF700
:1030600009FD6549FDF7E9F82146FDF7E6F81290FC
:1030700039461398FDF7D9F85E49FDF7DEF8314679
:10308000FDF7D7F8FFF7F6FC5B49FDF7D6F82146C8
:10309000FDF7D3F8064638461299FDF7C6F83146D3
:1030A000FDF7C3F80021C943544C2B00FFF700FC87
:1030B00007930513253476849300FDF739F9054607
:1030C00031461298FDF760F82946FDF75DF820615A
:1030D000284631460BE0FDF72BF905461299FDF71E
:1030E00053F8206131461298FDF74EF82946FDF756
:1030F0004BF860612846A5611AE0FDF719F905460D
:10310000206131461298FDF73FF82946FDF73CF85B
:1031100060612846314608E0FDF70AF9206105465E
:103120001299FDF731F8606140E0FDF72DF8A061DC
:1031300022690092616902900191039204900591C5
:1031400006910890079209910A900B920FAB0D928D
:103150000E910C9007C364780C20294D44436E46B1
:1031600030592946FDF769F8FDF794FA80B2FEF769
:10317000F1F9A41929466068FDF75FF8FDF78AFAAE
:1031800080B2FEF7EDF92946A068FDF756F8FDF785
:1031900081FA80B2FEF7EAF917B0F0BDFDF7C8F882
:1031A00005463146FCF7F0FF656120613146129813
:1031B000FCF7EAFF2946B8E7FDF7BAF805463146BD
:1031C0001298FCF7E1FF2946FCF7DEFF65612061FC
:1031D00028461299A9E7002020616061A7E7000056
:1031E0006666666666662640DA0FC93F46B6133FD6
:1031F00046B613BF8D0A863FD7B3DD3F08000020D7
:103200000000C84410B51B4C6078C00703D00120F3
:10321000FEF764FE02E00120FEF746FE60788007BC
:1032200003D50220FEF75AFE02E00220FEF73CFE24
:103230006078400703D50320FEF750FE02E003202C
:10324000FEF732FEFF219131A068FEF70DFA00284B
:103250000ED00220FEF7D6FD002809D0FEF7CAFCEA
:10326000A06060780621401CC0B2FCF753FF61707B
:1032700010BD00000800002000C201000000000096
:103280000090D003000000000000030000000000D8
:10329000000000001100000080000000FFFF00009F
:1032A000001000002000000080000000FFFF000070
:1032B000100000000000000000000000FFFF000000
:1032C000716DCA6861643560425C8458F8549C51E1
:1032D0006B4E634B80483248E546E0446042983F7D
:1032E000AF3CC339E7362A349231242FE22CCA2A64
:1032F000DA2810276825E02373221E21E01FB51E5F
:103300009B1D8F1C901B9D1AB519D518FE172E17E3
:103310006616A515E91435148613DD1239129B11B2
:1033200003117010E10F570FD20E500ED20D570D32
:10333000DE0C670CF20B7D0B090BD80A9E0A5C0AA7
:10334000160ACC0980093409E8089F0857081208B2
:10335000D007920757071F07EA06B80689065C06DA
:1033600032060A06E405BF059B05790557053605B3
:103370001505F404D404B404930473045304320410
:103380001204F20301000000000000000000000031
:10339000FFFF00000000000020000000800000008F
:1033A000FFFF000005030401000200000000000010
:1033B0001100000080000000FFFF0000000000007E
:1033C000000000000000000000000000FF000000FE
:1033D00000000000030000000100000001000000E8
:1033E00000000000000000000000000000000000DD
:1033F0000000A040000000000000000000000000ED
:103400000000000080000000FFFF0000000000003E
:103410000000000080000000FFFF0000000000002E
:10342000000000000030000000000000000000006C
:10343000000000003F060000000000000000000047
:103440000000000007000000000000000000000075
:10345000000000004F0000009E000000ED00000092
:103460003C0100008B010000D9010000280200008F
:1034700077020000C602000015030000630300008D
:10348000B2030000000400004F0400009D0400008F
:10349000EC0400003A05000088050000D605000095
:1034A0002406000072060000C00600000E0700009F
:1034B0005B070000A9070000F607000043080000B2
:1034C00090080000DD0800002A09000077090000CC
:1034D000C30900000F0A00005C0A0000A80A0000EF
:1034E000F40A00003F0B00008B0B0000D60B00001D
:1034F000210C00006C0C0000B70C0000010D000056
:103500004C0D0000960D0000E00D0000290E00009B
:10351000730E0000BC0E0000050F00004E0F0000EF
:10352000960F0000DF0F0000271000006E10000053
:10353000B6100000FD100000441100008B110000C7
:10354000D1110000171200005D120000A21200004D
:10355000E81200002D13000071130000B6130000E4
:10356000F91300003D14000081140000C414000091
:1035700006150000491500008B150000CC15000051
:103580000E1600004F1600008F160000CF16000028
:103590000F1700004F1700008E170000CD17000016
:1035A0000B1800004918000087180000C41800001C
:1035B000011900003D19000079190000B51900003B
:1035C000F01900002B1A0000661A00009F1A000074
:1035D000D91A0000121B00004B1B0000831B0000C7
:1035E000BB1B0000F21B0000291C0000601C000037
:1035F000961C0000CB1C0000001D0000351D0000C3
:10360000691D00009D1D0000D01D0000031E00006C
:10361000351E0000671E0000981E0000C91E000035
:10362000FA1E0000291F0000591F0000881F00001B
:10363000B61F0000E41F0000112000003E20000023
:103640006A20000096200000C1200000EC2000004D
:103650001621000040210000692100009221000095
:10366000BA210000E1210000082200002F22000002
:10367000552200007A2200009F220000C322000091
:10368000E72200000A2300002D2300004F23000042
:103690007023000091230000B2230000D12300001A
:1036A000F12300000F2400002D2400004B24000013
:1036B0006824000084240000A0240000BB24000033
:1036C000D5240000EF240000092500002225000079
:1036D0003A25000052250000692500007F250000E2
:1036E00095250000AA250000BF250000D325000075
:1036F000E6250000F92500000B2600001D2600002D
:103700002E2600003E2600004E2600005D2600000A
:103710006C2600007A260000872600009426000010
:10372000A0260000AB260000B6260000C026000040
:10373000CA260000D3260000DB260000E326000096
:10374000EA260000F1260000F7260000FC26000013
:103750000127000005270000082700000B270000B4
:103760000D2700000F270000102700001027000081
:103770000600000006000000060000000600000031
:103780000600000006000000010000000300000029
:103790000200000004000000060000000800000015
:1037A0000A0000000C0000000E00000010000000E5
:1037B000808D5B00001BB700002D310101366E01CA
:1037C00080A8120100366E0100512502006CDC0257
:1037D00001A24A04000000004FBB610567ACDD3F59
:1037E000182D4454FB21E93F9BF681D20B73EF3F28
:1037F000182D4454FB21F93FE2652F227F2B7A3CA0
:10380000075C143326A6813CBDCBF07A8807703C58
:10381000075C143326A6913CC4EB98999999C9BFCB
:10382000711623FEC671BCBF6D9A74AFF2B0B3BF00
:103830009AFDDE522DDEADBF2F6C6A2C44B4A2BFC0
:103840000D5555555555D53FFF8300922449C23F2C
:103850006E204CC5CD45B73F513DD0A0660DB13F60
:10386000EB0D76244B7BA93F11DA22E33AAD903F72
:103870000000000000000000983800000000002058
:1038800038000000102A0000D03800003800002066
:1038900000020000202A00000000000000000000DC
:1038A0000000000000000000000000000000000018
:1038B0000000000000000000000000000100000007
:1038C000040000000000000000127A000000000068
:04000005000000C136
:00000001FF
