:020000040800F2
:10000000F00C0020010100080D340008EF2F00085B
:10001000E53300086D0B00085B3E0008000000009F
:100020000000000000000000000000000937000888
:10003000EB0B000800000000DD3600083537000833
:100040001B0100081B0100081B0100081B01000820
:100050001B0100081B0100081B0100081B01000810
:100060001B0100081B0100081B010008950B00087C
:100070001B0100081B010008A50B0008B50B0008B8
:100080001B0100081B010008710A00081B01000881
:100090001B0100081B0100081B0100081B010008D0
:1000A0001B0100081B0100081B010008B5370008F0
:1000B0001B0100081B0100081B0100081B010008B0
:1000C0001B0100081B0100081B0100081B010008A0
:1000D0001B010008413E00081B0100081B0100082D
:1000E0001B0100081B0100081B010008034885468E
:1000F00000F012FC0048004729490008F00C0020DD
:100100000648804706480047FEE7FEE7FEE7FEE7B1
:10011000FEE7FEE7FEE7FEE7FEE7FEE7B137000891
:10012000ED00000810B5202A04DB0846203AD04034
:10013000002110BD0B46D340D0402024A21A91408C
:100140000843194610BD03460B439B0703D009E043
:1001500008C9121F08C0042AFAD203E00B78037002
:10016000401C491C521EF9D27047D2B201E0027005
:10017000401C491EFBD270470022F6E710B513461B
:100180000A4604461946FFF7F0FF204610BD10B599
:10019000002200E0521C835C8C5CA34201D1002B46
:1001A000F8D1D8B2E1B2401A10BDF8B502464A40C3
:1001B000D40F42004B0052085B089A4202D202461A
:1001C000084611464A0023D0C30D4A00DDB2120E84
:1001D000AD1A202D35DA49020126490AF6058A1999
:1001E000002C00D0524220214F1B1146B9402A4119
:1001F0001018C20D9A4221D0002C17D0012D08DC16
:10020000DA05801AD20F8019D207DBB200F084F928
:10021000F8BDDA05801A012340001B06C0188018BB
:100220005A428018CA0F1043490007E04908C20724
:100230001143DA05801A80194008801800F064F92B
:10024000F8BD61000122511A001BF7E70122D20715
:100250005140AAE70122D2075040A6E7024670B5F6
:100260004A40D30FDB0740002DD04A002AD0010EB0
:10027000140E000212020919400A520A8418E501FC
:1002800004465443000A120A2E045043A41942198A
:10029000200CC543AA18120C0125AD03521C52199B
:1002A00012047F39240400D0521C104301D44000B2
:1002B000491EC2B20C06C0092018401C4008802A02
:1002C00002D003E0002070BD40084000002900DAA1
:1002D0000020184370BD70B502464A40D50F40005B
:1002E0004A00ED0740085208002814D0002A12D016
:1002F000C40DD30D41020120C0055202490A520A21
:10030000E41A091812187D34914201D3641C00E0EC
:100310004900002C01DA002070BD0023914201D376
:10032000891A0343400849000028F7D100290AD060
:10033000914202D10121C90705E0914201D2012178
:1003400001E00121C943E005C018401900F0DCF8C4
:1003500070BD0122D207002800DB101A002900DB43
:10036000511A814201D801207047002070470122B4
:10037000D207002800DB101A002900DB511A814245
:1003800001D201207047002070470122D2070028C7
:1003900000DB101A002900DB511A814201D3012031
:1003A0007047002070470122D207002800DB101A96
:1003B000002900DB511A814201D901207047002039
:1003C0007047C217C10F504010B54018CA07962396
:1003D000002100F0A1F810BD10B5002296231146AF
:1003E00000F09AF810BDC20F410040020123400AFC
:1003F000DB05D207090EC0187F2901DA00207047FB
:10040000962903DC9623591AC84001E096398840A2
:10041000002AF4D04042704770B50446002903D04A
:1004200000202022012310E0002801D00020C0433A
:10043000C046C0460DE02546D5408D4205D30D4649
:100440009540641B1D46954040191546521E002DCF
:10045000F1DC214670BD000070B5002504462E4633
:10046000002911D0002C01DA01254442002901DACB
:10047000012649422046FFF7CFFFB54200D0404257
:10048000002D00D0494270BD002C02DA0121C907BD
:1004900002E0002C00DD03490846C046C046214664
:1004A00070BD0000FFFFFF7FF0B51FB406460020BF
:1004B00082B005464024019100901BE0019922463C
:1004C0000F463046FFF72EFE049A059B801A99418D
:1004D00010D310461946224600F030FA361A8F41E2
:1004E0000197224601200021009F00F027FA3818CA
:1004F0004D4100902046641E0028DFDC019B0098DF
:100500002946324607B0F0BD002904DA401C4900F4
:1005100001D140084000704770B40024050C05D19B
:100520001024000402D1002921D01124050E01D18C
:1005300000020834050F01D10001241D850F01D1EF
:100540008000A41C002801DB4000641C002908D0A6
:1005500020252E1B0D46F540A14000D00121294346
:10056000084301061B1B000ADB1D02D5002070BCDE
:100570007047DB05181880180029F8DA401C49007C
:10058000F5D170BC4008400070470000F0B5074648
:100590000846584087B0C00F049048000E465900E6
:1005A00040084908BC1A884105D2384631461E46E3
:1005B00017460B4602465800400810434CD0300DF9
:1005C000039040055900400D490D0590401A0290D6
:1005D000402872DA18030121000B09050843019035
:1005E00004980092002805D00199524200208841C9
:1005F00000920190029840210A1A0199009800F097
:100600009DF905460C466B4607CB00F0A7F9C019CB
:100610007141039A0E0D0023D71756401A467A40AF
:10062000164344D0049A002A2DD0029A012A039A34
:1006300015DC1205C01A914101263605001C7141D6
:10064000D20F059ED2070093019202962A462346B6
:1006500000F0A4F907B0F0BD38463146FAE71605B8
:10066000224A0F46B218C01AB74101210905001CE1
:100670004F4100187F41114618187941E20F10438D
:100680006D19644113E0E2076D0815436408C20761
:100690001443039A01261205C01A91413605001C25
:1006A0007141CE07400830434908C01851412A46DD
:1006B000234600F066F9CDE7FFE7049801224000E9
:1006C000C117121A00238B4104983146C417381AF7
:1006D000A141EEE730B40124E407634030BC55E7A4
:1006E00030B40124E407614030BC4FE70000E0FF74
:1006F000F0B51FB488B00B990998002448400999B7
:10070000C00F490049080991C0070B9900904900A2
:1007100049080B9109990898A64608431CD00B99E3
:100720000A98084318D0099801244000420D480057
:10073000410D099824050003000B204309900B98F4
:100740000003000B20430B9050181C494018002256
:1007500001901446104605E0002001460DB0F0BDA2
:10076000032801DA034600E003239C46C11A0AAEBF
:100770000AE05F0008ADED5B4F00F75B7D430027AB
:10078000AA187C41491C5B1E6145F2DD410004ABA7
:100790005A522104120C0A43240C401C0828DFDBA7
:1007A000019802900099704601910090059B049A6F
:1007B0000799069800F0F2F8D0E700000DFCFFFF63
:1007C000F0B50C465C4085B0E40FE40703944C00A0
:1007D00000266408590094464908024602962243BE
:1007E00021D062460A431ED06200570D4A000E0314
:1007F0002303550D012402462C492405781B1B0BAD
:10080000360B401823432643614600901C46501A7D
:10081000B44103D30098401C009002E09218009865
:100820005B41002803DA0020014605B0F0BD00203E
:10083000012109050746864611E064461D46141B42
:10084000B54106D36546521BB341744607430C437A
:10085000A646CD0740084908284392185B41054643
:100860000D43EAD11046184313D060461946504054
:100870007140084306D06046101AB34106D20122E7
:10088000002306E000220123DB0702E00122D2431D
:100890005310009874460105381C6141029C039D69
:1008A0000019694100F06DF8BFE70000FD0300008A
:1008B0004A0009030123090B1B0519430A4B10B514
:1008C000520D9A4202DA0020014610BD064B343325
:1008D0009A4203DC9A1AFFF725FC10BD034BD2188D
:1008E00000F02CF810BD0000FF030000CDFBFFFF5F
:1008F00010B5002904DB0124E40740428C41214665
:10090000002B04DB1C460123DB075242A341994222
:1009100000D1904210BD0000064C0125064E05E0B6
:10092000E36807CC2B430C3C98471034B442F7D310
:10093000FFF7E0FB386700085867000810B5202A69
:1009400004DB0146203A9140002010BD9140202355
:100950009C1A0346E3401943904010BD10B5202A6D
:1009600006DBCB170846203A1041C1170B4306E0BF
:100970000B461341D0402024A21A91400843194647
:1009800010BD10B5002B08DA0024401C61419218FC
:100990005B411A4301D14008400010BDF0B51FB4BF
:1009A00082B005460C0003D0084604F0F5FC02E0D6
:1009B00004F0F2FC20300246009021462846FFF762
:1009C000BDFF049B059A04460F4618431143084394
:1009D00014D0184610431BD0009840210A1A18461C
:1009E0000599FFF79FFB05460E46009A0599049866
:1009F000FFF7A4FF084305D0012004E02046394654
:100A000007B0F0BD0020C11705430E432C43374308
:100A100000990E986305401A7905E40A00220C43F8
:100A2000FD0A0A3002D500200146E9E70105101948
:100A300069410C9C0D9D00196941FFF7A2FFDFE79A
:100A400083B010B581B0044603A80EC0002003F0A7
:100A500003FA03A90091204604F094FC0446012007
:100A600003F0FAF9204601B010BC02BC03B00847FD
:100A700080B5034800F0E0FA024800F0DDFA80BDDE
:100A800098010020C8010020F0B581B0054600683B
:100A900081680027C90701D13C4622E08168012412
:100AA000A143816000F0D4FE064628688068C00734
:100AB00005D13C4615E028688068C00710D000F0DA
:100AC000C7FE801B0328F6D328688068C007F2D0D1
:100AD000A86A10210143A962E86A2043E86200E0A5
:100AE0003C46204601B0F0BDF0B581B00546002778
:100AF000009700688168C9070FD1816801242143EC
:100B00008160974800681849FFF786FC00900098BC
:100B1000002804D00098401EF8E73C4621E000F091
:100B200097FE064628688068C00705D03C4618E056
:100B300028688068C00713D100F08AFE801B032854
:100B4000F6D328688068C007F2D1242000212954F8
:100B5000A86A10210143A962E86A2043E86200E024
:100B60003C46204601B0F0BD40420F00FEE70000C9
:100B700080B5054800F03AF804484188044A0088E6
:100B80001160506080BDC046400D03002801002068
:100B90001001002080B5024800F034FC80BDC04642
:100BA000F801002080B5024800F02CFC80BDC04652
:100BB0008002002080B5024800F024FC80BDC046C1
:100BC0003C02002070B5C46B056C0126AE40666027
:100BD0000468636040681028134600D00B46A36089
:100BE000102800D01146E16070BD7047B0B50446D2
:100BF00000F00AF8054600F007F80146284600F024
:100C000025F8A042F7D3B0BDB0B57D20C400064999
:100C1000486860430968FFF7FFFB251A00F018FEDB
:100C200060432818B0BDC04614E000E07047B0B57E
:100C30000C460546FFF7E8FF0146284600F006F897
:100C4000A04201D20020B0BD0120B0BD814202D33C
:100C5000404240187047C04340187047EFF310807F
:100C600072B6FEE7F0B585B004460027049724204D
:100C7000205C012801D102266DE02546243501269D
:100C80002E702046FFF700FF002801D0064661E0E5
:100C900001900297A06A31490140881CA062E34894
:100CA0000768022000F04AFE01463846FFF7B4FB11
:100CB000400004900498002802D00498401EF8E7F1
:100CC0002046FFF711FF2068816808220A438260EE
:100CD0001220C043039000F0BBFD074620688168E6
:100CE000090709D500F0B4FDC01B0B28F6D3206816
:100CF00080680007F2D522E00830039F01680422D3
:100D00000A4302600F3700F0A3FD064620688068A2
:100D10000122400703D43946019E029F16E000924B
:100D200003E02068806840070DD500F091FD801B2E
:100D30000B28F6D3206880684007F2D501261022E0
:100D4000029F039902E0394600AFC4CFA06A084071
:100D50001043A0622F70304605B0F0BDFDEEFFFFDE
:100D600064000020F0B587B0002506952422825C3F
:100D7000012A01D10222D2E0044624340122049245
:100D800022704B688268002A029418D003950C697F
:100D90001A1B052757430F371F22BA400568AE6B51
:100DA0009643032212059643A34206D80A68BA4026
:100DB00023055C4C1B191E431643AE6311E0012B47
:100DC00009D103950268936B574C1C400B68DB03F9
:100DD0002343936305E0826A202313438362012245
:100DE0000392059003689A68D20705D19A684F4C20
:100DF00014408A6922439A60487D012818D107224D
:100E000014038D690122A54201D0202600E096023C
:100E10000196A542009202D0059A283200E01A1DE0
:100E20001768019E37431760A54201D0009A0392CC
:100E30000A7D012A12D10127002804D0202400288D
:100E400004D11A1D04E03C030028FAD0059A283288
:100E5000156825431560002800D0039705980E6893
:100E6000092E01D8102700E00C27DC590325754313
:100E7000092E00D91E3D0722AA4094438A68AA4041
:100E80002243DA513746049A9743102F04D10122A6
:100E9000D2059C6814439C604A681C46032A05D00E
:100EA000022A05D0012A05D1143404E01C3402E0E2
:100EB000183400E0203422681D4D1540C9682943CC
:100EC0002160102F27D158498B4206D0816A2022F9
:100ED0000A4382620299049A1FE0886800021AD4C9
:100EE0000120C005996801439960102E13D14F4825
:100EF00000684F49FFF790FA0A214143069106988E
:100F000000280299039A08D00698401E0690069879
:100F10000028F9D101E0039A0299002008701046D8
:100F200007B0F0BD0000F0FF0000C0FFFE8FFFFF24
:100F300000F0FFFF70470000F0B585B00024049476
:100F40002422825C012A01D1022169E00246243276
:100F5000012313704E68062E0292019305D8402299
:100F6000D7433C370368343308E003684022D74353
:100F70000C2E02D81E37303300E02C33052272438A
:100F8000D2191D680E6896401F279740BD43354310
:100F90001D600B68092B01D8102600E00C2607689D
:100FA000BA5903255D43092B039400D91E3D07243C
:100FB000AC40A2438968A9401143B9511946019D2B
:100FC000A9431029039C214628D10268D7498A42A7
:100FD00005D0816A20220A43826229461EE0886881
:100FE000000221461AD40120C00591680143916096
:100FF000102B214612D10D4800680D49FFF70CFA5D
:101000000A214143049104980028214606D00498FF
:10101000401E049004980028F9D1214602980470DB
:10102000084605B0F0BDC046002401406400002021
:1010300040420F0070470000B0B5044600684168A8
:10104000890628D50168890725D5A16AC90604D46F
:1010500001214902A26A0A43A26207214904826867
:101060000A40324D8A4210D1217B00290DD14168BE
:10107000202291434160A06A2840A062A06AC00477
:1010800003D4A06A01210143A1622046FFF7D2FFE9
:10109000EE352068056020684168090632D5016890
:1010A00049072FD5A16AC90604D401214903A26AC0
:1010B0000A43A26207210A038368134093420FD1B7
:1010C000416880229143416001200103A26A8A4362
:1010D000A262A16AC9050ED4A16A0143A1620AE015
:1010E0004268520507D4490482680A408A4202D104
:1010F000217B0029E4D02046FFF71CFF0B48F43089
:10110000216808602068416849060ED50068C0075C
:101110000BD001200004A16A0143A162204600F027
:101120009BF80248FF3021680860B0BDFFFEFFFF5A
:10113000F0B585B0002826D00446806A002806D184
:10114000242000212154E162204600F087F8254642
:1011500028352046FFF798FCA26A1021A36A0028D0
:1011600014D10A4012D1374A13409A1CA262A668D1
:10117000731E5A425A41012300931B0204939E425C
:1011800007D1039607E0012005B0F0BD0B43012015
:101190004DE0120203926368E2691A43277B7B00E9
:1011A0001343227D012A0295019109D1002F41D0DC
:1011B000A26A20271743A762E26A01271743E76262
:1011C000039FE9221102226855688D433D43556013
:1011D00091681E4D0D401D43956004998E4201D0CB
:1011E000012E04D121690905194D4E1900E0002690
:1011F0000F210905D56A8D433543D5629168154A9B
:101200000A409A4208D10021E162A16A01230B43FE
:1012100002218B43029D0AE0A06A01990843022142
:101220008843A062E36A009803432C3425462B6070
:1012300005B0F0BDA2695203034FD71903990F43BC
:10124000BFE7C046FDEEFFFF00E8FFFFFDF7E1FF4F
:101250000000F0FFFE0E1FFF70470000F0B585B0E4
:1012600004460026049603960296019600682E49CD
:10127000884234D02D49884254D1012778022C4924
:101280000A6802430A600A680240009200980868EF
:101290000422104308600868104000900320029068
:1012A000982001900098234801A900F0C1F9224D2F
:1012B0002020B9023A028023A54F2F606E60AE60F5
:1012C000EB602A616961A861EE61284600F044F98B
:1012D000002801D0FFF7C2FC6C62256219E00120F2
:1012E000800213490A6802430A600A6802400092B9
:1012F00000980868042210430860086810400090B5
:10130000032002906320019000980A4801A900F090
:101310008FF91224002120460A4600F0FBFA2046ED
:1013200000F0F4FA05B0F0BD0028014000240140AF
:101330001810024000080140F801002010B52121DA
:10134000425C01462031022A0FD1026813680E2444
:10135000A343136013680124A34313604C70C26B52
:10136000006C84405460002002E00422826301206B
:1013700000220A7010BD000070B52121415C0229D5
:101380001AD101462031046822680E239A43226054
:101390002368012293432360684B694DAC4210DD02
:1013A000684DAC4216D0684DAC4216D0674DAC4289
:1013B00016D1012425041BE0042181630124204669
:1013C00070BD634DAC42154612D0624DAC4207D1A0
:1013D00010250DE0012425020AE00124250307E081
:1013E0001E4668360125B44201D02D0600E02D05C9
:1013F0001D6012020A80416B0024002900D088473A
:10140000204670BDF0B581B0C56B066C2F680168D1
:101410000A6853071BD504231C46B4403C4016D031
:101420000A68920603D40A680424A2430A60434A65
:10143000434CA14246DD434B994253D0424B994223
:1014400053D0424B994253D101218B0465E00346AE
:101450002033009394071ED502231C46B4403C4021
:1014600019D00A689206009D05D401226A700A68A4
:101470000A24A2430A60314A314CA1422ADD314B91
:1014800099423CD0304B99423CD0304B99423CD1B0
:1014900001214B0449E012074DD50822B2403A40E1
:1014A00049D00A680E239A430A6001210A46B240D5
:1014B0006A600A02009B1A808163016B00293AD09E
:1014C000884738E0224CA14227D0224B99420FD1C5
:1014D000402322E01E4CA14227D01E4B994214D13A
:1014E000202322E001218B0217E001218B0314E06D
:1014F000144668340123A1420ED09B060DE0012161
:101500004B0212E001214B030FE013466833012424
:10151000994209D0630608E09B051360C16A00295F
:1015200009D0884701B0F0BD630500212970136020
:10153000816A0029F5D101B0F0BDC0460400024027
:101540002F00024030000240440002405800024098
:10155000080002401C000240F0B585B000282BD0E6
:10156000044601462031C4C805684068019060699E
:101570000290A0690390E06904901068104B03404A
:1015800033433B432B43019803430298034303989F
:1015900003430498034313600A48E06301200002F8
:1015A0000880094810181421FEF736FF80002064D7
:1015B0000020A06305B0F0BD012005B0F0BDC0461D
:1015C0000FC0FFFF00000240F8FFFDBFF0B581B083
:1015D00005462020285C0224012826D028462030F9
:1015E000012606704778012F11D10024AC63022731
:1015F000477028680768B74307602846FFF7E2FA94
:1016000028680168EA6A002A04D00E2207E0002157
:1016100001700AE004229143016002680A2111432B
:1016200001602868016831430160204601B0F0BDC7
:10163000F0B587B004900B68002B00D1D8E06D485E
:10164000049A824201D0042000E003200090002789
:101650003C46039705910BE028689843286005995C
:10166000641C0B681846E0403F1D002800D1BFE015
:1016700001200646A6403340F2D002904A685F48F7
:10168000824211DC122A3FD87A44127952009744E0
:10169000210930333B3B3B3B3B3B3B3B3B3B3B3BF9
:1016A0003B353800C8682EE05548824209DC58486E
:1016B00082420FD0574882420CD05748824209D00C
:1016C00022E05048824205D04F48824202D04F4823
:1016D000824219D18868002805D0012805D10498D4
:1016E000066108200FE004200DE004984661082000
:1016F00009E0C868083006E0002004E0C868001D62
:1017000001E0C8680C3003901A0A384601D0384608
:1017100020380F252E468640002A04990A4600D01C
:101720000A1D1168B143039E86400E431660059959
:10173000C879C00600D493E772490868029A10433A
:1017400008600868104006900C223A40954003203B
:10175000214681430698314E8859A8438E19049931
:101760002F4DA94201960ED02E4DA94207D02E4DE5
:10177000A942009E0599204D08D1022606E0059950
:101780001D4D029E02E0002605991B4D9640064322
:10179000019806604E68F00304D428460C380068AF
:1017A000984303E028460C380068184329460C3952
:1017B0000860B00304D4284608380068984303E062
:1017C0002846083800681843294608390860F0029E
:1017D00003D4281F0068984302E0281F00681843BC
:1017E000291F0860B00200D436E72868184335E79F
:1017F00007B0F0BD001401400C040140FFFF1010C1
:10180000FFFF2110000022100000311000003210F4
:10181000000011100000121000002110080001400B
:1018200000080140000C01400010014080680840A1
:10183000411E88417047C2680B4693430A40110419
:10184000C91801617047002A00D10904016170477D
:10185000054800687047C0461B48007802490A687E
:10186000101808607047C046E408002080B5F148B1
:10187000016810220A430260032000F05AF80F208A
:1018800000F004F800F022F8002080BDB0B5044656
:101890007D20C0000C490978FEF7BEFD0146EB48EB
:1018A0000068FEF7B9FD00F0B9FB01250F2C09D83F
:1018B000002807D10025E84321462A4600F02AF8EF
:1018C000DF4804602846B0BD8400002082B00D4986
:1018D0000A68012002430A600A6802400192019AE4
:1018E00002074B6813434B6049681140009100990F
:1018F00007210906044A13688B4340061818106034
:1019000002B07047181002400400014080B502F098
:10191000ADFA80BD70B514460D46064602F0B4FA25
:101920002946224601F0B2FD0146304602F0B2FAE5
:1019300070BD80B502F0BEFA80BD000070B5002415
:10194000012811D002281DD0102826D1274D286843
:10195000291F0968C90120D58102090F26A2545CFC
:10196000C0032ED4DB4834E0032001021F48C269C3
:101970008D1C1540012381267600B5420FD1DC0372
:10198000204670BD00F070F918490968490B06221D
:101990000A40911CFEF740FD0446204670BD0A40F7
:1019A0008A4207D05B029A42F7D1036A9B0719D497
:1019B0008A42F2D1001F00688003C1170D48084019
:1019C00070BD28688003C00F0FA1095CBB48FEF7FB
:1019D00023FD444328684002DFD460000321FEF762
:1019E0001BFD70BD024C204670BDC0460410024075
:1019F000409C000024F400000203040506070809C7
:101A00000A0B0C0D0E0F101001020000F0B585B08E
:101A10000178C907394F49D003900120029001078E
:101A200038680840019006D1386808433860386843
:101A30000840049004980091314E3068C00511D4DC
:101A400002980402306820433060FFF701FF05462A
:101A50003068204206D1FFF7FBFE401B6428F7D90F
:101A600003253AE0032528027968014010D0039A43
:101A70005268024091420BD078682349029A0A606A
:101A800000220A6001461F4A11407960C00727D131
:101A90007A681C48024003984168114379600199B3
:101AA000002903D13968009A914339600468A1077D
:101AB00008D5032189033A46183A13688B43816895
:101AC000194311600025E10607D501218A05183F59
:101AD00039689143C06808433860284605B0F0BDB6
:101AE000FFF7B6FE0646544C78688007D0D4FFF75F
:101AF000AFFE801BA042F7D9EFE7C0461C100240A2
:101B000000700040FFFCFFFF40044242F0B583B08C
:101B100004460120002C59D00E46464A116807237E
:101B20001940B14207D211689943314311601168DD
:101B30001940B1424AD10290206881075E4D11D50B
:101B4000410703D519022A680A432A60010703D511
:101B5000D9022A680A432A602968F0229143A268C0
:101B60000A432A600193C00732D1324A1068019BB0
:101B70001840B042029807D9116899433143116067
:101B800011681940B14221D1206841074A4D05D55D
:101B900019022A688A43E16811432960000706D5C3
:101BA000D802296881432069C0000843286000F0FA
:101BB00069F829680906090F204A515CC840234981
:101BC00008601F480068FFF761FE002003B0F0BD09
:101BD0006068022809D00128374A25D1111F0968F9
:101BE000890307D4029803B0F0BD334A111F096876
:101BF0008901F7D5116803230093994301431160CC
:101C0000FFF726FE07460C4D2B4800680C210140CB
:101C1000606880008142A8D0FFF71AFEC01BA8426E
:101C2000F2D9009803B0F0BD111F09688907D9D512
:101C3000E0E7C0460020024088130000B45C0008C2
:101C400088000020014800687047C04664000020FA
:101C500080B5FFF7F7FF184909684905490F084A99
:101C6000515CC84080BDC04680B5FFF7EBFF12490C
:101C700009688904490F024A515CC84080BDC046CA
:101C8000C45C000810B50C490A680C2313400B48CB
:101C9000082B07D193021B0F09A4E35CD20302D4E3
:101CA0000C48584310BD584309688903C90F08A25E
:101CB000515CFEF7B1FB10BD0410024000127A0027
:101CC00002030405060708090A0B0C0D0E0F10107D
:101CD0000102000000093D00F0B587B0012700288F
:101CE00044D005900078C007C74E23D071680C20FF
:101CF0000140042917D071680140082902D1706899
:101D0000C00310D4049705984768002F00D124E140
:101D100005200004874200D128E1012001048F4200
:101D200000D01CE128E13068800303D505984068A5
:101D300000281BD005980078800743D570680007FD
:101D4000800F07D070680C210140082911D17068FC
:101D5000C0030ED430688007059A02D510690128A7
:101D600004D13068F8218843516928E0384607B02B
:101D7000F0BD059C2169A54800290DD00121016015
:101D8000FFF766FD05463068800714D4FFF760FD55
:101D9000401B0228F7D903E100210160FFF758FD3D
:101DA0000546306880070DD5FFF752FD411B032023
:101DB0000229F6D925E13068F82188436169C90014
:101DC00001433160059C2078000722D5A0690028D6
:101DD0000ED08F4801210160FFF73AFD0546706A79
:101DE000800714D4FFF734FD401B0228F7D9D7E051
:101DF000874800210160FFF72BFD0546706A8007C8
:101E000007D5FFF725FD401B0228F7D9C8E001F0F0
:101E100067FC207840071ED4E469002C18D0706855
:101E20000C21014008294BD1012C384600D1E8E0B3
:101E30000120020471680A40059C236A9A4200D07E
:101E4000DFE00F2292041140626A914200D0D8E094
:101E5000002007B0F0BD0497012003900107F0694E
:101E60000840029006D1F0690843F061F06908402B
:101E7000069006980191674F3868C00510D4039802
:101E80000402386820433860FFF7E2FC05463868F2
:101E9000204205D1FFF7DCFC401B6428F7D97FE026
:101EA0000598C768002F03D0052F29D0012F2BD00C
:101EB000306A039988433062306A0421884326E0FF
:101EC000524900200866012004904706FFF7C0FC35
:101ED0000546022C0AD1049C306838426FD0FFF7C7
:101EE000B7FC411B03200229F6D98AE0306838424A
:101EF000AED0FFF7ADFC411B03200229F6D980E0EC
:101F0000306A042101433162306A03990843306228
:101F1000FFF79EFC0546404C002F09D0049F306A15
:101F2000800710D4FFF794FC401BA042F7D937E09C
:101F3000049F306A800706D5FFF78AFC411B032007
:101F4000A142F6D95DE002980028059C00D063E725
:101F5000F06901998843F0615EE70120010432686D
:101F60008A43326081043068884307E0012081049D
:101F700032680A4332600104306808433060FFF77A
:101F800067FC054601204404002F0CD0049F3068F4
:101F9000204200D0CEE6FFF75BFC401B6428F6D958
:101FA000032007B0F0BD049F3068204200D1C1E695
:101FB000FFF74EFC411B03206429F5D921E0059B66
:101FC000186A2104884205D1610472688A439968BD
:101FD000114371603D21090472688A43596A0143C3
:101FE0001143716009480466FFF732FC044630680B
:101FF000384200D02CE7FFF72BFC011B03200229FD
:10200000F5D907B0F0BDC0460010024000004242C2
:1020100080044242007000408813000080B501F047
:1020200075FB80BD7047704770B53C22825C012A09
:1020300001D1022070BD03463C3300221A703F23B9
:102040001B02CC689C430F239D028E68AE4326433F
:10205000DB024C689C43344307231B030D689D43FC
:10206000254303235B030C699C432C434B692343A7
:102070000124A403A343C9691943006841641046BD
:1020800070BDF0B589B0002853D00D460446074610
:102090003C377878002804D100203870204600F0C2
:1020A0004DF8022078702068211D01F08BFBAB6891
:1020B00029682068032201F0A7FC206881690C22AE
:1020C00091438161696882690A4382614168802223
:1020D0000A43426070210291CA4301928168114013
:1020E0008160816840220A438260816807229143AF
:1020F0008160816804220A43826000260796069662
:10210000089605960496E968039102A901F0E6FB9A
:1021100020684168019A11404160416850220A4399
:1021200042600120B872B870F870B871F8717870B8
:1021300000E00126304609B0F0BD0000F0B585B0E2
:10214000002504950395029501950126B1070068C5
:10215000884201D005B0F0BDE64841683143416096
:1021600041683140009100990168042211430160E7
:102170000168114000910099016808273943016006
:102180000068384000900098039602950B48019033
:10219000DA4801AC2146FFF74BFA03960295019706
:1021A000D5482146FFF744FA05480168054A0A4028
:1021B00005495118016005B0F0BDC046048000001B
:1021C00004000140FFFCFFF800010007B0B53C220D
:1021D000825C012A01D10220B0BD02463C320223BA
:1021E000537001231370006844687025AC430D6878
:1021F000254384684560324DA84206DC9D07A8420D
:1022000009D0314DA84206D00AE0B94DA84202D00B
:102210002C4DA84204D18025AC43496821438160FC
:10222000002010705370B0BD10B504464230002934
:10223000024608D0082903D0042903D1421C02E039
:10224000821C00E0C21C1278012A08D10222002957
:1022500007D0082907D0042907D1427006E00120E1
:1022600010BD027002E0827000E0C270206804229B
:1022700001F0F5FA0122D00321684B6C03434B6453
:10228000F848814206DC9007814209D0F848814233
:1022900006D00FE0F448814202D0F448814209D1CF
:1022A0008868072303400020062B07D00B681343E0
:1022B0000B6010BD086810430860002010BDC046C8
:1022C000FF0700400008004000040040B0B50D4684
:1022D00004460068002201F0C2FA2068026A15492B
:1022E0000A4208D1026A144B1A4204D10122D203D5
:1022F000436C93434364026A0A4207D1016A0E4A5F
:10230000114203D10168012291430160423401204E
:10231000082D06D0042D07D0002D08D120700020F4
:10232000B0BDA0700020B0BD60700020B0BDE070F6
:102330000020B0BD11110000440400007047B0B58A
:1023400004468020C54320680169890716D5C16805
:10235000890713D529467E310161012121778069E2
:10236000800703D02046FFF7E9FF05E0204600F094
:10237000EFF8204600F022FA00202077206801695B
:10238000490717D5C168490714D529467C31016131
:102390000221217780698005800F03D02046FFF756
:1023A000CDFF05E0204600F0D3F8204600F006FA05
:1023B0000020207720680169090716D5C168090740
:1023C00013D529467831016104212177C06980073E
:1023D00003D02046FFF7B2FF05E0204600F0B8F832
:1023E000204600F0EBF90020207720680169C9063B
:1023F00017D5C168C90614D5294670310161082175
:102400002177C0698005800F03D02046FFF796FF33
:1024100005E0204600F09CF8204600F0CFF90020AF
:10242000207720680169C90708D0C168C90705D0AD
:1024300029467F310161204600F05AFA206801697F
:10244000090606D5C168090603D505612046FFF7D0
:10245000E9FD20680169490608D5C168490605D526
:10246000294640310161204600F043FA20680169A5
:10247000890607D5C168890604D5603505612046FF
:10248000FFF7D1FDB0BD000070B586B00021059109
:102490000491039102910068F349884201D006B08B
:1024A00070BDC548016808221143016001681140F0
:1024B00001910199016804221143016000681040F4
:1024C0000190022505950395072670030290019857
:1024D000094802AC2146FFF7ABF805950395300299
:1024E000029006482146FFF7A3F806B070BDC0462B
:1024F000002C014018100240000C0140000801406F
:1025000010B53C23C35C012B01D1022010BD044651
:102510003C34012323700223DA41032A15D8C04634
:102520007A441279520097440105090D006801F0C0
:10253000A3F90AE0006801F0D1F906E0006801F0B3
:1025400003FA02E0006801F037FA0020207010BDA5
:102550007047B0B500281DD0044605463C35687864
:10256000002804D100202870204600F015F8022031
:10257000687001CC214601F025F90120A872A870ED
:10258000E87028716871A871E871287268726870C3
:102590000020B0BD0120B0BD70470000B0B50446BA
:1025A0003E300029024608D0082903D0042903D16F
:1025B000421C02E0821C00E0C21C1278012A08D1F1
:1025C0000222002907D0082907D0042907D1427028
:1025D00006E00120B0BD027002E0827000E0C2702F
:1025E00002220846D041032806D8800019A21058BC
:1025F0002268D3680343D360206801252A4601F08E
:1026000021F9216896480246443A914203D1EA03EF
:102610000368134303609348814206DCA8078142A4
:1026200009D09348814206D00FE0AF48814202D0E2
:102630008E48814209D18868072202400020062A7C
:1026400007D00A682A430A60B0BD086828430860BA
:102650000020B0BD020000000400000008000000DF
:1026600010000000FF070040002C0140000800405F
:1026700000040040F0B581B005463C20285C0128EC
:1026800002D1022001B0F0BD2E463C360127377042
:102690000220C241032A4AD80C46C0467A44127925
:1026A00052009744011122312868214601F0E4F8D4
:1026B0002868816908220A43826181690422914362
:1026C0008161216918302FE02868214601F006F960
:1026D000F902286882690A438261B90282698A43E1
:1026E00082612169090218301EE02868214601F044
:1026F0002BF92868C16908220A43C261C169042212
:102700009143C16121690EE02868214601F054F926
:10271000F9022868C2690A43C261B902C2698A43E0
:10272000C261216909021C3002680A43026000206C
:10273000307001B0F0BDB0B500281DD0044605468C
:102740003C356878002804D100202870204600F02D
:1027500015F80220687001CC214601F033F8012001
:10276000A872A870E87028716871A871E871287261
:10277000687268700020B0BD0120B0BD10B582B095
:1027800000685949884201D002B010BD0120C00242
:1027900009490A6802430A600968014001910198E9
:1027A0001B24002120460A46FFF7B4F82046FFF715
:1027B000ADF802B010BDC0461810024070470000CE
:1027C000B0B504463E300029024608D0082903D09F
:1027D000042903D1421C02E0821C00E0C21C1278D2
:1027E000012A08D10222002907D0082907D004298C
:1027F00007D1427006E00120B0BD027002E0827095
:1028000000E0C270206801252A4601F01BF821680B
:1028100013480246443A914203D1EA030368134342
:1028200003601048814206DCA807814209D01048A5
:10283000814206D00FE02C48814202D00B488142F1
:1028400009D18868072202400020062A07D00A68BA
:102850002A430A60B0BD0868284308600020B0BD64
:10286000442C0140FF070040002C014000080040BC
:1028700000040040B0B50D4604460068002200F098
:10288000E1FF20681749184A90420BD1126A0A42A8
:1028900008D1026A154B1A4204D10122D203436CBB
:1028A00093434364026A0A4207D1016A0F4A114204
:1028B00003D101680122914301603E340120082DBB
:1028C00006D0042D07D0002D08D120700020B0BD07
:1028D000A0700020B0BD60700020B0BDE07000208E
:1028E000B0BDC04611110000002C0140440400009E
:1028F000704770477047B0B50446006841693D2293
:10290000A25C25463D35212A0DD1802211400AD0F6
:10291000416991434161606B002801D0FEF70EFDD3
:10292000204601F045F9206841696A78222A0DD1D4
:10293000402211400AD0416991434161A06B0028B7
:1029400001D0FEF7FBFC204601F00FF90020B0BDDE
:1029500070470000F0B585B001680B68CF6820248F
:102960003D4625402F221A404E69202A05D1002DD0
:1029700003D001F027F905B0F0BD019403901807CA
:10298000029054D0012006400402224620323A40F0
:10299000B2184CD0D90705D03C4003D0039A116C33
:1029A000014311645907039C05D5002E03D0216C07
:1029B00002220A432264990705D5002E03D0216C18
:1029C00004220A4322640298002805D52E4303D02E
:1029D000216C08220A432264216C002900D186E080
:1029E0001F40B80602D5204601F0ECF82068406987
:1029F00040252840216C08220A40101800D182E0AE
:102A0000204601F0B2F820684169490676D541694F
:102A1000A9434161A06B002870D03E494163FEF795
:102A2000ABFC002863D0A06B416B88475FE01F4080
:102A3000FA06039E326B25D5012A23D10023049385
:102A4000086804904868049004984869400621D4B6
:102A5000F08DB28DF48D002C49D0101A020446D0AE
:102A600009225201CC689443CC604A690124A243F4
:102A70004A613E22019CB4543363CA6810239A43CE
:102A8000CA602EE0390634D4780630D5304601F0DD
:102A900083F82CE0B06B0268526895B2002D26D006
:102AA000B48DA54223D2F2858269202A16D01A4A13
:102AB0002032CC681440CC604A690124A2434A61A8
:102AC0004A694024A2434A613E22019CB4543363C4
:102AD000CA6810239A43CA60FEF730FCF08DB18DAE
:102AE000081A81B23046FFF705FF05B0F0BD05B00A
:102AF000F0BD304601F040F905B0F0BD2046FFF7CB
:102B000027FF05B0F0BD2046FFF722FF002020641C
:102B100005B0F0BD693A0008DFFEFFFFB0B582B036
:102B2000D649884201D002B0B0BD08680168C90624
:102B3000F9D500250195016801914068019001983F
:102B4000CE48FFF7D8FE012004025D4800684068C7
:102B5000201A010404D081B20548455402F0AEF9B0
:102B6000C6480349224600F0B1F802B0B0BDC046E5
:102B70009803002070B5002828D0044605463C354F
:102B80006878002804D100202870204600F020F842
:102B900024206870012046032068C168B143C160E9
:102BA000204601F06BF80920C00221680A698243BF
:102BB0000A6148692A2290434861C8683043C86066
:102BC0000020206420216970A97070BD012070BDB3
:102BD000F0B587B00446002706970597049703973A
:102BE00000683249884201D007B0F0BD012080035F
:102BF0002F490A6802430A600A680240029202985A
:102C000008680822104308600868104002900320FA
:102C1000069002200490402003900298254803ADBE
:102C20002946FEF705FD059704978026039621485F
:102C30002946FEF7FDFC20480168204A0A4302604D
:102C40001F4D2048143081C52F6001966E60AF6023
:102C5000EF602F616F61083D2846FEF77DFC00287C
:102C600001D0FDF7FBFF6C62A563174D10201549DD
:102C700029606860AF600198E8602F616F61AF61A3
:102C8000EF612846FEF768FC002801D0FDF7E6FF5B
:102C90006C6265632524002120460A46FEF73AFE51
:102CA0002046FEF733FE07B0F0BDC04600380140B5
:102CB00018100240000C014004000140040000070D
:102CC0003C0200204400024080020020B0B53E23B8
:102CD000C45C0223202C12D1012400290DD0002A2B
:102CE0000BD005463C352C78012C1C4605D0002421
:102CF000046301232B7001F009F82046B0BD18468B
:102D0000B0BD704770470000F0B585B00E4605466F
:102D10003D20285C022120282AD10120002E5AD0F3
:102D20001746002A57D02A463C3210780128084618
:102D300051D01C46002001902864012002901070A0
:102D4000212003925070FEF783FD0490EF84AF843E
:102D500002980003A96881420DD1019A28690028D0
:102D6000374600D000270028039907D1064605E022
:102D7000084605B0F0BD019A174603990A7009E0AC
:102D800038881649084029684860BF1C0026E88C2E
:102D9000401EE884E88C00280ED080212846049A42
:102DA000234601F017F800280ED1002EE8D0307825
:102DB00029684860761CEAE740212846049A2346A1
:102DC00001F008F8002802D0032005B0F0BD202053
:102DD00003994870002005B0F0BDC046FF01000017
:102DE000F0B581B0134604463D20225C0220202A23
:102DF00029D10125002927D0002B25D026463C3695
:102E00003278012A05461FD0E38400252564A38477
:102E1000216201203070606B0E4F0F4A8262C762E0
:102E20000B4A02634563212272702268121DFEF76D
:102E3000CDFB4020C043216808603570486980227E
:102E400002434A6100E00546284601B0F0BDC04695
:102E5000793A0008613B0008353B000880B5074916
:102E6000884200D080BD0868C16840229143C1609B
:102E700002F036F8012000F0EFFF80BD540300207F
:102E80007047000010B50F220A40000111180023FE
:102E90000DA2D45CC8B2A0420FD05C1C0B2B234601
:102EA000F7D300220BA18B5C984209D0531C0A2A4D
:102EB0001A46F8D9002040B210BD012040B210BD22
:102EC000FF2040B210BDC046455113322664415325
:102ED0001236246562233115544663213514564257
:102EE00010B5044600F02EF82079401E052809D8B8
:102EF000784400794000874402090C0F12150F48EE
:102F0000E08010BD608C401C608410BD0948E080EA
:102F100010BD0948E08010BD0448E08010BD08489D
:102F2000E08010BD0248E08010BDC046A7EA000066
:102F3000FDBF000053950000A96A0000FF3F00009C
:102F400055150000F0B585B00446203003902046AA
:102F50001C3002902046183001902046143000901A
:102F6000002604961FE0218CE069FEF75FFC401EFE
:102F7000414241418F000098019909880068FEF79D
:102F800055FC0546E068218AFEF750FC401E414290
:102F90004141681E42424241500038430843F1B269
:102FA0008842064610D0A07A7828DCD03C280498C5
:102FB000F5D1218B6069FEF739FC401E411E884126
:102FC000870002980399D8E7207105B0F0BDB0B52D
:102FD00004460579FFF784FF2179A94206D02089AC
:102FE000401C20812846FFF74DFF6071B0BDFEE711
:102FF00080B5034948433721FDF72EFA00B280BD62
:103000002603000070B584B01D480021017501261B
:1030100006731C4A0324046107256B04C361330251
:10302000026041608360039102910191FEF780F894
:10303000002801D0FDF712FE039502960194104876
:1030400001A9FDF779FF002801D0FDF707FE022056
:103050000290042001900A4801A9FDF76DFF0028A5
:1030600001D0FDF7FBFD02940195054801A9FDF78C
:1030700063FF002801D0FDF7F1FD04B070BDC0462C
:10308000980100200024014070B58AB0284800242F
:10309000047501250573274907225204C2612A02DB
:1030A0000994089407940326066112C002600694EE
:1030B0000594049403940294019400940838FEF754
:1030C00037F8002801D0FDF7C9FD07A870C01848DF
:1030D00007A9FDF731FF002801D0FDF7BFFD022051
:1030E00008900795124807A9FDF726FF002801D090
:1030F000FDF7B4FD0896052007900D4807A9FDF7D8
:103100001BFF002801D0FDF7A9FD69468C820495BC
:103110000195062000900294039428030690044829
:10312000FDF720FE002801D0FDF798FD0AB070BD24
:10313000C801002000280140B0B582B013480168E2
:1031400001221143016000681040019001980B2595
:103150000024284621462246FEF7DCFB2846FEF7DF
:10316000D5FB0E25284621462246FEF7D3FB2846EE
:10317000FEF7CCFB0F25284621462246FEF7CAFB68
:103180002846FEF7C3FB02B0B0BDC0461410024093
:10319000F0B587B0002406940594049403942A485B
:1031A00001681022114301600168114002910299E7
:1031B00001680422114301600168114002910299E3
:1031C00001680822114301600068104002900298D3
:1031D000012675031D4829462246FEF734FBF102FD
:1031E00001911B482246FEF72EFB0327F9020091AE
:1031F00018482246FEF727FB069705960496039586
:1032000003AD12482946FEF713FA059604944320AD
:10321000000103900E4C20462946FEF709FA069756
:10322000059604960198039020462946FEF700FA79
:103230000697059604960098039006482946FEF7DF
:10324000F7F907B0F0BDC046181002400010014069
:10325000000C01400008014070B592B000241194A8
:1032600010940F940E940D940C940B940A9409945A
:10327000F44880217D2632012025374B38C002607A
:1032800044608460C1600894079406940594049493
:103290000394029401940C38FFF74DFA002801D0F2
:1032A000FDF7DCFCF848FFF754F9002801D0FDF7E2
:1032B000D5FC11941095F44810A9FEF787FF00285B
:1032C00001D0FDF7CBFC0E940D9408200C900B94CC
:1032D00060200990012568020F90F0000A90EA48EA
:1032E00009A92246FFF7C6F9002801D0FDF7B6FC70
:1032F000E54809A90422FFF7BDF9002801D0FDF730
:10330000ADFCE14809A90822FFF7B4F9002801D073
:10331000FDF7A4FC0F940A940994DB4809A90C2238
:10332000FFF7EEF8002801D0FDF798FC089405940B
:103330000520049003940294019468030690D248F7
:1033400001A9FEF771FE002801D0FDF787FCCE48E9
:10335000FFF79AF812B070BD002C014010B586B08E
:1033600012480024846112490122920714C00460AB
:103370004160846005940494039402940194009441
:1033800002A90838FEF77DFE002801D0FDF766FC93
:1033900001945020009005486946FEF717FF002869
:1033A00001D0FDF75BFC06B010BDC0460C03002049
:1033B000FFFF000010B5134800210C22084BE12448
:1033C000640218C0016041608160C26001614161B6
:1033D0000838FFF7CFFB002801D0FDF73FFC10BDF8
:1033E00000380140FEE7000080B506480168CA6861
:1033F00010231343CB6001210A020349FFF766FC47
:1034000080BDC0465403002098030020FEE7000062
:1034100070B57D21CA00424301210903091A1046F3
:10342000FDF71AF81749884202DD642080B270BDAA
:10343000622802DA002080B270BD002414251249EF
:103440002B46224605E094B2B5B22B1B012B334626
:103450000ADD2C19660874000C5BA04200DC3246C1
:10346000A042F0DC1E46EEE762008B5A89184988BC
:10347000591A181A32256843FCF7EEFF65434019C4
:1034800080B270BDBD0A0000CC5C000870B5072496
:103490002040C31E0025032800D22B46ED432E46B4
:1034A0009E40B2436040042800D304208540A943D5
:1034B00099401143084670BDF0B581B00446C0691B
:1034C000616AFCF7C3FE06462061E568E0602946B4
:1034D000FCF7BCFEA76B3946FCF7FDFE0090A0612F
:1034E00028463146FCF761FE3F210906FCF7B6FE8F
:1034F0003946FCF7B3FE0546606121683046FCF7AB
:10350000ADFE064661682846FCF7A8FE0146304637
:10351000FCF74BFE0546A1680098FCF79FFE0146AC
:103520002846FCF742FE0146656B2846FCF73DFE47
:1035300060632046294600F002F801B0F0BDF0B506
:1035400081B000910446066B456B28463146FCF776
:103550002AFF002806D1E66A28463146FCF715FF07
:10356000002800D16663A66A00213046FCF7F1FE10
:10357000002828D1606B0099FCF768FEA76B3946DC
:10358000FCF7A9FE05463146FCF7E3FE002809D109
:1035900030463946FCF762FE0099FCF706FE606390
:1035A00001B0F0BD0120C10771402846FCF7EDFED7
:1035B000002808D130463946FCF750FE01460098F5
:1035C000FCF744FE606301B0F0BD000003494143D5
:1035D000080B704701494143080B7047E40C000099
:1035E000774B1B6858639963DA637047F0B581B015
:1035F000B4203949085CB4314978090208184008F8
:1036000001460246FFF7ECFF6D4C00252046294697
:10361000FFF7D6F8042620463146FFF7D1F80827F1
:1036200020463946FFF7CCF820462946FEF7FCFD38
:1036300020463146FEF7F8FD20463946FEF7F4FDF8
:1036400001B0F0BDC4020020F0B581B05C4C002593
:1036500020462946FFF70EF9042620463146FFF79B
:1036600009F9082720463946FFF704F9204629467C
:10367000FEF72CFE20463146FEF728FE204639464E
:10368000FEF724FE01B0F0BDC402002010B582B0E8
:103690006C46211D204601F069F85A210E4851223E
:1036A00042547D21C90022794A43617964234B4306
:1036B0009918A27989185222815402465A3200235D
:1036C000D3709370C32454705230C3700A0C82704C
:1036D000090A417002B010BDE405002070470000E7
:1036E00080B582B0074800687D218901FCF794FE0F
:1036F000019000BF0198411E01910028F9D102B04C
:1037000080BDC0466400002070470000B0B5401E78
:10371000010E01D00120B0BD054D68600024E043DA
:103720000F2100F0B7FBAC60072028602046B0BD39
:1037300010E000E080B5FEF78FF880BDF0B593B0E3
:1037400009AD28212846FCF717FD002708970797A1
:103750000697059704970720C0041290119702243A
:10376000109410200E9001260D960994039702974D
:10377000019700972846FEF7AFFA002816D1089760
:1037800006970F200490B0020790059404A82146E4
:10379000FEF7BCF9002809D10094F00302906846B6
:1037A000FEF734F9002801D113B0F0BDFDF756FA49
:1037B0007047000080B50248FEF7C1FD80BDC046DD
:1037C000C4020020B0B50568A44AA34CA04207DC9F
:1037D00001239B07984208D0A24B984205D012E0E3
:1037E000904202D09E4B98420DD170239D434B686E
:1037F0002B43A0420ADC0124A407A0420BD0994C21
:10380000A04208D00DE02B46A042F4DD904202D049
:10381000934CA04205D103242402A343CC681C434B
:1038200000E01C4680239C434B69234303608B6864
:10383000C3620B688362904201D10969116301215F
:103840004161B0BD10B51F230B4001219940046AAE
:103850008C4304629A40016A1143016210BD10B5A5
:103860001F230B4004219940046A8C4304629A4050
:10387000016A1143016210BDF0B581B0026A0123F3
:103880009A430262026A02239A438E68164345688D
:103890000A6800928369714FB84204D03446B84236
:1038A00009D02E460EE00C24A643CC680422944393
:1038B0003443B842F5D10322120295434E698A6916
:1038C0002E431643466073229343009A1343836149
:1038D00049684163046201B0F0BDC046F0B581B0F3
:1038E000026A10239A430262026A20239A438B6879
:1038F0001E01164344680A6800928269574FB84215
:1039000018D03546B84208D103239B029C434B692B
:103910008E699B002343B4001C43446073231B0245
:103920009A43009B1B0213438361496881630562CC
:1039300001B0F0BDC025AE43CD682D0140239D43AD
:103940003543B842E9D1DFE7F0B581B00122130277
:10395000046A9C4304625202036A93438A68160213
:103960001E4344680A680092C3693C4FB84216D0AF
:103970003546B84208D10322120394434A698E693E
:103980001201224334011443446073229343009A8A
:103990001343C3614968C163056201B0F0BD0325EB
:1039A000AD02AE43CD682A02024D15403543B84200
:1039B000EAD1E0E700FBFFFFF0B581B0012213037D
:1039C000046A9C430462036A44688D6800950E682B
:1039D000C569224FB84201D0274604E09703BC4393
:1039E0004F69BF012743476073242402A543340273
:1039F0002C43C4614968016451038B430099090356
:103A00001943016201B0F0BDF0B5046A0126B44368
:103A100004628569046A104FB84206DCB707B842F1
:103A200009D0104FB84206D014E00C4FB84202D073
:103A30000B4FB8420ED10326B5431543F0229543F0
:103A40001A01D2B2AA1882610A2211409443611865
:103A50000162F0BD3543F1E7FF070040002C014053
:103A6000000800400004004080B5406A0021C18584
:103A7000C184FEF76DFF80BDB0B5446A206840691F
:103A80003D21615C25463D35212907D18021084033
:103A900004D00020E084204600F08AF820684069C5
:103AA0006978222907D14021084004D00020E08510
:103AB000204600F05AF8206C102101432164204672
:103AC000FEF746FFB0BD10B50146406A09680968B7
:103AD000890618D40021C185012213020168CC682F
:103AE0009C43CC604B6993434B614A6940239A43A2
:103AF0004A613E2220238354026B012A03D1CA6803
:103B000010239A43CA60016B012903D1818DFEF70E
:103B1000F1FE10BDFFF7F5F810BD80B5406A016BEE
:103B2000012904D1818D4908FEF7E4FE80BDFFF72D
:103B3000E9F880BD80B50146406A096809688906D0
:103B40000BD40021C1840068416980229143416106
:103B5000C16840220A43C26080BDFFF77FF980BD83
:103B600080B5406AFFF78CF980BD09214A010168E0
:103B7000CB689343CB604A6901239A434A61026B45
:103B8000012A03D1CA6810239A43CA603E21202229
:103B9000425400210163704780B50168CA68402320
:103BA0009A43CA603D2120224254FFF757F980BD55
:103BB0000168CA68C0239A43CA603D21202242544A
:103BC0007047000070B582B03E21415C22291FD1B0
:103BD000836801210C03A34202D10269002A40D06C
:103BE000826AA34209D0002B02D10369002B04D0C2
:103BF00003685C687F23234001E003685B681370FF
:103C0000826A51188162C18D491EC185090401D0A3
:103C100002B070BD02463E320168CB682024A34347
:103C2000CB6001231D02CE68AE43CE604D699D433B
:103C30004D611470026B012A1BD100220263CB6814
:103C40001024A343CB600B68DB0605D501920A68FC
:103C50000192496801910199818DFEF74BFE02B0F6
:103C600070BD016849685A4A0A40816A0A80022187
:103C7000C6E7FFF746F802B070BDC046F0B581B0A8
:103C8000044603210A03006803699343E2681A4368
:103C900002612269C3681B4D1D40A368134362691A
:103CA0001A432A43C260090242698A43A169114347
:103CB00041611549884202D0FDF7CAFF01E0FDF7D6
:103CC000D3FF19224243606881001046FCF7A4FB31
:103CD000064664273946FCF79FFB05466320C04330
:103CE00068438019000132303946FCF795FB0F21FB
:103CF0000140F02202402801101840182168886015
:103D000001B0F0BDF3E9FFFF00380140F0B581B02C
:103D100013460A46054600240464838581623C30CC
:103D200022218170A86B1149114E124F8762C66221
:103D3000016344632968091DFDF748FC0094286865
:103D4000016800914168009100993C216C54012167
:103D50000A02C3681343C36042690A43426141696E
:103D600040220A434261204601B0F0BD793A000882
:103D70001B3B0008C73A00083D21415C21291BD1AB
:103D80000121090382688A4202D10169002906D013
:103D9000016A4A1C026202680978516007E0016A00
:103DA0008A1C026209880A4A0A4001684A60C18C7A
:103DB000491EC184090400D070470068C168802290
:103DC0009143C160C16840220A43C2607047C04647
:103DD000FF010000F0B583B00C460546006800689E
:103DE000084000210291A04202D1029803B0F0BD28
:103DF0001E46174628463C30019004E028680068BB
:103E00002040A042F1D0701CF8D0002E04D0FDF765
:103E10001FFDC01BB042F1D90D2040012968CA68BE
:103E20008243CA6048690122904348612020019A78
:103E30005070002111709070032003B0F0BD00009D
:103E400010B5044C2046FEF769FE2046FEF782FDC1
:103E500010BDC046540300207047FEE780B5132113
:103E600048436A21FCF7D8FA80BD0000002807D437
:103E70001F21014001228A4040098000014942502F
:103E80007047C04600E100E0194800684005400F57
:103E90007047C046002804DA0F221040044A8018F8
:103EA00001E0024A801809010170704700E400E057
:103EB00014ED00E00E490A68044B13404007400D22
:103EC000C018034A801808607047C046FFF8000019
:103ED0000000FA05BFF34F8F0720000204490A686B
:103EE0000240044810180860BFF34F8F00BFFDE781
:103EF0000CED00E00400FA0584B014460E460746B7
:103F000018A0162101252A4601F0C2FE384600F00D
:103F100023FC1AA0072739462A4601F0B9FE30468D
:103F200000F01AFC17A039462A4601F0B1FE01AD97
:103F30000020E8720A26AE720A35012C0DDBC74359
:103F400020463146FCF788FA31464143611A303148
:103F5000E955ED19092C0446F2DC284600F0FCFB7B
:103F600000F014F82A2A2A20617373657274696F4D
:103F70006E206661696C65643A2000002C206669D9
:103F80006C6520002C206C696E652000FEE7000047
:103F9000B0B5044685680560C0680146FCF705F9C0
:103FA00001462846FCF701F90249FCF757F9606021
:103FB000B0BDC04636CD133F10B5054C2078012862
:103FC00004D100F031FB0020207010BD062010BD90
:103FD00068000020F0B581B00D460988032405294A
:103FE00030D10279C17809028E18711E89B2344B22
:103FF000994227D8811C00918778417800242C8031
:10400000012303702B885B1C2B805307B2B2D608A8
:10401000002B00D0761C009B46702888401C28800E
:104020000802C019401C81B21846234600F008FB64
:10403000002803D001F005F8044603E0F0B2298817
:1040400008182880204601B0F0BDC046F0B581B008
:104050000D460988032405292FD10279C178090268
:104060008E18711E89B2164B994226D8811C009178
:104070008778417800242C80022303702B885B1CF6
:104080002B805307B2B2D608002B00D0761C009BC1
:1040900046702888401C28800802C019401C81B244
:1040A000184600F0CFFA002803D000F0CAFF0446FB
:1040B00003E0F0B2298808182880204601B0F0BD3E
:1040C000CE070000F0B581B00D460988032405290C
:1040D00023D10279511E7C291FD8831C817847780F
:1040E00000242C80032606702E88761C2E80560015
:1040F00046702888401C288038024018401C81B235
:104100001846234600F0A0FA002803D000F099FFDB
:10411000044602E0288880192880204601B0F0BDBE
:10412000F0B581B00D4609880324052928D101790D
:10413000C278120251184A1E92B27B2A20D8821CE1
:1041400000928778437800242C80042202702A8809
:10415000521C2A808AB2560046702888401C28804B
:104160001802C019401C81B2009800F0BBFA002868
:1041700003D000F066FF044602E0288880192880FA
:10418000204601B0F0BDF0B583B005460888002692
:104190000A284CD30C462879E97809020F18781EB2
:1041A00081B203207C2940D8297AEA791202511879
:1041B0004A1E92B2782A38D86B7A8AB251008B4262
:1041C00033D1A879697909020818411CA8780290AE
:1041D0006878019028460A3089B2012300F034FA49
:1041E000014600281BD1BAB201980002029940187A
:1041F000411CA81C0023238017272F7027887F1CB1
:10420000278057006F7025886D1C258089B200F0CB
:104210001BFA0146002802D12088C01920800029FD
:10422000304602D0084600F00CFF03B0F0BD304627
:1042300003B0F0BDB0B50C4605490D88401C0549DA
:104240002A46FBF780FF681C20800020B0BDC046D6
:10425000DC080020BC07002010B582B009880324C8
:1042600005291DD1017900291AD182784378C178B6
:10427000FF2901D0002913D118028018421C01A87F
:1042800000244470FF394B424B41037091B201222C
:10429000134600F0D5F9002802D000F0D2FE044603
:1042A000204602B010BD80B5098805290FD181785C
:1042B000427812025118491C89B2C01C01221346CF
:1042C00000F0C2F9002804D000F0BBFE80BD03203E
:1042D00080BD002080BD70B50C46034609880320D0
:1042E000062923D31E79D97809028D19AAB2D108DB
:1042F000760700D0491C6D1EADB22D097A2D15D858
:104300005D79C9B28D4211D198785978090208189F
:10431000401C81B2981D012300F092F9002802D0C0
:1043200000F08FFE70BD05202080002070BDB0B56C
:104330000C4602460988032006291FD311795379B8
:104340004D062D0EAB4219D1D3781B025B18591EB6
:1043500089B2772912D89078517809020818401C40
:1043600081B2901D9AB2012300F06EF9002802D0AC
:1043700000F067FEB0BD052020800020B0BD000029
:10438000B0B50D46F83D0224082D01D22046B0BD3F
:104390000029FBD04C4C2170002803D00224002CB3
:1043A000F4D112E0049C0F480F4D05600F48104DEA
:1043B00005601048104D0560084611461A46234610
:1043C00000F08AF80446002CE0D100F097FF0028A6
:1043D00004D03948012101702046B0BD0324204695
:1043E000B0BDC046B804002081530008B4040020CA
:1043F00079530008BC0400207D530008F0B581B05B
:104400002D480078002801D0062452E0684600F0CC
:1044100069FF002400284CD068460078022814D098
:10442000012846D1254D2649264A284600F072F833
:1044300000283ED12878002803D0234909788842F3
:1044400037D1022000F060FF33E01D4D286801786D
:104450001E4A11701E4E0127377000221D4B9C5CB6
:10446000002C0AD08C4203D00832802AF7D104E015
:1044700099184A6813499047307010480078002412
:10448000002816D0307800280CD00E490F800F4A33
:104490001278802313432A6813700A88531C0B80F8
:1044A000296888540748028829680748007800F07E
:1044B0007BF8204601B0F0BD68000020900100208C
:1044C0008C01002092010020B80700208901002003
:1044D000880100208C00002010B5144608460822F0
:1044E000214600F01BFF00280ED04B200002844222
:1044F00001D9232003E061000548FBF78DFF80B25E
:1045000000F038FF002801D1032010BD002010BDAD
:10451000A07F1700F0B581B00646114C2088000A34
:1045200018D120880527042811D30D460092218830
:104530003B4800F0B9FE002809D1394908783070AD
:10454000481C28602088C01E009908800027384633
:1045500001B0F0BD03A00DA17F22FFF7CDFCC04646
:10456000DE08002075735263764275666665725088
:104570006F73203C204D425F5345525F5044555F5E
:1045800053495A455F4D4158000000002E2E2F4CD4
:1045900069627261726965732F6D6F646275732FE2
:1045A0006D627274752E6300F0B581B0234B1B7879
:1045B000012B2CD1184F01243C804B1E17490B6056
:1045C00018703888801838803988184600F06CFEDA
:1045D00039884A1C3A80124D685439884A1C3A80FE
:1045E000000A68540F48047000263046214600F047
:1045F00077FE3046FFF730FC55480168CA68402313
:104600001343CB603A882946FEF7EAFB00E0052613
:10461000304601B0F0BDC046E0080020B0040020E4
:10462000DC0700209601002080B5044800210170BD
:10463000012000F055FE00F054FE80BD95010020E1
:104640000120704701207047F0B584B0491E0191E8
:104650008EB201210291002521490396009306E0C4
:10466000002202926D1C022D039E1D4933D0EF00E3
:10467000CC5BA642F6D393B29B19CF197E8836192C
:10468000B342EFD8019B191B89B249007B685918C6
:104690000026009B002B10D00296012BE2D11404BF
:1046A000E0D0047824020C804678A4190C80801C89
:1046B000891C521E1404F4D1D2E7140409D04C789A
:1046C00004700C784470801C891C521E1404F6D1AE
:1046D000C6E70296C6E70298C0B204B0F0BDC04675
:1046E000F85E00080120704770B51D2B13D81C46DA
:1046F0000A4B18700A4E022030804842587000253C
:10470000002C06D0981C11462246FBF71CFDA01C6D
:104710003080284670BD0425284670BDBC070020A7
:10472000DC08002010B582B001900021CC430A289B
:1047300005D1074807A101222346FEF7E5FA044800
:1047400001A901222346FEF7DFFA019802B010BD4D
:10475000540300200D00000080B5014602A0FCF7C4
:104760006FF9002080BDC04625730000F0B581B010
:10477000002814D00546009100270EA419A6F8B20F
:10478000800021583046FBF702FD7F1C2028F6D11F
:104790001020E870AF70FD20C0002880009900292B
:1047A00005D0192088700D2048701720087001B0BE
:1047B000F0BDC046186700080867000824670008B5
:1047C00028670008346700081C67000814670008A1
:1047D00010670008206700082C6700083067000891
:1047E0000C6700084A616E203136203230323400C6
:1047F00070B504460568856040680B49FBF72EFDDF
:10480000064628463146FBF7D0FCBF210906FBF7D8
:1048100025FD206130462946FBF718FD3F2109069A
:10482000FBF71CFDE06070BDD0B3DD3FF0B58DB08F
:104830000025099508950320284E30560002B178CE
:104840004018FBF7BEFD0A90052030560002317972
:104850004018FBF7B6FD0B900727F0570002B1791F
:104860004018FBF7AEFD0C9008A8FFF791FB2C2039
:10487000305C31462C3149780902081806ACA0801A
:104880000695204600F004FC0395029508980490D4
:10489000099805900220205EFBF793FDFD0629464E
:1048A000FBF7DCFC0190208800B2FBF78AFD29466B
:1048B000FBF7D4FC0090684600F09EFB0298FBF7E3
:1048C00092FD044630720398FBF78DFDB072210A09
:1048D0007172000AF0720DB0F0BDC046E405002010
:1048E000F0B583B004468668016802913046FBF754
:1048F000B5FC01906568E76828463946FBF7AEFCD1
:104900000199FBF752FC606130462946FBF7A6FC93
:10491000054638460299FBF7A1FC01462846FBF7FD
:1049200095FC206103B0F0BD9EB0FCF79FFFFEF741
:1049300005FFFEF72DFCFEF7FFFBFEF763FBFEF71E
:104940008BFCFEF70BFDFEF735FDFEF79DFBFCF73C
:104950006DF91DACCC20A070F548208002200B9092
:104960000090E120430200270125384629462A46C7
:10497000FFF706FD342003230490294622461C46F7
:10498000FFF7B2FEFFF718FBFEF72EFDE948FEF732
:10499000A7FAE948FCF766F9FEF778FE7D210A01DF
:1049A000B420E64E0892325490201C903554179152
:1049B000CB00A82011903354A62010903354A4208B
:1049C0000F903354B22080213154AC210B2015912B
:1049D0007054642007900B9931544220FA49039097
:1049E00031543820082131543620099434542E2073
:1049F000F42131543046B4300721069141703046DD
:104A000090301B9047703146A831180A0E914870BB
:104A10003146A6310D9148703146A4310C91487051
:104A20003046B2303E2141703046AC301490477071
:104A30003046643005904770314642311F20029164
:104A40004870F773B77330463830477030463630A9
:104A500047707773377330462E30189545707775E9
:104A60003775F7740C21B17477700A973770D7488F
:104A7000026816931364FDF791FDFCF779F8FFF7D0
:104A8000BDFC3078717809020818022800D197E13E
:104A9000D0480068D049FCF7CAF8002808D0FCF7D5
:104AA000B3F8CC490860C848411CCC48FCF7C3FEA9
:104AB0003025705D34463034189961560A0210185A
:104AC000C91340184840401C81B2C548FBF7A4FCFC
:104AD0000146C4480068FCF7AAF8002808D0FCF793
:104AE00093F8C049086008993031BF48FCF7A3FE2D
:104AF0003078717809020818BC490988814208D0C9
:104B0000BA490880002802D0FEF770FD01E0FEF7E8
:104B10009BFDAC48C0882A211A91705431462A3135
:104B2000000A19914870B2480068B249FCF77FF852
:104B3000002830D0FCF768F813900520A14F3956B3
:104B40000A204843FBF73DFCAB49FBF787FB129576
:104B500005463889FBF740FC01462846FBF77EFBFB
:104B600005460798305C0599497809020818FBF753
:104B700033FC01462846FBF7AEFBA049FBF7ABFB35
:104B8000FBF731FC129970549949139A0A600A99FB
:104B90003981000A60709A4800681699FCF747F856
:104BA000002837D0FCF730F895490860954CA0886C
:104BB000FEF72EFCE921490070547118000A487074
:104BC000E088FFF74BF915997054000A1499487062
:104BD0002089FEF7FBFCBA21715C3246BA3252786A
:104BE000120251180818B8217054000A3146B83121
:104BF00048706089FEF7EEFCBE21715C3246BE3221
:104C00005278120251180818BC217054000A31461B
:104C1000BC3148707C48006817998900FCF707F898
:104C2000002860D0FBF7F0FF774908600B987549C2
:104C3000085E76490968401AFEF7DAF9644F78434E
:104C4000159C315D149D6A7812025118FBF704FC23
:104C5000B070000AF0706D4840686A49098809B26E
:104C6000081AFEF7C5F97843315D6A7812025118C7
:104C7000FBF7F2FBB071010AF17109997156090253
:104C8000B2788918081840423071000A70710846DD
:104C9000FBF797FB01465E4800F0E4F9FBF7A3FB46
:104CA000B070000AF07005203056000231794018CB
:104CB000FBF787FB0146574800F0D4F9FBF793FB5D
:104CC0003071000A7071069830560002B1794018B0
:104CD000FBF777FB0146504800F0C4F9FBF783FB74
:104CE000B071000AF071FFF7A1FD3648FEF76FF9C9
:104CF000307871780902081800D1C0E61C98305C41
:104D00001B99497809020818012819D000282DD1CB
:104D10003220305C314632314978090208182C21A2
:104D2000715C32462C32527812025118091817E081
:104D3000AABB00000000002098010020E40500202C
:104D40001A98305C19994978090208180399715C1E
:104D5000029A52781202511808181D49FBF75CFBA1
:104D60002C20315430462C30090A417000F0A0F953
:104D700000F0BCF80F98305C0C99497809020818CB
:104D80001099715C0D9A527812025118119AB25C06
:104D90000E9B5B781B029A18FEF722FC1C98305C75
:104DA0001B9949780902081800D068E60498305C1D
:104DB00031463431497809020818FBF717FF5EE6DF
:104DC000FFF788F800000020FF1F0000C402002049
:104DD000FFFF00009804002040420F000010014037
:104DE000809698009C04002000080140AC0400203C
:104DF000A0040020A0860100000070420000C04016
:104E0000A404002028010020A80400201001002094
:104E10006C000020740000207C000020F0B581B000
:104E20000446C0C830463946FBF7A1FAA5680028F9
:104E300013D030462946FBF7A8FA00281AD1384685
:104E40002946FBF7A2FA21462431002826D1042066
:104E500008702846394635462AE030462946FBF791
:104E600086FA00280CD024200521215428463146FA
:104E70003D461DE02420022121543846314617E0EA
:104E800038462946FBF773FA2146243100280BD017
:104E900006200870304629463D4609E00320087088
:104EA00038462946354603E0012008703046394629
:104EB000E5602161606101B0F0BD000080B50A4687
:104EC0000146054802800548FBF73DF906490120E7
:104ED000087000F019FA80BDDE080020DC07002011
:104EE000014801210170704795010020F0B599B08B
:104EF0002C20A14E305C31462C314978090208182B
:104F000017ACA08000271797204600F0C1F816972D
:104F100015970220205EFBF754FA0721CD0629469B
:104F2000FBF79CF91290208800B2FBF74AFA294659
:104F3000FBF794F911900D2030560002317B401898
:104F4000FBF73FFA13900F2030560002B17B401858
:104F5000FBF737FA149011A8FFF7C2FC15980C90D4
:104F600010970F970E9716980D900CA80190FFF7C9
:104F70003FFC242402AD2F55B420305C3146B431BF
:104F8000497809020818E8840E9802900F98039057
:104F900005971098049006970797089709970A971E
:104FA0002846FFF73BFF285DAA2170543046AA30FF
:104FB00047702846019900F0E5F80898FBF713FAC6
:104FC0000446A42034540998FBF70DFA0546A620A0
:104FD00035540A98FBF707FAA82170543146A431DA
:104FE000220A4A703146A6312A0A4A70A836000AB7
:104FF000707019B0F0BDC046F0B583B00446466885
:10500000416902913046FBF729F90190256927682B
:1050100028463946FBF722F901460198FBF716F9B5
:10502000E06028463146FBF719F9054602983946F3
:10503000FBF714F901462846FBF7B7F8A06003B068
:10504000F0BD102807D200280BD0072806D0012871
:1050500006D1022070470F21084070470620704794
:105060000420704770B5044606683046FBF7F6F832
:1050700005467F20C0053146FBF7E8F80146606829
:10508000FBF7ECF801462846FBF78FF8606070BD2F
:10509000818889094A00054B9A5A028001229207A9
:1050A00089058918490D595A41807047085F0008E1
:1050B000F0B581B02F4C20687D21FBF7B8FD0028AA
:1050C00056D0FBF7A1FD20602B4E30787178090295
:1050D000081849D09020305C314690314978090257
:1050E000081845D02E20355CCD20400035543018AE
:1050F00031462E310127CC5744703020305C314688
:105100003031C95709020818FBF75BF91B4948629F
:1051100020024019FBF755F9184CE0613620305C4D
:1051200031463631C95709020818FBF74AF9144DC0
:105130002946FBF7D0F820603820305C3146383102
:10514000C95709020818FBF73CF92946FBF7C3F8D1
:1051500060602046FEF7B0F9606BFBF744F9B0736E
:10516000000AF07301B0F0BD04480021C160416144
:1051700001B0F0BDC0040020E405002024000020A0
:1051800000007A44F0B585B00D46029008684449A5
:10519000FBF764F801466C682046FBF706F83F21F0
:1051A00009060391FBF75AF8074600263146FBF73C
:1051B000FAF805460497384627462146FBF746F895
:1051C000002D01D1032500E0022501903146FBF7B7
:1051D000EAF80028029C00D06D1E24202554384691
:1051E0003146FBF7D2F821462431002803D1087854
:1051F0000722101A08700878401E0428049A15D84F
:105200007844007940008744020911020900A26134
:1052100038460199FBF71AF8E06113E0E7611046A0
:105220000199FAF7C2FFA06104970BE00120C007C3
:10523000019B19464140A361E16138461146FAF7E6
:10524000B4FF0490A0691749FBF745F8039D294670
:10525000FAF7ABFF0646E08CFBF7BEF80746304690
:105260003946FAF7FBFFA061E0690E4E3146FBF7C5
:1052700032F82946FAF799FF3946FAF7EFFFE0616D
:105280000120C007049948403146FBF724F829461D
:10529000FAF78BFF3946FAF7E1FF206205B0F0BD5F
:1052A000D0B3DD3F00FF7F47F0B5FF2200290ED0CD
:1052B000094B0A4C154607785740DE5DE25D6A40AF
:1052C000401C491E0D043546F5D1300200E01002A5
:1052D000104380B2F0BDC046F65D0008F65C0008E1
:1052E0007047704701460C4A1078012804D1094BD9
:1052F0001B780B70002111707047C04606480021D2
:10530000017001207047C04602490870024901201F
:105310000870704794010020E808002010B50128AB
:105320001CD1134C6160002B06D0072A0DD0082A2F
:105330000DD10120000309E000202061072A16D0CA
:10534000082A10D10020A0600DE00020A060012BF1
:1053500006D0022B02D10120800203E0002010BD04
:105360000320400220610248FDF704FC012010BD2B
:105370005403002001207047002070470020704730
:105380000020704710B5024B024A00F0E5F810BD4E
:1053900025470008340100202021020C01D01021F3
:1053A0001046020A01D010460839020901D0104601
:1053B000091F820801D01046891E420801D0881EAC
:1053C0007047081A704702E008C8121F08C1002A77
:1053D000FAD170477047002001E001C1121F002A76
:1053E000FBD17047F0B51FB486B00998089A030D39
:1053F0000021024314D05148514A18185043051453
:105400001198012810981AD0281A401C00264D4FD8
:105410004D49009601910490002812DA444211E0AF
:105420001198012449A3012801D11098C14306987D
:10543000119A84600360C26041600BB0F0BD4042CD
:10544000E4E70446210500203F4A001C5141039136
:10545000029012E0E00707D032463B4601990098DF
:10546000FBF746F90191009032463B46104619463B
:10547000FBF73EF906460F466410002CEAD104986B
:10548000039B0028029A0999089806DAFBF730F97D
:10549000019B009AFBF72CF905E0FBF791F9019BC2
:1054A000009AFBF78DF904460E460022284BFBF7C5
:1054B0001FFA03D80020C043014607E00022254B15
:1054C00020463146FBF762F8FBF7F2F9102409E0B9
:1054D000002C0ADB0A220023FAF7E6FF079B303292
:1054E0001A55641E02460A43F2D11122641C079B1E
:1054F000121B1C19119B012B03D0012308430ED151
:105500000AE0084304D0112010900020119077E7A2
:105510001098151A6D1E0BE01098824202DD0023D0
:105520006D1C03E0824201DA00236D1E002BEED0D9
:10553000069811998260C16030C07EE701FCFFFFD0
:10554000104D0000000014400000F03F300000004B
:105550000000F0430000E03FFFB597B0064600258D
:1055600018E2252877D100242746FD49049400E05D
:105570000443761C32780120203A90400842F7D14B
:1055800030782A280ED00222307801463039092995
:1055900016D804990A235943303940181443761C0D
:1055A0000490F1E7189802C804911890002904DAD1
:1055B0000120400304434842049002200443761C27
:1055C00030782E2814D1042004437078761C2A28C1
:1055D00009D11898761C80C8189009E00A214F4319
:1055E000303FC719761C3078014630390929F5D982
:1055F00030786C2810D006DC4C281AD068280ED0E1
:105600006A2817D104E0742813D07A2812D110E048
:105610000120400504430CE00121090501E00321BC
:1056200009050C437178814203D10120000524183B
:10563000761C761C3078119066280BD013DC582825
:105640007DD009DC00287BD04528F6D04628F4D050
:1056500047281AD1A5E118E0632835D0642870D016
:10566000652812D19DE170286CD008DC6728F1D044
:1056700069287BD06E280DD06F2806D1BAE0732838
:105680002ED0752871D0782859D01A9A1999904738
:105690006D1C7EE16002400F022809D003280DD066
:1056A0000428189801680DD00D60001D189070E155
:1056B0001898EA1701680D604A60F6E718980168C3
:1056C0000D80F2E70D70F0E718986A4601781172C4
:1056D000001D18900020507202A80090012005E0E3
:1056E000189802C8189000200091C04361070DD59A
:1056F000002101E00199491C0191B94212DA81426D
:10570000F8DB009A515C0029F4D10BE0002101E0A4
:105710000199491C01918142FADB019A0099895C47
:105720000029F5D1019904981A9B471A2146384659
:10573000199A00F097FA0199401945180BE04FE0CB
:105740002CE113E04EE0009800990078491C00918C
:105750001A9A199990470198401E0190401CF2D165
:10576000214638461A9B199A10E137E00A20002199
:10577000009001916002410F022907D0189A01CAD6
:105780001892C2179446032908D00AE01898C01D41
:10579000C108C90005C91891944607E000B2C217B4
:1057A0009446042902D140B2C1178C4600226146BA
:1057B000944506DA0A460021404291418C462D214B
:1057C00002E0210504D52B216A461173012103E073
:1057D000E10701D02021F7E7029155E00A200AE015
:1057E000102008E0102000900021042004430191C3
:1057F000082703E008200021019100906002410F7A
:10580000022907D0189A01CA189200229446032947
:1058100008D008E01898C01DC108C90005C9189132
:10582000944603E080B2042900D1C0B20021029165
:10583000210729D51199702906D0009A1021019BC2
:105840004A401A4305D00EE040216A4611730121F7
:1058500008E06146014306D030216A461173119970
:10586000517302210291009A0821019B4A401A4378
:105870000AD16146014301D1610705D530216A464D
:10588000117301217F1E02911199582904D035A16D
:105890000E910DA90D910DE037A1F9E76146019B2D
:1058A000009AFAF701FE0E9B8C469B5C0D9A521EE5
:1058B0000D92137061460143F0D10D9805A9081AA5
:1058C00020300190600703D501200004844300E0EC
:1058D00001270198874201DD381A00E00020019974
:1058E00000904118029809180498401A0490E003A7
:1058F00006D421461A9B199A049800F0B3F9451969
:10590000002706E003A81A9AC05D199990476D1CFC
:105910007F1C02988742F5DBE0030CD521461A9BD9
:10592000199A049800F09EF9451904E01A9A30205B
:10593000199990476D1C0099481E00900029F5DCCC
:1059400008E00D980D990078491C0D911A9A199943
:1059500090476D1C0199481E01900029F1DC63E11C
:105960000928010030313233343536373839616235
:1059700063646566000000003031323334353637F9
:1059800038394142434445460000000000F05AF9CE
:105990004519761C3078002800D0E2E528461BB077
:1059A000F0BD600700D406271898C01DC108C900C3
:1059B00048680A680831C30FDB071891190001D045
:1059C0009CA108E0210501D59BA104E0E10701D0DD
:1059D0009AA100E09AA1430011985B0810916528F4
:1059E0000CD006DC452809D046281DD0472841D1D7
:1059F00041E0662818D067283CD13CE00021112FF7
:105A000001DB112000E0781C0191009008A911A889
:105A1000FFF7E8FC139905910021119A15927F1C5C
:105A200012980197009150E00120C00703900120D7
:105A3000019008A9009711A8FFF7D4FC139A1499B4
:105A400005920022119B009212981593059A0192DB
:105A5000002901D0104602E0791C40180190381A44
:105A600001D5019804E04042401E0090781C01904E
:105A7000C01B029043E0012F00DA01270021112F03
:105A800001DD112000E038460191009008A911A81D
:105A9000FFF7A8FC13990591119A0021129815920D
:105AA0000091019721070CD40599B94201DB0199B6
:105AB00000E00191012904DD159A491E515C30294D
:105AC00006D0B84201DA011D05DA0121029115E084
:105AD0000199491EEDE7002805DC00994118009165
